{"contracts/DropKitPass.sol":{"DropKitPass":{"abi":[{"inputs":[],"stateMutability":"nonpayable","type":"constructor"},{"anonymous":false,"inputs":[{"indexed":true,"internalType":"address","name":"owner","type":"address"},{"indexed":true,"internalType":"address","name":"approved","type":"address"},{"indexed":true,"internalType":"uint256","name":"tokenId","type":"uint256"}],"name":"Approval","type":"event"},{"anonymous":false,"inputs":[{"indexed":true,"internalType":"address","name":"owner","type":"address"},{"indexed":true,"internalType":"address","name":"operator","type":"address"},{"indexed":false,"internalType":"bool","name":"approved","type":"bool"}],"name":"ApprovalForAll","type":"event"},{"anonymous":false,"inputs":[{"indexed":true,"internalType":"uint256","name":"tokenId","type":"uint256"},{"indexed":true,"internalType":"address","name":"owner","type":"address"}],"name":"PassActivated","type":"event"},{"anonymous":false,"inputs":[{"indexed":true,"internalType":"uint256","name":"tokenId","type":"uint256"},{"indexed":true,"internalType":"address","name":"owner","type":"address"}],"name":"PassDeactivated","type":"event"},{"anonymous":false,"inputs":[{"indexed":true,"internalType":"uint256","name":"tokenId","type":"uint256"},{"indexed":true,"internalType":"address","name":"member","type":"address"}],"name":"PassMemberAdded","type":"event"},{"anonymous":false,"inputs":[{"indexed":true,"internalType":"uint256","name":"tokenId","type":"uint256"},{"indexed":true,"internalType":"address","name":"member","type":"address"}],"name":"PassMemberRemoved","type":"event"},{"anonymous":false,"inputs":[{"indexed":true,"internalType":"uint256","name":"stageId","type":"uint256"},{"indexed":true,"internalType":"uint96","name":"feeRate","type":"uint96"},{"indexed":true,"internalType":"uint256","name":"price","type":"uint256"}],"name":"PassOptionCreated","type":"event"},{"anonymous":false,"inputs":[{"indexed":true,"internalType":"uint256","name":"stageId","type":"uint256"},{"indexed":true,"internalType":"uint96","name":"feeRate","type":"uint96"}],"name":"PassOptionPurchased","type":"event"},{"anonymous":false,"inputs":[{"indexed":true,"internalType":"uint256","name":"stageId","type":"uint256"},{"indexed":true,"internalType":"uint96","name":"feeRate","type":"uint96"},{"indexed":true,"internalType":"bytes32","name":"data","type":"bytes32"}],"name":"PassOptionRedeemed","type":"event"},{"anonymous":false,"inputs":[{"indexed":true,"internalType":"uint256","name":"stageId","type":"uint256"},{"indexed":true,"internalType":"uint96","name":"feeRate","type":"uint96"},{"indexed":true,"internalType":"uint256","name":"price","type":"uint256"},{"indexed":false,"internalType":"bool","name":"isValue","type":"bool"}],"name":"PassOptionUpdated","type":"event"},{"anonymous":false,"inputs":[{"indexed":true,"internalType":"uint256","name":"tokenId","type":"uint256"},{"indexed":true,"internalType":"uint256","name":"newStageId","type":"uint256"},{"indexed":true,"internalType":"uint256","name":"newFeeRate","type":"uint256"}],"name":"PassUpgraded","type":"event"},{"anonymous":false,"inputs":[{"indexed":true,"internalType":"bytes32","name":"role","type":"bytes32"},{"indexed":true,"internalType":"bytes32","name":"previousAdminRole","type":"bytes32"},{"indexed":true,"internalType":"bytes32","name":"newAdminRole","type":"bytes32"}],"name":"RoleAdminChanged","type":"event"},{"anonymous":false,"inputs":[{"indexed":true,"internalType":"bytes32","name":"role","type":"bytes32"},{"indexed":true,"internalType":"address","name":"account","type":"address"},{"indexed":true,"internalType":"address","name":"sender","type":"address"}],"name":"RoleGranted","type":"event"},{"anonymous":false,"inputs":[{"indexed":true,"internalType":"bytes32","name":"role","type":"bytes32"},{"indexed":true,"internalType":"address","name":"account","type":"address"},{"indexed":true,"internalType":"address","name":"sender","type":"address"}],"name":"RoleRevoked","type":"event"},{"anonymous":false,"inputs":[{"indexed":true,"internalType":"uint256","name":"stageId","type":"uint256"},{"indexed":false,"internalType":"uint256","name":"maxAmount","type":"uint256"},{"indexed":false,"internalType":"uint256","name":"maxPerWallet","type":"uint256"},{"indexed":false,"internalType":"uint256","name":"maxPerMint","type":"uint256"},{"indexed":false,"internalType":"bool","name":"presale","type":"bool"}],"name":"SaleStarted","type":"event"},{"anonymous":false,"inputs":[{"indexed":true,"internalType":"uint256","name":"stageId","type":"uint256"}],"name":"SaleStopped","type":"event"},{"anonymous":false,"inputs":[{"indexed":true,"internalType":"address","name":"from","type":"address"},{"indexed":true,"internalType":"address","name":"to","type":"address"},{"indexed":true,"internalType":"uint256","name":"tokenId","type":"uint256"}],"name":"Transfer","type":"event"},{"anonymous":false,"inputs":[{"indexed":true,"internalType":"uint256","name":"stageId","type":"uint256"},{"indexed":true,"internalType":"uint96","name":"feeRate","type":"uint96"},{"indexed":false,"internalType":"uint256","name":"newStageId","type":"uint256"},{"indexed":false,"internalType":"uint96","name":"newFeeRate","type":"uint96"},{"indexed":false,"internalType":"uint256","name":"price","type":"uint256"},{"indexed":false,"internalType":"bool","name":"active","type":"bool"}],"name":"UpgradePathSet","type":"event"},{"inputs":[],"name":"DEFAULT_ADMIN_ROLE","outputs":[{"internalType":"bytes32","name":"","type":"bytes32"}],"stateMutability":"view","type":"function"},{"inputs":[{"internalType":"uint256","name":"tokenId","type":"uint256"}],"name":"activatePass","outputs":[],"stateMutability":"nonpayable","type":"function"},{"inputs":[{"internalType":"uint256","name":"tokenId","type":"uint256"},{"internalType":"address[]","name":"members","type":"address[]"}],"name":"addPassMembers","outputs":[],"stateMutability":"nonpayable","type":"function"},{"inputs":[{"internalType":"address","name":"to","type":"address"},{"internalType":"uint256","name":"tokenId","type":"uint256"}],"name":"approve","outputs":[],"stateMutability":"nonpayable","type":"function"},{"inputs":[{"internalType":"address","name":"owner","type":"address"}],"name":"balanceOf","outputs":[{"internalType":"uint256","name":"","type":"uint256"}],"stateMutability":"view","type":"function"},{"inputs":[{"internalType":"uint256","name":"stageId","type":"uint256"},{"internalType":"address[]","name":"recipients","type":"address[]"},{"internalType":"uint96[]","name":"feeRates","type":"uint96[]"}],"name":"batchAirdrop","outputs":[],"stateMutability":"nonpayable","type":"function"},{"inputs":[{"internalType":"uint256","name":"stageId","type":"uint256"},{"internalType":"uint96","name":"feeRate","type":"uint96"},{"internalType":"uint256","name":"price","type":"uint256"}],"name":"createPassOption","outputs":[],"stateMutability":"nonpayable","type":"function"},{"inputs":[{"internalType":"uint256","name":"tokenId","type":"uint256"}],"name":"deactivatePass","outputs":[],"stateMutability":"nonpayable","type":"function"},{"inputs":[{"internalType":"uint256","name":"tokenId","type":"uint256"}],"name":"disconnectPassMember","outputs":[],"stateMutability":"nonpayable","type":"function"},{"inputs":[{"internalType":"uint256","name":"tokenId","type":"uint256"}],"name":"getActivatedOwnerByToken","outputs":[{"internalType":"address","name":"","type":"address"}],"stateMutability":"view","type":"function"},{"inputs":[{"internalType":"address","name":"owner","type":"address"}],"name":"getActivatedTokenByOwner","outputs":[{"internalType":"uint256","name":"","type":"uint256"}],"stateMutability":"view","type":"function"},{"inputs":[{"internalType":"uint256","name":"tokenId","type":"uint256"}],"name":"getApproved","outputs":[{"internalType":"address","name":"","type":"address"}],"stateMutability":"view","type":"function"},{"inputs":[],"name":"getDefaultFeeRate","outputs":[{"internalType":"uint96","name":"","type":"uint96"}],"stateMutability":"view","type":"function"},{"inputs":[{"internalType":"uint256","name":"tokenId","type":"uint256"}],"name":"getFeeRate","outputs":[{"internalType":"uint96","name":"","type":"uint96"}],"stateMutability":"view","type":"function"},{"inputs":[{"internalType":"address","name":"owner","type":"address"}],"name":"getFeeRateOf","outputs":[{"internalType":"uint96","name":"","type":"uint96"}],"stateMutability":"view","type":"function"},{"inputs":[{"internalType":"uint256","name":"tokenId","type":"uint256"}],"name":"getMaxAllowedPassMembers","outputs":[{"internalType":"uint96","name":"","type":"uint96"}],"stateMutability":"view","type":"function"},{"inputs":[{"internalType":"uint256","name":"tokenId","type":"uint256"},{"internalType":"uint256","name":"index","type":"uint256"}],"name":"getPassMemberAt","outputs":[{"internalType":"address","name":"","type":"address"}],"stateMutability":"view","type":"function"},{"inputs":[{"internalType":"uint256","name":"tokenId","type":"uint256"}],"name":"getPassMembersCount","outputs":[{"internalType":"uint256","name":"","type":"uint256"}],"stateMutability":"view","type":"function"},{"inputs":[{"internalType":"uint256","name":"stageId","type":"uint256"},{"internalType":"uint96","name":"feeRate","type":"uint96"}],"name":"getPrice","outputs":[{"internalType":"uint256","name":"","type":"uint256"}],"stateMutability":"view","type":"function"},{"inputs":[{"internalType":"bytes32","name":"role","type":"bytes32"}],"name":"getRoleAdmin","outputs":[{"internalType":"bytes32","name":"","type":"bytes32"}],"stateMutability":"view","type":"function"},{"inputs":[{"internalType":"uint256","name":"tokenId","type":"uint256"}],"name":"getStage","outputs":[{"internalType":"uint256","name":"","type":"uint256"}],"stateMutability":"view","type":"function"},{"inputs":[{"internalType":"address","name":"member","type":"address"}],"name":"getTokenByPassMember","outputs":[{"internalType":"uint256","name":"","type":"uint256"}],"stateMutability":"view","type":"function"},{"inputs":[{"internalType":"uint256","name":"stageId","type":"uint256"},{"internalType":"uint96","name":"feeRate","type":"uint96"},{"internalType":"uint256","name":"newStageId","type":"uint256"},{"internalType":"uint96","name":"newFeeRate","type":"uint96"}],"name":"getUpgradePrice","outputs":[{"internalType":"uint256","name":"","type":"uint256"}],"stateMutability":"view","type":"function"},{"inputs":[{"internalType":"bytes32","name":"role","type":"bytes32"},{"internalType":"address","name":"account","type":"address"}],"name":"grantRole","outputs":[],"stateMutability":"nonpayable","type":"function"},{"inputs":[{"internalType":"bytes32","name":"role","type":"bytes32"},{"internalType":"address","name":"account","type":"address"}],"name":"hasRole","outputs":[{"internalType":"bool","name":"","type":"bool"}],"stateMutability":"view","type":"function"},{"inputs":[{"internalType":"address","name":"owner","type":"address"},{"internalType":"address","name":"operator","type":"address"}],"name":"isApprovedForAll","outputs":[{"internalType":"bool","name":"","type":"bool"}],"stateMutability":"view","type":"function"},{"inputs":[{"internalType":"uint256","name":"stageId","type":"uint256"},{"internalType":"bytes32","name":"data","type":"bytes32"}],"name":"isRedeemed","outputs":[{"internalType":"bool","name":"","type":"bool"}],"stateMutability":"view","type":"function"},{"inputs":[{"internalType":"uint256","name":"stageId","type":"uint256"}],"name":"maxAmount","outputs":[{"internalType":"uint256","name":"","type":"uint256"}],"stateMutability":"view","type":"function"},{"inputs":[{"internalType":"uint256","name":"stageId","type":"uint256"}],"name":"maxPerMint","outputs":[{"internalType":"uint256","name":"","type":"uint256"}],"stateMutability":"view","type":"function"},{"inputs":[{"internalType":"uint256","name":"stageId","type":"uint256"}],"name":"maxPerWallet","outputs":[{"internalType":"uint256","name":"","type":"uint256"}],"stateMutability":"view","type":"function"},{"inputs":[{"internalType":"uint256","name":"stageId","type":"uint256"},{"internalType":"address","name":"account","type":"address"}],"name":"mintCount","outputs":[{"internalType":"uint256","name":"","type":"uint256"}],"stateMutability":"view","type":"function"},{"inputs":[],"name":"name","outputs":[{"internalType":"string","name":"","type":"string"}],"stateMutability":"view","type":"function"},{"inputs":[{"internalType":"uint256","name":"tokenId","type":"uint256"}],"name":"ownerOf","outputs":[{"internalType":"address","name":"","type":"address"}],"stateMutability":"view","type":"function"},{"inputs":[{"internalType":"uint256","name":"stageId","type":"uint256"}],"name":"presaleActive","outputs":[{"internalType":"bool","name":"","type":"bool"}],"stateMutability":"view","type":"function"},{"inputs":[{"internalType":"uint256","name":"stageId","type":"uint256"},{"internalType":"uint96","name":"feeRate","type":"uint96"},{"internalType":"uint64","name":"quantity","type":"uint64"},{"internalType":"uint64","name":"allowed","type":"uint64"},{"internalType":"address","name":"recipient","type":"address"},{"internalType":"bytes32[]","name":"proof","type":"bytes32[]"}],"name":"presalePurchasePass","outputs":[],"stateMutability":"payable","type":"function"},{"inputs":[{"internalType":"uint256","name":"stageId","type":"uint256"},{"internalType":"uint96","name":"feeRate","type":"uint96"},{"internalType":"uint64","name":"quantity","type":"uint64"},{"internalType":"address","name":"recipient","type":"address"}],"name":"purchasePass","outputs":[],"stateMutability":"payable","type":"function"},{"inputs":[{"internalType":"uint256","name":"stageId","type":"uint256"},{"internalType":"uint96","name":"feeRate","type":"uint96"},{"internalType":"uint64","name":"quantity","type":"uint64"},{"internalType":"address","name":"recipient","type":"address"},{"internalType":"uint256","name":"expiration","type":"uint256"},{"internalType":"bytes32","name":"data","type":"bytes32"},{"internalType":"bytes","name":"signature","type":"bytes"}],"name":"redeemPass","outputs":[],"stateMutability":"payable","type":"function"},{"inputs":[{"internalType":"uint256","name":"tokenId","type":"uint256"},{"internalType":"address[]","name":"members","type":"address[]"}],"name":"removePassMembers","outputs":[],"stateMutability":"nonpayable","type":"function"},{"inputs":[{"internalType":"bytes32","name":"role","type":"bytes32"},{"internalType":"address","name":"account","type":"address"}],"name":"renounceRole","outputs":[],"stateMutability":"nonpayable","type":"function"},{"inputs":[{"internalType":"bytes32","name":"role","type":"bytes32"},{"internalType":"address","name":"account","type":"address"}],"name":"revokeRole","outputs":[],"stateMutability":"nonpayable","type":"function"},{"inputs":[{"internalType":"address","name":"from","type":"address"},{"internalType":"address","name":"to","type":"address"},{"internalType":"uint256","name":"tokenId","type":"uint256"}],"name":"safeTransferFrom","outputs":[],"stateMutability":"nonpayable","type":"function"},{"inputs":[{"internalType":"address","name":"from","type":"address"},{"internalType":"address","name":"to","type":"address"},{"internalType":"uint256","name":"tokenId","type":"uint256"},{"internalType":"bytes","name":"data","type":"bytes"}],"name":"safeTransferFrom","outputs":[],"stateMutability":"nonpayable","type":"function"},{"inputs":[{"internalType":"uint256","name":"stageId","type":"uint256"}],"name":"saleActive","outputs":[{"internalType":"bool","name":"","type":"bool"}],"stateMutability":"view","type":"function"},{"inputs":[{"internalType":"address","name":"operator","type":"address"},{"internalType":"bool","name":"approved","type":"bool"}],"name":"setApprovalForAll","outputs":[],"stateMutability":"nonpayable","type":"function"},{"inputs":[{"internalType":"string","name":"newBaseURI","type":"string"}],"name":"setBaseURI","outputs":[],"stateMutability":"nonpayable","type":"function"},{"inputs":[{"internalType":"uint96","name":"feeRate","type":"uint96"}],"name":"setDefaultFeeRate","outputs":[],"stateMutability":"nonpayable","type":"function"},{"inputs":[{"internalType":"uint256","name":"stageId","type":"uint256"},{"internalType":"bytes32","name":"newRoot","type":"bytes32"}],"name":"setMerkleRoot","outputs":[],"stateMutability":"nonpayable","type":"function"},{"inputs":[{"internalType":"address","name":"signer","type":"address"}],"name":"setSigner","outputs":[],"stateMutability":"nonpayable","type":"function"},{"inputs":[{"internalType":"address","name":"newTreasury","type":"address"}],"name":"setTreasury","outputs":[],"stateMutability":"nonpayable","type":"function"},{"inputs":[{"internalType":"uint256","name":"stageId","type":"uint256"},{"internalType":"uint96","name":"feeRate","type":"uint96"},{"internalType":"uint256","name":"newStageId","type":"uint256"},{"internalType":"uint96","name":"newFeeRate","type":"uint96"},{"internalType":"uint256","name":"price","type":"uint256"},{"internalType":"bool","name":"active","type":"bool"}],"name":"setUpgradePath","outputs":[],"stateMutability":"nonpayable","type":"function"},{"inputs":[{"internalType":"uint256","name":"stageId","type":"uint256"},{"internalType":"uint256","name":"newMaxAmount","type":"uint256"},{"internalType":"uint256","name":"newMaxPerWallet","type":"uint256"},{"internalType":"uint256","name":"newMaxPerMint","type":"uint256"},{"internalType":"bool","name":"presale","type":"bool"}],"name":"startSale","outputs":[],"stateMutability":"nonpayable","type":"function"},{"inputs":[{"internalType":"uint256","name":"stageId","type":"uint256"}],"name":"stopSale","outputs":[],"stateMutability":"nonpayable","type":"function"},{"inputs":[{"internalType":"uint256","name":"stageId","type":"uint256"}],"name":"supply","outputs":[{"internalType":"uint256","name":"","type":"uint256"}],"stateMutability":"view","type":"function"},{"inputs":[{"internalType":"bytes4","name":"interfaceId","type":"bytes4"}],"name":"supportsInterface","outputs":[{"internalType":"bool","name":"","type":"bool"}],"stateMutability":"view","type":"function"},{"inputs":[{"internalType":"uint256","name":"oldTokenId","type":"uint256"},{"internalType":"uint256","name":"newTokenId","type":"uint256"}],"name":"switchPassActivation","outputs":[],"stateMutability":"nonpayable","type":"function"},{"inputs":[],"name":"symbol","outputs":[{"internalType":"string","name":"","type":"string"}],"stateMutability":"view","type":"function"},{"inputs":[{"internalType":"uint256","name":"index","type":"uint256"}],"name":"tokenByIndex","outputs":[{"internalType":"uint256","name":"","type":"uint256"}],"stateMutability":"view","type":"function"},{"inputs":[{"internalType":"address","name":"owner","type":"address"},{"internalType":"uint256","name":"index","type":"uint256"}],"name":"tokenOfOwnerByIndex","outputs":[{"internalType":"uint256","name":"","type":"uint256"}],"stateMutability":"view","type":"function"},{"inputs":[{"internalType":"uint256","name":"tokenId","type":"uint256"}],"name":"tokenURI","outputs":[{"internalType":"string","name":"","type":"string"}],"stateMutability":"view","type":"function"},{"inputs":[],"name":"totalSupply","outputs":[{"internalType":"uint256","name":"","type":"uint256"}],"stateMutability":"view","type":"function"},{"inputs":[{"internalType":"address","name":"from","type":"address"},{"internalType":"address","name":"to","type":"address"},{"internalType":"uint256","name":"tokenId","type":"uint256"}],"name":"transferFrom","outputs":[],"stateMutability":"nonpayable","type":"function"},{"inputs":[],"name":"treasury","outputs":[{"internalType":"address","name":"","type":"address"}],"stateMutability":"view","type":"function"},{"inputs":[{"internalType":"uint256","name":"stageId","type":"uint256"},{"internalType":"uint96","name":"feeRate","type":"uint96"},{"internalType":"uint256","name":"newPrice","type":"uint256"},{"internalType":"bool","name":"active","type":"bool"}],"name":"updatePassOption","outputs":[],"stateMutability":"nonpayable","type":"function"},{"inputs":[{"internalType":"uint256","name":"tokenId","type":"uint256"},{"internalType":"uint256","name":"newStageId","type":"uint256"},{"internalType":"uint96","name":"newFeeRate","type":"uint96"}],"name":"upgradePass","outputs":[],"stateMutability":"payable","type":"function"},{"inputs":[],"name":"withdraw","outputs":[],"stateMutability":"nonpayable","type":"function"}],"evm":{"bytecode":{"linkReferences":{},"object":"60806040523480156200001157600080fd5b506040805180820182526009815268526569676e4c61627360b81b60208083019182528351808501909452600384526205243560ec1b9084015281519192916200005e91600a9162000156565b5080516200007490600b90602084019062000156565b5050506c0100000000000000000000000033026001600160601b031916600a17601555620000ab6000620000a53390565b620000b1565b62000239565b60008281526014602090815260408083206001600160a01b038516845290915290205460ff16620001525760008281526014602090815260408083206001600160a01b03851684529091529020805460ff19166001179055620001113390565b6001600160a01b0316816001600160a01b0316837f2f8788117e7eff1d82e926ec794901d17c78024a50270940304540a733656f0d60405160405180910390a45b5050565b8280546200016490620001fc565b90600052602060002090601f016020900481019282620001885760008555620001d3565b82601f10620001a357805160ff1916838001178555620001d3565b82800160010185558215620001d3579182015b82811115620001d3578251825591602001919060010190620001b6565b50620001e1929150620001e5565b5090565b5b80821115620001e15760008155600101620001e6565b600181811c908216806200021157607f821691505b602082108114156200023357634e487b7160e01b600052602260045260246000fd5b50919050565b6152fe80620002496000396000f3fe6080604052600436106103ce5760003560e01c80636352211e116101fd578063a217fddf11610118578063d547741f116100ab578063f0f442601161007a578063f0f4426014610c2e578063f675e1b714610c4e578063f8dd1f7614610c6e578063f966281814610c8e578063f9c8220214610cae57600080fd5b8063d547741f14610b85578063e2c118d314610ba5578063e985e9c514610bc5578063ef08eaa814610c0e57600080fd5b8063c61df6a6116100e7578063c61df6a614610acc578063c87b56dd14610b0f578063ce5d4bd814610b2f578063d2aaef4e14610b6557600080fd5b8063a217fddf14610a4a578063a22cb46514610a5f578063b88d4fde14610a7f578063b8cae92c14610a9f57600080fd5b8063789e3a551161019057806395d89b411161015f57806395d89b41146109e257806396f5106a146109f75780639bcd5e0414610a175780639bd2a9be14610a3757600080fd5b8063789e3a551461096f5780637cf8577d1461098f57806391d14854146109af57806391e18f45146109cf57600080fd5b80636d1d16de116101cc5780636d1d16de146108ef57806370a082311461090f57806375741d2d1461092f5780637703f6d01461094f57600080fd5b80636352211e1461086f578063653fde471461088f57806369ada53a146108a25780636c19e783146108cf57600080fd5b806336568abe116102ed5780634847ce6511610280578063536565c41161024f578063536565c4146107d457806355f804b3146107f4578063579b7a301461081457806361d027b31461084a57600080fd5b80634847ce65146107445780634a5bd2fd146107645780634e6f1c20146107945780634f6ccce7146107b457600080fd5b80633ccfd60b116102bc5780633ccfd60b146106cf57806342842e0e146106e4578063476f56b81461070457806347b8c0031461072457600080fd5b806336568abe1461064a57806339a30e761461066a5780633ba484ac1461067d5780633bb2a921146106af57600080fd5b806323b872dd116103655780632f2ff15d116103345780632f2ff15d146105bd5780632f745c59146105dd57806334f52fc5146105fd578063354030231461061d57600080fd5b806323b872dd14610520578063248a9ca3146105405780632844f794146105705780632e3250201461059057600080fd5b8063095ea7b3116103a1578063095ea7b31461049257806318160ddd146104b457806318712c21146104d3578063237b7733146104f357600080fd5b806301ffc9a7146103d357806304ca27751461040857806306fdde0314610438578063081812fc1461045a575b600080fd5b3480156103df57600080fd5b506103f36103ee3660046146ac565b610cce565b60405190151581526020015b60405180910390f35b34801561041457600080fd5b506103f36104233660046146c9565b60009081526006602052604090205460ff1690565b34801561044457600080fd5b5061044d610cdf565b6040516103ff919061473a565b34801561046657600080fd5b5061047a6104753660046146c9565b610d71565b6040516001600160a01b0390911681526020016103ff565b34801561049e57600080fd5b506104b26104ad366004614769565b610d98565b005b3480156104c057600080fd5b506012545b6040519081526020016103ff565b3480156104df57600080fd5b506104b26104ee366004614793565b610eb3565b3480156104ff57600080fd5b506104c561050e3660046146c9565b60009081526005602052604090205490565b34801561052c57600080fd5b506104b261053b3660046147b5565b610ed1565b34801561054c57600080fd5b506104c561055b3660046146c9565b60009081526014602052604090206001015490565b34801561057c57600080fd5b506104b261058b366004614793565b610f02565b34801561059c57600080fd5b506104c56105ab3660046146c9565b60009081526017602052604090205490565b3480156105c957600080fd5b506104b26105d83660046147f1565b611139565b3480156105e957600080fd5b506104c56105f8366004614769565b61115e565b34801561060957600080fd5b506104b2610618366004614844565b6111f4565b34801561062957600080fd5b506104c56106383660046146c9565b60009081526002602052604090205490565b34801561065657600080fd5b506104b26106653660046147f1565b611277565b6104b26106783660046148a1565b6112f5565b34801561068957600080fd5b506015546001600160601b03165b6040516001600160601b0390911681526020016103ff565b3480156106bb57600080fd5b506106976106ca3660046146c9565b6114f7565b3480156106db57600080fd5b506104b2611540565b3480156106f057600080fd5b506104b26106ff3660046147b5565b6115a6565b34801561071057600080fd5b506104c561071f3660046146c9565b6115c1565b34801561073057600080fd5b506104b261073f3660046146c9565b6115d8565b34801561075057600080fd5b506103f361075f366004614793565b611784565b34801561077057600080fd5b506103f361077f3660046146c9565b60009081526007602052604090205460ff1690565b3480156107a057600080fd5b506104b26107af3660046149a5565b6117a9565b3480156107c057600080fd5b506104c56107cf3660046146c9565b6118c0565b3480156107e057600080fd5b506104b26107ef3660046146c9565b611953565b34801561080057600080fd5b506104b261080f366004614a7b565b611a95565b34801561082057600080fd5b506104c561082f366004614ac3565b6001600160a01b03166000908152601b602052604090205490565b34801561085657600080fd5b50601554600160601b90046001600160a01b031661047a565b34801561087b57600080fd5b5061047a61088a3660046146c9565b611ab3565b6104b261089d366004614ade565b611b13565b3480156108ae57600080fd5b506104c56108bd3660046146c9565b60009081526003602052604090205490565b3480156108db57600080fd5b506104b26108ea366004614ac3565b611ceb565b3480156108fb57600080fd5b506104b261090a366004614b13565b611d15565b34801561091b57600080fd5b506104c561092a366004614ac3565b611e56565b34801561093b57600080fd5b506104b261094a366004614b8c565b611edc565b34801561095b57600080fd5b506104b261096a3660046146c9565b611f0f565b34801561097b57600080fd5b506104b261098a366004614ba7565b611f55565b34801561099b57600080fd5b506104b26109aa3660046149a5565b612058565b3480156109bb57600080fd5b506103f36109ca3660046147f1565b6120e0565b6104b26109dd366004614bf0565b61210b565b3480156109ee57600080fd5b5061044d61240c565b348015610a0357600080fd5b506104c5610a12366004614c7f565b61241b565b348015610a2357600080fd5b506104c5610a32366004614cba565b61245b565b6104b2610a45366004614cdd565b6124bd565b348015610a5657600080fd5b506104c5600081565b348015610a6b57600080fd5b506104b2610a7a366004614d1f565b6126a9565b348015610a8b57600080fd5b506104b2610a9a366004614d49565b6126b4565b348015610aab57600080fd5b506104c5610aba3660046146c9565b60009081526004602052604090205490565b348015610ad857600080fd5b506104c5610ae73660046147f1565b60009182526001602090815260408084206001600160a01b0393909316845291905290205490565b348015610b1b57600080fd5b5061044d610b2a3660046146c9565b6126ec565b348015610b3b57600080fd5b5061047a610b4a3660046146c9565b6000908152601a60205260409020546001600160a01b031690565b348015610b7157600080fd5b50610697610b803660046146c9565b612752565b348015610b9157600080fd5b506104b2610ba03660046147f1565b6127c5565b348015610bb157600080fd5b506104c5610bc0366004614ac3565b6127ea565b348015610bd157600080fd5b506103f3610be0366004614dc4565b6001600160a01b039182166000908152600f6020908152604080832093909416825291909152205460ff1690565b348015610c1a57600080fd5b506104b2610c29366004614dee565b612835565b348015610c3a57600080fd5b506104b2610c49366004614ac3565b61292a565b348015610c5a57600080fd5b50610697610c69366004614ac3565b61295e565b348015610c7a57600080fd5b506104b2610c893660046146c9565b612a1c565b348015610c9a57600080fd5b5061047a610ca9366004614793565b612aab565b348015610cba57600080fd5b506104b2610cc9366004614e13565b612ac3565b6000610cd982612b85565b92915050565b6060600a8054610cee90614e72565b80601f0160208091040260200160405190810160405280929190818152602001828054610d1a90614e72565b8015610d675780601f10610d3c57610100808354040283529160200191610d67565b820191906000526020600020905b815481529060010190602001808311610d4a57829003601f168201915b5050505050905090565b6000610d7c82612baa565b506000908152600e60205260409020546001600160a01b031690565b6000610da382611ab3565b9050806001600160a01b0316836001600160a01b03161415610e165760405162461bcd60e51b815260206004820152602160248201527f4552433732313a20617070726f76616c20746f2063757272656e74206f776e656044820152603960f91b60648201526084015b60405180910390fd5b336001600160a01b0382161480610e325750610e328133610be0565b610ea45760405162461bcd60e51b815260206004820152603d60248201527f4552433732313a20617070726f76652063616c6c6572206973206e6f7420746f60448201527f6b656e206f776e6572206f7220617070726f76656420666f7220616c6c0000006064820152608401610e0d565b610eae8383612c09565b505050565b6000610ebe81612c77565b5060009182526020829052604090912055565b610edb3382612c81565b610ef75760405162461bcd60e51b8152600401610e0d90614ead565b610eae838383612cff565b80821415610f525760405162461bcd60e51b815260206004820152601b60248201527f43616e6e6f742073776974636820746f2073616d6520746f6b656e00000000006044820152606401610e0d565b33610f5c83611ab3565b6001600160a01b031614610f825760405162461bcd60e51b8152600401610e0d90614efa565b33610f8c82611ab3565b6001600160a01b031614610fb25760405162461bcd60e51b8152600401610e0d90614efa565b6000828152601a60205260409020546001600160a01b0316331461100d5760405162461bcd60e51b815260206004820152601260248201527124b73b30b634b21030b1ba34bb30ba34b7b760711b6044820152606401610e0d565b6000818152601a60205260409020546001600160a01b0316156110425760405162461bcd60e51b8152600401610e0d90614f1f565b6000828152601c6020526040902061105990612e70565b156110a05760405162461bcd60e51b815260206004820152601760248201527613595b58995c9cc81cdd1a5b1b081858dd1a5d985d1959604a1b6044820152606401610e0d565b6000828152601a6020908152604080832080546001600160a01b0319908116909155848452818420805433921682179055808452601b90925280832084905551909184917fd99429f557ca87df7ffefe25ae8de8feabeabd528cc646ff1c14534f857f6bd29190a3604051339082907fd4ae292da4c1b97c2b8a3a8a4d7788a389d5f06e6fbae5c9bfc42235964a1f0a90600090a35050565b60008281526014602052604090206001015461115481612c77565b610eae8383612e7a565b600061116983611e56565b82106111cb5760405162461bcd60e51b815260206004820152602b60248201527f455243373231456e756d657261626c653a206f776e657220696e646578206f7560448201526a74206f6620626f756e647360a81b6064820152608401610e0d565b506001600160a01b03919091166000908152601060209081526040808320938352929052205490565b60006111ff81612c77565b60008581526019602090815260408083206001600160601b0388168085529083529281902060018101805460ff191687151590811790915590879055905190815285929188917f58f305c686ebbf6d0c690803bbde56d59bd8b9d1fa4a2e92381141d46e0e8907910160405180910390a45050505050565b6001600160a01b03811633146112e75760405162461bcd60e51b815260206004820152602f60248201527f416363657373436f6e74726f6c3a2063616e206f6e6c792072656e6f756e636560448201526e103937b632b9903337b91039b2b63360891b6064820152608401610e0d565b6112f18282612f00565b5050565b6000888152600360209081526040808320546006909252909120548991889188919060ff166113365760405162461bcd60e51b8152600401610e0d90614f4c565b6000836001600160401b03161161135f5760405162461bcd60e51b8152600401610e0d90614f75565b6000811161136e576001611395565b6000848152600260205260409020548190611392906001600160401b038616612f67565b11155b6113b15760405162461bcd60e51b8152600401610e0d90614f9c565b6000848152600460205260409020546001600160401b03841611156113e85760405162461bcd60e51b8152600401610e0d90614fc9565b600084815260056020908152604080832054600183528184206001600160a01b038716855290925290912054611427906001600160401b038616612f67565b11156114455760405162461bcd60e51b8152600401610e0d90614ff8565b60008c81526007602052604090205460ff166114985760405162461bcd60e51b815260206004820152601260248201527150726573616c65206e6f742061637469766560701b6044820152606401610e0d565b6114a58c89898989612f73565b6114b18c8c8b8d61315d565b868b6001600160601b03168d7fa8230c372eb3d29a6da2e4dbe072e3f7411066608b72ac4fd5cef851a55f561160405160405180910390a4505050505050505050505050565b60008061150383612752565b90506001600160601b03811661151c5750600592915050565b806001600160601b031660fa14156115375750600392915050565b50600292915050565b600061154b81612c77565b600047116115875760405162461bcd60e51b8152602060048201526009602482015268302062616c616e636560b81b6044820152606401610e0d565b60155447906112f190600160601b90046001600160a01b03168261323d565b610eae838383604051806020016040528060008152506126b4565b6000818152601c60205260408120610cd990612e70565b336115e282611ab3565b6001600160a01b0316146116085760405162461bcd60e51b8152600401610e0d90614efa565b6000818152601a60205260409020546001600160a01b03161561166d5760405162461bcd60e51b815260206004820152601760248201527f546f6b656e20616c7265616479206163746976617465640000000000000000006044820152606401610e0d565b336000908152601b6020526040902054156116ca5760405162461bcd60e51b815260206004820152601760248201527f4f776e657220616c7265616479206163746976617465640000000000000000006044820152606401610e0d565b336000908152601d602052604090206001015460ff16156117265760405162461bcd60e51b81526020600482015260166024820152754d656d626572206f6620616e6f74686572207061737360501b6044820152606401610e0d565b6000818152601a6020908152604080832080546001600160a01b03191633908117909155808452601b90925280832084905551909183917fd4ae292da4c1b97c2b8a3a8a4d7788a389d5f06e6fbae5c9bfc42235964a1f0a9190a350565b600082815260086020908152604080832084845290915281205460ff165b9392505050565b6000838152601a602052604090205481906001600160a01b031633146117e15760405162461bcd60e51b8152600401610e0d90614f1f565b6000848152601c6020526040902081906117fa90612e70565b6118049190615045565b61180d856114f7565b6001600160601b031610156118645760405162461bcd60e51b815260206004820152601760248201527f52656163686564204d6178696d756d204d656d626572730000000000000000006044820152606401610e0d565b60005b81816001600160401b031610156118b9576118b1858585846001600160401b03168181106118975761189761505d565b90506020020160208101906118ac9190614ac3565b613356565b600101611867565b5050505050565b60006118cb60125490565b821061192e5760405162461bcd60e51b815260206004820152602c60248201527f455243373231456e756d657261626c653a20676c6f62616c20696e646578206f60448201526b7574206f6620626f756e647360a01b6064820152608401610e0d565b601282815481106119415761194161505d565b90600052602060002001549050919050565b6000818152601a60205260409020546001600160a01b031633146119895760405162461bcd60e51b8152600401610e0d90614f1f565b336000908152601b602052604090205481146119dd5760405162461bcd60e51b815260206004820152601360248201527213dddb995c881b9bdd081858dd1a5d985d1959606a1b6044820152606401610e0d565b6000818152601c602052604090206119f490612e70565b15611a3b5760405162461bcd60e51b815260206004820152601760248201527613595b58995c9cc81cdd1a5b1b081858dd1a5d985d1959604a1b6044820152606401610e0d565b6000818152601a6020908152604080832080546001600160a01b031916905533808452601b90925280832083905551909183917fd99429f557ca87df7ffefe25ae8de8feabeabd528cc646ff1c14534f857f6bd29190a350565b6000611aa081612c77565b8151610eae9060169060208501906145fd565b6000818152600c60205260408120546001600160a01b031680610cd95760405162461bcd60e51b8152602060048201526018602482015277115490cdcc8c4e881a5b9d985b1a59081d1bdad95b88125160421b6044820152606401610e0d565b60008381526017602052604081205490611b2c85612752565b6000838152601e602090815260408083206001600160601b038581168552908352818420898552835281842090881684528252918290208251808401909352805483526001015460ff1615159082015290915033611b8987611ab3565b6001600160a01b031614611baf5760405162461bcd60e51b8152600401610e0d90614efa565b8060200151611bf75760405162461bcd60e51b815260206004820152601460248201527355706772616465206e6f7420656c696769626c6560601b6044820152606401610e0d565b8051341015611c385760405162461bcd60e51b815260206004820152600d60248201526c496e76616c696420507269636560981b6044820152606401610e0d565b604080518082018252600080825260209182015281518083019092526001600160601b0386168252600190820152600087815260186020908152604080832084518154958401511515600160601b026cffffffffffffffffffffffffff199096166001600160601b039182161795909517905560179091528082208890555191861691879189917f429979eec1f3f5cd99bcd94cd181457a670e7309cd1a8de2120cda426aec174c9190a4505050505050565b6000611cf681612c77565b600980546001600160a01b0319166001600160a01b0384161790555050565b6000611d2081612c77565b838214611d6f5760405162461bcd60e51b815260206004820152601c60248201527f496e76616c6964206e756d626572206f6620726563697069656e7473000000006044820152606401610e0d565b8360005b81811015611e4c57600088815260196020526040812090868684818110611d9c57611d9c61505d565b9050602002016020810190611db19190614b8c565b6001600160601b0316815260208101919091526040016000206001015460ff16611ded5760405162461bcd60e51b8152600401610e0d90615073565b611e4488868684818110611e0357611e0361505d565b9050602002016020810190611e189190614b8c565b898985818110611e2a57611e2a61505d565b9050602002016020810190611e3f9190614ac3565b613490565b600101611d73565b5050505050505050565b60006001600160a01b038216611ec05760405162461bcd60e51b815260206004820152602960248201527f4552433732313a2061646472657373207a65726f206973206e6f7420612076616044820152683634b21037bbb732b960b91b6064820152608401610e0d565b506001600160a01b03166000908152600d602052604090205490565b6000611ee781612c77565b50601580546bffffffffffffffffffffffff19166001600160601b0392909216919091179055565b6000818152601a60205260409020546001600160a01b0316611f435760405162461bcd60e51b8152600401610e0d90614f1f565b611f528133613555565b613555565b50565b6000611f6081612c77565b60008681526006602052604090205460ff1615611fb55760405162461bcd60e51b815260206004820152601360248201527253616c6520616c72656164792061637469766560681b6044820152606401610e0d565b60008681526006602090815260408083208054600160ff1991821617909155600383528184208990556005835281842088905560048352818420879055600790925290912080549091168315151790556040805186815260208101869052908101849052821515606082015286907fafb595b10a1ea4e6a7767173c9c6707891e7174118bedb6bd7c28b4ecad106fa9060800160405180910390a2505050505050565b6000838152601a602052604090205481906001600160a01b031633146120905760405162461bcd60e51b8152600401610e0d90614f1f565b60005b81816001600160401b031610156118b9576120d8858585846001600160401b03168181106120c3576120c361505d565b9050602002016020810190611f4d9190614ac3565b600101612093565b60009182526014602090815260408084206001600160a01b0393909316845291905290205460ff1690565b6000878152600360209081526040808320546006909252909120548891879186919060ff1661214c5760405162461bcd60e51b8152600401610e0d90614f4c565b6000836001600160401b0316116121755760405162461bcd60e51b8152600401610e0d90614f75565b600081116121845760016121ab565b60008481526002602052604090205481906121a8906001600160401b038616612f67565b11155b6121c75760405162461bcd60e51b8152600401610e0d90614f9c565b6000848152600460205260409020546001600160401b03841611156121fe5760405162461bcd60e51b8152600401610e0d90614fc9565b600084815260056020908152604080832054600183528184206001600160a01b03871685529092529091205461223d906001600160401b038616612f67565b111561225b5760405162461bcd60e51b8152600401610e0d90614ff8565b60008b8152602081815260408083205460079092529091205460ff166122b85760405162461bcd60e51b815260206004820152601260248201527150726573616c65206e6f742061637469766560701b6044820152606401610e0d565b806122f75760405162461bcd60e51b815260206004820152600f60248201526e141c995cd85b19481b9bdd081cd95d608a1b6044820152606401610e0d565b61237e878780806020026020016040519081016040528093929190818152602001838360200280828437600092019190915250506040516bffffffffffffffffffffffff1960608e901b1660208201526001600160c01b031960c08f901b166034820152859250603c01905060405160208183030381529060405280519060200120613618565b6123bc5760405162461bcd60e51b815260206004820152600f60248201526e141c995cd85b19481a5b9d985b1a59608a1b6044820152606401610e0d565b6123c88c8c8a8d61315d565b6040516001600160601b038c16908d907fb9ba3cda2ca5d3d8faf8d0e09982dabba09a516299d2b54d33baa8f35434b14c90600090a3505050505050505050505050565b6060600b8054610cee90614e72565b6000848152601e602090815260408083206001600160601b038088168552908352818420868552835281842090851684529091529020545b949350505050565b60008281526019602090815260408083206001600160601b038516845282528083208151808301909252805482526001015460ff161515918101829052906124b55760405162461bcd60e51b8152600401610e0d90615073565b519392505050565b6000848152600360209081526040808320546006909252909120548591849184919060ff166124fe5760405162461bcd60e51b8152600401610e0d90614f4c565b6000836001600160401b0316116125275760405162461bcd60e51b8152600401610e0d90614f75565b6000811161253657600161255d565b600084815260026020526040902054819061255a906001600160401b038616612f67565b11155b6125795760405162461bcd60e51b8152600401610e0d90614f9c565b6000848152600460205260409020546001600160401b03841611156125b05760405162461bcd60e51b8152600401610e0d90614fc9565b600084815260056020908152604080832054600183528184206001600160a01b0387168552909252909120546125ef906001600160401b038616612f67565b111561260d5760405162461bcd60e51b8152600401610e0d90614ff8565b60008881526007602052604090205460ff161561265d5760405162461bcd60e51b815260206004820152600e60248201526d50726573616c652061637469766560901b6044820152606401610e0d565b6126698888878961315d565b6040516001600160601b0388169089907fb9ba3cda2ca5d3d8faf8d0e09982dabba09a516299d2b54d33baa8f35434b14c90600090a35050505050505050565b6112f133838361362e565b6126be3383612c81565b6126da5760405162461bcd60e51b8152600401610e0d90614ead565b6126e6848484846136fd565b50505050565b60606126f782612baa565b6000612701613730565b9050600081511161272157604051806020016040528060008152506117a2565b8061272b8461373f565b60405160200161273c92919061509f565b6040516020818303038152906040529392505050565b600081815260186020526040812054600160601b900460ff166127a95760405162461bcd60e51b815260206004820152600f60248201526e125b9d985b1a59081d1bdad95b9259608a1b6044820152606401610e0d565b506000908152601860205260409020546001600160601b031690565b6000828152601460205260409020600101546127e081612c77565b610eae8383612f00565b6001600160a01b0381166000908152601d602090815260408083208151808301909252805482526001015460ff1615159181018290529061282e5750600092915050565b5192915050565b600061284081612c77565b60008481526019602090815260408083206001600160601b038716845290915290206001015460ff16156128ac5760405162461bcd60e51b81526020600482015260136024820152725061737320616c72656164792065786973747360681b6044820152606401610e0d565b604080518082018252838152600160208083018281526000898152601983528581206001600160601b038a16808352935285812094518555905193909201805460ff1916931515939093179092559151849287917fa2fd84681d7a45be68a37025dd071757e93b9b72b804ff58263b32017e0bf7839190a450505050565b600061293581612c77565b50601580546001600160a01b03909216600160601b026001600160601b03909216919091179055565b6001600160a01b0381166000908152601b60209081526040808320548084526018909252822054600160601b900460ff16156129b2576000908152601860205260409020546001600160601b031692915050565b6001600160a01b0383166000908152601d602052604090206001015460ff1615612a095750506001600160a01b03166000908152601d6020908152604080832054835260189091529020546001600160601b031690565b50506015546001600160601b0316919050565b6000612a2781612c77565b60008281526006602052604090205460ff16612a555760405162461bcd60e51b8152600401610e0d90614f4c565b6000828152600660209081526040808320805460ff19908116909155600790925280832080549092169091555183917f47f75dd68b479a7dc904baeb75498ebb157246edcc056bb28bf42d12f1d8e36491a25050565b6000828152601c602052604081206117a290836137db565b6000612ace81612c77565b604080518082018252848152831515602080830182815260008c8152601e83528581206001600160601b038d81168084529185528783208d84528552878320908c16808452908552918790209551865591516001909501805460ff19169515159590951790945584518a81529182019390935292830186905260608301529088907f0b234b4684f9fd3c339a10c297816f934534f80f23eb6b4135db06e305b96dd19060800160405180910390a350505050505050565b60006001600160e01b03198216637965db0b60e01b1480610cd95750610cd9826137e7565b6000818152600c60205260409020546001600160a01b0316611f525760405162461bcd60e51b8152602060048201526018602482015277115490cdcc8c4e881a5b9d985b1a59081d1bdad95b88125160421b6044820152606401610e0d565b6000818152600e6020526040902080546001600160a01b0319166001600160a01b0384169081179091558190612c3e82611ab3565b6001600160a01b03167f8c5be1e5ebec7d5bd14f71427d1e84f3dd0314c0f7b2291e5b200ac8c7c3b92560405160405180910390a45050565b611f52813361380c565b600080612c8d83611ab3565b9050806001600160a01b0316846001600160a01b03161480612cd457506001600160a01b038082166000908152600f602090815260408083209388168352929052205460ff165b806124535750836001600160a01b0316612ced84610d71565b6001600160a01b031614949350505050565b826001600160a01b0316612d1282611ab3565b6001600160a01b031614612d385760405162461bcd60e51b8152600401610e0d906150ce565b6001600160a01b038216612d9a5760405162461bcd60e51b8152602060048201526024808201527f4552433732313a207472616e7366657220746f20746865207a65726f206164646044820152637265737360e01b6064820152608401610e0d565b612da78383836001613865565b826001600160a01b0316612dba82611ab3565b6001600160a01b031614612de05760405162461bcd60e51b8152600401610e0d906150ce565b6000818152600e6020908152604080832080546001600160a01b03199081169091556001600160a01b03878116808652600d8552838620805460001901905590871680865283862080546001019055868652600c90945282852080549092168417909155905184937fddf252ad1be2c89b69c2b068fc378daa952ba7f163c4a11628f55a4df523b3ef91a4505050565b6000610cd9825490565b612e8482826120e0565b6112f15760008281526014602090815260408083206001600160a01b03851684529091529020805460ff19166001179055612ebc3390565b6001600160a01b0316816001600160a01b0316837f2f8788117e7eff1d82e926ec794901d17c78024a50270940304540a733656f0d60405160405180910390a45050565b612f0a82826120e0565b156112f15760008281526014602090815260408083206001600160a01b0385168085529252808320805460ff1916905551339285917ff6391f5c32d9c69d2a47ea670b442974b53935d1edc7fd64eb21e047a839171b9190a45050565b60006117a28284615045565b600085815260086020908152604080832086845290915290205460ff1615612fdd5760405162461bcd60e51b815260206004820152601a60248201527f5369676e617475726520616c72656164792076657269666965640000000000006044820152606401610e0d565b4284116130205760405162461bcd60e51b815260206004820152601160248201527014da59db985d1d5c9948195e1c1a5c9959607a1b6044820152606401610e0d565b600954604080516020601f85018190048102820181019092528381526001600160a01b03909216916130e9918590859081908401838280828437600092019190915250506040805160208082018d90528183018c905260608083018c9052835180840390910181526080830184528051908201207f19457468657265756d205369676e6564204d6573736167653a0a33320000000060a084015260bc808401919091528351808403909101815260dc909201909252805191012091506130e39050565b906138cf565b6001600160a01b0316146131335760405162461bcd60e51b8152602060048201526011602482015270496e76616c6964207369676e617475726560781b6044820152606401610e0d565b50506000928352600860209081526040808520928552919052909120805460ff1916600117905550565b60008481526019602090815260408083206001600160601b03871684528252918290208251808401909352805483526001015460ff1615159082018190526131b75760405162461bcd60e51b8152600401610e0d90615073565b805134906131ce906001600160401b0385166138eb565b111561320e5760405162461bcd60e51b815260206004820152600f60248201526e15985b1d59481a5b98dbdc9c9958dd608a1b6044820152606401610e0d565b60005b826001600160401b03168110156132355761322d868686613490565b600101613211565b505050505050565b8047101561328d5760405162461bcd60e51b815260206004820152601d60248201527f416464726573733a20696e73756666696369656e742062616c616e63650000006044820152606401610e0d565b6000826001600160a01b03168260405160006040518083038185875af1925050503d80600081146132da576040519150601f19603f3d011682016040523d82523d6000602084013e6132df565b606091505b5050905080610eae5760405162461bcd60e51b815260206004820152603a60248201527f416464726573733a20756e61626c6520746f2073656e642076616c75652c207260448201527f6563697069656e74206d617920686176652072657665727465640000000000006064820152608401610e0d565b6001600160a01b0381166000908152601b6020526040902054156133bc5760405162461bcd60e51b815260206004820152601860248201527f4d656d62657220616c72656164792061637469766174656400000000000000006044820152606401610e0d565b6001600160a01b0381166000908152601d602052604090206001015460ff16156134215760405162461bcd60e51b81526020600482015260166024820152754d656d626572206f6620616e6f74686572207061737360501b6044820152606401610e0d565b6000828152601c6020526040902061343990826138f7565b506001600160a01b0381166000818152601d60205260408082208581556001908101805460ff191690911790555184917feed5c42b98ff6f919c93c16be2fc3821307f9dc5435013526c11aaeb9d2a041d91a35050565b60006134a660016134a060125490565b90612f67565b60408051808201825260008082526020918201819052825180840184526001600160601b0388811682526001828501818152878552601886528685209351845491511515600160601b026cffffffffffffffffffffffffff199092169316929092179190911790915560178352838220899055888252600283528382208054820190558083528382206001600160a01b0388168352909252919091208054909101905590506126e6828261390c565b6000828152601c6020526040902061356d9082613926565b6135b15760405162461bcd60e51b815260206004820152601560248201527413595b58995c88191bd95cc81b9bdd08195e1a5cdd605a1b6044820152606401610e0d565b6000828152601c602052604090206135c99082613948565b506001600160a01b0381166000818152601d6020526040808220600101805460ff191690555184917f2dd1fba15a05261f4cccee50e7ab336435a45cf2c976c73a65c4d0e3e190118d91a35050565b600082613625858461395d565b14949350505050565b816001600160a01b0316836001600160a01b031614156136905760405162461bcd60e51b815260206004820152601960248201527f4552433732313a20617070726f766520746f2063616c6c6572000000000000006044820152606401610e0d565b6001600160a01b038381166000818152600f6020908152604080832094871680845294825291829020805460ff191686151590811790915591519182527f17307eab39ab6107e8899845ad3d59bd9653f200f220920489ca2b5937696c31910160405180910390a3505050565b613708848484612cff565b613714848484846139a2565b6126e65760405162461bcd60e51b8152600401610e0d90615113565b606060168054610cee90614e72565b6060600061374c83613aac565b60010190506000816001600160401b0381111561376b5761376b6149f0565b6040519080825280601f01601f191660200182016040528015613795576020820181803683370190505b5090508181016020015b600019016f181899199a1a9b1b9c1cb0b131b232b360811b600a86061a8153600a85049450846137ce576137d3565b61379f565b509392505050565b60006117a28383613b84565b60006001600160e01b0319821663780e9d6360e01b1480610cd95750610cd982613bae565b61381682826120e0565b6112f15761382381613bfe565b61382e836020613c10565b60405160200161383f929190615165565b60408051601f198184030181529082905262461bcd60e51b8252610e0d9160040161473a565b6000828152601a60205260409020546001600160a01b0316156138c35760405162461bcd60e51b815260206004820152601660248201527514185cdcc8185b1c9958591e481858dd1a5d985d195960521b6044820152606401610e0d565b6126e684848484613dab565b60008060006138de8585613ed8565b915091506137d381613f1e565b60006117a282846151da565b60006117a2836001600160a01b03841661406c565b6112f18282604051806020016040528060008152506140bb565b6001600160a01b038116600090815260018301602052604081205415156117a2565b60006117a2836001600160a01b0384166140ee565b600081815b84518110156137d35761398e828683815181106139815761398161505d565b60200260200101516141e1565b91508061399a816151f9565b915050613962565b60006001600160a01b0384163b15613aa457604051630a85bd0160e11b81526001600160a01b0385169063150b7a02906139e6903390899088908890600401615214565b602060405180830381600087803b158015613a0057600080fd5b505af1925050508015613a30575060408051601f3d908101601f19168201909252613a2d91810190615251565b60015b613a8a573d808015613a5e576040519150601f19603f3d011682016040523d82523d6000602084013e613a63565b606091505b508051613a825760405162461bcd60e51b8152600401610e0d90615113565b805181602001fd5b6001600160e01b031916630a85bd0160e11b149050612453565b506001612453565b60008072184f03e93ff9f4daa797ed6e38ed64bf6a1f0160401b8310613aeb5772184f03e93ff9f4daa797ed6e38ed64bf6a1f0160401b830492506040015b6d04ee2d6d415b85acef81000000008310613b17576d04ee2d6d415b85acef8100000000830492506020015b662386f26fc100008310613b3557662386f26fc10000830492506010015b6305f5e1008310613b4d576305f5e100830492506008015b6127108310613b6157612710830492506004015b60648310613b73576064830492506002015b600a8310610cd95760010192915050565b6000826000018281548110613b9b57613b9b61505d565b9060005260206000200154905092915050565b60006001600160e01b031982166380ac58cd60e01b1480613bdf57506001600160e01b03198216635b5e139f60e01b145b80610cd957506301ffc9a760e01b6001600160e01b0319831614610cd9565b6060610cd96001600160a01b03831660145b60606000613c1f8360026151da565b613c2a906002615045565b6001600160401b03811115613c4157613c416149f0565b6040519080825280601f01601f191660200182016040528015613c6b576020820181803683370190505b509050600360fc1b81600081518110613c8657613c8661505d565b60200101906001600160f81b031916908160001a905350600f60fb1b81600181518110613cb557613cb561505d565b60200101906001600160f81b031916908160001a9053506000613cd98460026151da565b613ce4906001615045565b90505b6001811115613d5c576f181899199a1a9b1b9c1cb0b131b232b360811b85600f1660108110613d1857613d1861505d565b1a60f81b828281518110613d2e57613d2e61505d565b60200101906001600160f81b031916908160001a90535060049490941c93613d558161526e565b9050613ce7565b5083156117a25760405162461bcd60e51b815260206004820181905260248201527f537472696e67733a20686578206c656e67746820696e73756666696369656e746044820152606401610e0d565b6001811115613e1a5760405162461bcd60e51b815260206004820152603560248201527f455243373231456e756d657261626c653a20636f6e7365637574697665207472604482015274185b9cd9995c9cc81b9bdd081cdd5c1c1bdc9d1959605a1b6064820152608401610e0d565b816001600160a01b038516613e7657613e7181601280546000838152601360205260408120829055600182018355919091527fbb8a6a4669ba250d26cd7a459eca9d215f8307e33aebe50379bc5a3617ec34440155565b613e99565b836001600160a01b0316856001600160a01b031614613e9957613e998582614210565b6001600160a01b038416613eb557613eb0816142ad565b6118b9565b846001600160a01b0316846001600160a01b0316146118b9576118b9848261435c565b600080825160411415613f0f5760208301516040840151606085015160001a613f03878285856143a0565b94509450505050613f17565b506000905060025b9250929050565b6000816004811115613f3257613f32615285565b1415613f3b5750565b6001816004811115613f4f57613f4f615285565b1415613f9d5760405162461bcd60e51b815260206004820152601860248201527f45434453413a20696e76616c6964207369676e617475726500000000000000006044820152606401610e0d565b6002816004811115613fb157613fb1615285565b1415613fff5760405162461bcd60e51b815260206004820152601f60248201527f45434453413a20696e76616c6964207369676e6174757265206c656e677468006044820152606401610e0d565b600381600481111561401357614013615285565b1415611f525760405162461bcd60e51b815260206004820152602260248201527f45434453413a20696e76616c6964207369676e6174757265202773272076616c604482015261756560f01b6064820152608401610e0d565b60008181526001830160205260408120546140b357508154600181810184556000848152602080822090930184905584548482528286019093526040902091909155610cd9565b506000610cd9565b6140c58383614464565b6140d260008484846139a2565b610eae5760405162461bcd60e51b8152600401610e0d90615113565b600081815260018301602052604081205480156141d757600061411260018361529b565b85549091506000906141269060019061529b565b905081811461418b5760008660000182815481106141465761414661505d565b90600052602060002001549050808760000184815481106141695761416961505d565b6000918252602080832090910192909255918252600188019052604090208390555b855486908061419c5761419c6152b2565b600190038181906000526020600020016000905590558560010160008681526020019081526020016000206000905560019350505050610cd9565b6000915050610cd9565b60008183106141fd5760008281526020849052604090206117a2565b60008381526020839052604090206117a2565b6000600161421d84611e56565b614227919061529b565b60008381526011602052604090205490915080821461427a576001600160a01b03841660009081526010602090815260408083208584528252808320548484528184208190558352601190915290208190555b5060009182526011602090815260408084208490556001600160a01b039094168352601081528383209183525290812055565b6012546000906142bf9060019061529b565b600083815260136020526040812054601280549394509092849081106142e7576142e761505d565b9060005260206000200154905080601283815481106143085761430861505d565b6000918252602080832090910192909255828152601390915260408082208490558582528120556012805480614340576143406152b2565b6001900381819060005260206000200160009055905550505050565b600061436783611e56565b6001600160a01b039093166000908152601060209081526040808320868452825280832085905593825260119052919091209190915550565b6000807f7fffffffffffffffffffffffffffffff5d576e7357a4501ddfe92f46681b20a08311156143d7575060009050600361445b565b6040805160008082526020820180845289905260ff881692820192909252606081018690526080810185905260019060a0016020604051602081039080840390855afa15801561442b573d6000803e3d6000fd5b5050604051601f1901519150506001600160a01b0381166144545760006001925092505061445b565b9150600090505b94509492505050565b6001600160a01b0382166144ba5760405162461bcd60e51b815260206004820181905260248201527f4552433732313a206d696e7420746f20746865207a65726f20616464726573736044820152606401610e0d565b6000818152600c60205260409020546001600160a01b03161561451f5760405162461bcd60e51b815260206004820152601c60248201527f4552433732313a20746f6b656e20616c7265616479206d696e746564000000006044820152606401610e0d565b61452d600083836001613865565b6000818152600c60205260409020546001600160a01b0316156145925760405162461bcd60e51b815260206004820152601c60248201527f4552433732313a20746f6b656e20616c7265616479206d696e746564000000006044820152606401610e0d565b6001600160a01b0382166000818152600d6020908152604080832080546001019055848352600c90915280822080546001600160a01b0319168417905551839291907fddf252ad1be2c89b69c2b068fc378daa952ba7f163c4a11628f55a4df523b3ef908290a45050565b82805461460990614e72565b90600052602060002090601f01602090048101928261462b5760008555614671565b82601f1061464457805160ff1916838001178555614671565b82800160010185558215614671579182015b82811115614671578251825591602001919060010190614656565b5061467d929150614681565b5090565b5b8082111561467d5760008155600101614682565b6001600160e01b031981168114611f5257600080fd5b6000602082840312156146be57600080fd5b81356117a281614696565b6000602082840312156146db57600080fd5b5035919050565b60005b838110156146fd5781810151838201526020016146e5565b838111156126e65750506000910152565b600081518084526147268160208601602086016146e2565b601f01601f19169290920160200192915050565b6020815260006117a2602083018461470e565b80356001600160a01b038116811461476457600080fd5b919050565b6000806040838503121561477c57600080fd5b6147858361474d565b946020939093013593505050565b600080604083850312156147a657600080fd5b50508035926020909101359150565b6000806000606084860312156147ca57600080fd5b6147d38461474d565b92506147e16020850161474d565b9150604084013590509250925092565b6000806040838503121561480457600080fd5b823591506148146020840161474d565b90509250929050565b80356001600160601b038116811461476457600080fd5b8035801515811461476457600080fd5b6000806000806080858703121561485a57600080fd5b8435935061486a6020860161481d565b92506040850135915061487f60608601614834565b905092959194509250565b80356001600160401b038116811461476457600080fd5b60008060008060008060008060e0898b0312156148bd57600080fd5b883597506148cd60208a0161481d565b96506148db60408a0161488a565b95506148e960608a0161474d565b94506080890135935060a0890135925060c08901356001600160401b038082111561491357600080fd5b818b0191508b601f83011261492757600080fd5b81358181111561493657600080fd5b8c602082850101111561494857600080fd5b6020830194508093505050509295985092959890939650565b60008083601f84011261497357600080fd5b5081356001600160401b0381111561498a57600080fd5b6020830191508360208260051b8501011115613f1757600080fd5b6000806000604084860312156149ba57600080fd5b8335925060208401356001600160401b038111156149d757600080fd5b6149e386828701614961565b9497909650939450505050565b634e487b7160e01b600052604160045260246000fd5b60006001600160401b0380841115614a2057614a206149f0565b604051601f8501601f19908116603f01168101908282118183101715614a4857614a486149f0565b81604052809350858152868686011115614a6157600080fd5b858560208301376000602087830101525050509392505050565b600060208284031215614a8d57600080fd5b81356001600160401b03811115614aa357600080fd5b8201601f81018413614ab457600080fd5b61245384823560208401614a06565b600060208284031215614ad557600080fd5b6117a28261474d565b600080600060608486031215614af357600080fd5b8335925060208401359150614b0a6040850161481d565b90509250925092565b600080600080600060608688031215614b2b57600080fd5b8535945060208601356001600160401b0380821115614b4957600080fd5b614b5589838a01614961565b90965094506040880135915080821115614b6e57600080fd5b50614b7b88828901614961565b969995985093965092949392505050565b600060208284031215614b9e57600080fd5b6117a28261481d565b600080600080600060a08688031215614bbf57600080fd5b85359450602086013593506040860135925060608601359150614be460808701614834565b90509295509295909350565b600080600080600080600060c0888a031215614c0b57600080fd5b87359650614c1b6020890161481d565b9550614c296040890161488a565b9450614c376060890161488a565b9350614c456080890161474d565b925060a08801356001600160401b03811115614c6057600080fd5b614c6c8a828b01614961565b989b979a50959850939692959293505050565b60008060008060808587031215614c9557600080fd5b84359350614ca56020860161481d565b92506040850135915061487f6060860161481d565b60008060408385031215614ccd57600080fd5b823591506148146020840161481d565b60008060008060808587031215614cf357600080fd5b84359350614d036020860161481d565b9250614d116040860161488a565b915061487f6060860161474d565b60008060408385031215614d3257600080fd5b614d3b8361474d565b915061481460208401614834565b60008060008060808587031215614d5f57600080fd5b614d688561474d565b9350614d766020860161474d565b92506040850135915060608501356001600160401b03811115614d9857600080fd5b8501601f81018713614da957600080fd5b614db887823560208401614a06565b91505092959194509250565b60008060408385031215614dd757600080fd5b614de08361474d565b91506148146020840161474d565b600080600060608486031215614e0357600080fd5b833592506147e16020850161481d565b60008060008060008060c08789031215614e2c57600080fd5b86359550614e3c6020880161481d565b945060408701359350614e516060880161481d565b925060808701359150614e6660a08801614834565b90509295509295509295565b600181811c90821680614e8657607f821691505b60208210811415614ea757634e487b7160e01b600052602260045260246000fd5b50919050565b6020808252602d908201527f4552433732313a2063616c6c6572206973206e6f7420746f6b656e206f776e6560408201526c1c881bdc88185c1c1c9bdd9959609a1b606082015260800190565b6020808252600b908201526a2737ba10309037bbb732b960a91b604082015260600190565b602080825260139082015272151bdad95b881b9bdd081858dd1a5d985d1959606a1b604082015260600190565b6020808252600f908201526e53616c65206e6f742061637469766560881b604082015260600190565b6020808252600d908201526c05175616e74697479206973203609c1b604082015260600190565b6020808252601390820152724578636565646564206d617820737570706c7960681b604082015260600190565b602080825260159082015274115e18d959591959081b585e081c195c881b5a5b9d605a1b604082015260600190565b60208082526017908201527f4578636565646564206d6178207065722077616c6c6574000000000000000000604082015260600190565b634e487b7160e01b600052601160045260246000fd5b600082198211156150585761505861502f565b500190565b634e487b7160e01b600052603260045260246000fd5b60208082526012908201527114185cdcc8191bd95cdb89dd08195e1a5cdd60721b604082015260600190565b600083516150b18184602088016146e2565b8351908301906150c58183602088016146e2565b01949350505050565b60208082526025908201527f4552433732313a207472616e736665722066726f6d20696e636f72726563742060408201526437bbb732b960d91b606082015260800190565b60208082526032908201527f4552433732313a207472616e7366657220746f206e6f6e20455243373231526560408201527131b2b4bb32b91034b6b83632b6b2b73a32b960711b606082015260800190565b7f416363657373436f6e74726f6c3a206163636f756e742000000000000000000081526000835161519d8160178501602088016146e2565b7001034b99036b4b9b9b4b733903937b6329607d1b60179184019182015283516151ce8160288401602088016146e2565b01602801949350505050565b60008160001904831182151516156151f4576151f461502f565b500290565b600060001982141561520d5761520d61502f565b5060010190565b6001600160a01b03858116825284166020820152604081018390526080606082018190526000906152479083018461470e565b9695505050505050565b60006020828403121561526357600080fd5b81516117a281614696565b60008161527d5761527d61502f565b506000190190565b634e487b7160e01b600052602160045260246000fd5b6000828210156152ad576152ad61502f565b500390565b634e487b7160e01b600052603160045260246000fdfea26469706673582212209c1586c30c55a94c7fb6c162e6f87a098195e2ae0fc632426e87902d1f7d3f1464736f6c63430008090033","opcodes":"PUSH1 0x80 PUSH1 0x40 MSTORE CALLVALUE DUP1 ISZERO PUSH3 0x11 JUMPI PUSH1 0x0 DUP1 REVERT JUMPDEST POP PUSH1 0x40 DUP1 MLOAD DUP1 DUP3 ADD DUP3 MSTORE PUSH1 0x9 DUP2 MSTORE PUSH9 0x526569676E4C616273 PUSH1 0xB8 SHL PUSH1 0x20 DUP1 DUP4 ADD SWAP2 DUP3 MSTORE DUP4 MLOAD DUP1 DUP6 ADD SWAP1 SWAP5 MSTORE PUSH1 0x3 DUP5 MSTORE PUSH3 0x52435 PUSH1 0xEC SHL SWAP1 DUP5 ADD MSTORE DUP2 MLOAD SWAP2 SWAP3 SWAP2 PUSH3 0x5E SWAP2 PUSH1 0xA SWAP2 PUSH3 0x156 JUMP JUMPDEST POP DUP1 MLOAD PUSH3 0x74 SWAP1 PUSH1 0xB SWAP1 PUSH1 0x20 DUP5 ADD SWAP1 PUSH3 0x156 JUMP JUMPDEST POP POP POP PUSH13 0x1000000000000000000000000 CALLER MUL PUSH1 0x1 PUSH1 0x1 PUSH1 0x60 SHL SUB NOT AND PUSH1 0xA OR PUSH1 0x15 SSTORE PUSH3 0xAB PUSH1 0x0 PUSH3 0xA5 CALLER SWAP1 JUMP JUMPDEST PUSH3 0xB1 JUMP JUMPDEST PUSH3 0x239 JUMP JUMPDEST PUSH1 0x0 DUP3 DUP2 MSTORE PUSH1 0x14 PUSH1 0x20 SWAP1 DUP2 MSTORE PUSH1 0x40 DUP1 DUP4 KECCAK256 PUSH1 0x1 PUSH1 0x1 PUSH1 0xA0 SHL SUB DUP6 AND DUP5 MSTORE SWAP1 SWAP2 MSTORE SWAP1 KECCAK256 SLOAD PUSH1 0xFF AND PUSH3 0x152 JUMPI PUSH1 0x0 DUP3 DUP2 MSTORE PUSH1 0x14 PUSH1 0x20 SWAP1 DUP2 MSTORE PUSH1 0x40 DUP1 DUP4 KECCAK256 PUSH1 0x1 PUSH1 0x1 PUSH1 0xA0 SHL SUB DUP6 AND DUP5 MSTORE SWAP1 SWAP2 MSTORE SWAP1 KECCAK256 DUP1 SLOAD PUSH1 0xFF NOT AND PUSH1 0x1 OR SWAP1 SSTORE PUSH3 0x111 CALLER SWAP1 JUMP JUMPDEST PUSH1 0x1 PUSH1 0x1 PUSH1 0xA0 SHL SUB AND DUP2 PUSH1 0x1 PUSH1 0x1 PUSH1 0xA0 SHL SUB AND DUP4 PUSH32 0x2F8788117E7EFF1D82E926EC794901D17C78024A50270940304540A733656F0D PUSH1 0x40 MLOAD PUSH1 0x40 MLOAD DUP1 SWAP2 SUB SWAP1 LOG4 JUMPDEST POP POP JUMP JUMPDEST DUP3 DUP1 SLOAD PUSH3 0x164 SWAP1 PUSH3 0x1FC JUMP JUMPDEST SWAP1 PUSH1 0x0 MSTORE PUSH1 0x20 PUSH1 0x0 KECCAK256 SWAP1 PUSH1 0x1F ADD PUSH1 0x20 SWAP1 DIV DUP2 ADD SWAP3 DUP3 PUSH3 0x188 JUMPI PUSH1 0x0 DUP6 SSTORE PUSH3 0x1D3 JUMP JUMPDEST DUP3 PUSH1 0x1F LT PUSH3 0x1A3 JUMPI DUP1 MLOAD PUSH1 0xFF NOT AND DUP4 DUP1 ADD OR DUP6 SSTORE PUSH3 0x1D3 JUMP JUMPDEST DUP3 DUP1 ADD PUSH1 0x1 ADD DUP6 SSTORE DUP3 ISZERO PUSH3 0x1D3 JUMPI SWAP2 DUP3 ADD JUMPDEST DUP3 DUP2 GT ISZERO PUSH3 0x1D3 JUMPI DUP3 MLOAD DUP3 SSTORE SWAP2 PUSH1 0x20 ADD SWAP2 SWAP1 PUSH1 0x1 ADD SWAP1 PUSH3 0x1B6 JUMP JUMPDEST POP PUSH3 0x1E1 SWAP3 SWAP2 POP PUSH3 0x1E5 JUMP JUMPDEST POP SWAP1 JUMP JUMPDEST JUMPDEST DUP1 DUP3 GT ISZERO PUSH3 0x1E1 JUMPI PUSH1 0x0 DUP2 SSTORE PUSH1 0x1 ADD PUSH3 0x1E6 JUMP JUMPDEST PUSH1 0x1 DUP2 DUP2 SHR SWAP1 DUP3 AND DUP1 PUSH3 0x211 JUMPI PUSH1 0x7F DUP3 AND SWAP2 POP JUMPDEST PUSH1 0x20 DUP3 LT DUP2 EQ ISZERO PUSH3 0x233 JUMPI PUSH4 0x4E487B71 PUSH1 0xE0 SHL PUSH1 0x0 MSTORE PUSH1 0x22 PUSH1 0x4 MSTORE PUSH1 0x24 PUSH1 0x0 REVERT JUMPDEST POP SWAP2 SWAP1 POP JUMP JUMPDEST PUSH2 0x52FE DUP1 PUSH3 0x249 PUSH1 0x0 CODECOPY PUSH1 0x0 RETURN INVALID PUSH1 0x80 PUSH1 0x40 MSTORE PUSH1 0x4 CALLDATASIZE LT PUSH2 0x3CE JUMPI PUSH1 0x0 CALLDATALOAD PUSH1 0xE0 SHR DUP1 PUSH4 0x6352211E GT PUSH2 0x1FD JUMPI DUP1 PUSH4 0xA217FDDF GT PUSH2 0x118 JUMPI DUP1 PUSH4 0xD547741F GT PUSH2 0xAB JUMPI DUP1 PUSH4 0xF0F44260 GT PUSH2 0x7A JUMPI DUP1 PUSH4 0xF0F44260 EQ PUSH2 0xC2E JUMPI DUP1 PUSH4 0xF675E1B7 EQ PUSH2 0xC4E JUMPI DUP1 PUSH4 0xF8DD1F76 EQ PUSH2 0xC6E JUMPI DUP1 PUSH4 0xF9662818 EQ PUSH2 0xC8E JUMPI DUP1 PUSH4 0xF9C82202 EQ PUSH2 0xCAE JUMPI PUSH1 0x0 DUP1 REVERT JUMPDEST DUP1 PUSH4 0xD547741F EQ PUSH2 0xB85 JUMPI DUP1 PUSH4 0xE2C118D3 EQ PUSH2 0xBA5 JUMPI DUP1 PUSH4 0xE985E9C5 EQ PUSH2 0xBC5 JUMPI DUP1 PUSH4 0xEF08EAA8 EQ PUSH2 0xC0E JUMPI PUSH1 0x0 DUP1 REVERT JUMPDEST DUP1 PUSH4 0xC61DF6A6 GT PUSH2 0xE7 JUMPI DUP1 PUSH4 0xC61DF6A6 EQ PUSH2 0xACC JUMPI DUP1 PUSH4 0xC87B56DD EQ PUSH2 0xB0F JUMPI DUP1 PUSH4 0xCE5D4BD8 EQ PUSH2 0xB2F JUMPI DUP1 PUSH4 0xD2AAEF4E EQ PUSH2 0xB65 JUMPI PUSH1 0x0 DUP1 REVERT JUMPDEST DUP1 PUSH4 0xA217FDDF EQ PUSH2 0xA4A JUMPI DUP1 PUSH4 0xA22CB465 EQ PUSH2 0xA5F JUMPI DUP1 PUSH4 0xB88D4FDE EQ PUSH2 0xA7F JUMPI DUP1 PUSH4 0xB8CAE92C EQ PUSH2 0xA9F JUMPI PUSH1 0x0 DUP1 REVERT JUMPDEST DUP1 PUSH4 0x789E3A55 GT PUSH2 0x190 JUMPI DUP1 PUSH4 0x95D89B41 GT PUSH2 0x15F JUMPI DUP1 PUSH4 0x95D89B41 EQ PUSH2 0x9E2 JUMPI DUP1 PUSH4 0x96F5106A EQ PUSH2 0x9F7 JUMPI DUP1 PUSH4 0x9BCD5E04 EQ PUSH2 0xA17 JUMPI DUP1 PUSH4 0x9BD2A9BE EQ PUSH2 0xA37 JUMPI PUSH1 0x0 DUP1 REVERT JUMPDEST DUP1 PUSH4 0x789E3A55 EQ PUSH2 0x96F JUMPI DUP1 PUSH4 0x7CF8577D EQ PUSH2 0x98F JUMPI DUP1 PUSH4 0x91D14854 EQ PUSH2 0x9AF JUMPI DUP1 PUSH4 0x91E18F45 EQ PUSH2 0x9CF JUMPI PUSH1 0x0 DUP1 REVERT JUMPDEST DUP1 PUSH4 0x6D1D16DE GT PUSH2 0x1CC JUMPI DUP1 PUSH4 0x6D1D16DE EQ PUSH2 0x8EF JUMPI DUP1 PUSH4 0x70A08231 EQ PUSH2 0x90F JUMPI DUP1 PUSH4 0x75741D2D EQ PUSH2 0x92F JUMPI DUP1 PUSH4 0x7703F6D0 EQ PUSH2 0x94F JUMPI PUSH1 0x0 DUP1 REVERT JUMPDEST DUP1 PUSH4 0x6352211E EQ PUSH2 0x86F JUMPI DUP1 PUSH4 0x653FDE47 EQ PUSH2 0x88F JUMPI DUP1 PUSH4 0x69ADA53A EQ PUSH2 0x8A2 JUMPI DUP1 PUSH4 0x6C19E783 EQ PUSH2 0x8CF JUMPI PUSH1 0x0 DUP1 REVERT JUMPDEST DUP1 PUSH4 0x36568ABE GT PUSH2 0x2ED JUMPI DUP1 PUSH4 0x4847CE65 GT PUSH2 0x280 JUMPI DUP1 PUSH4 0x536565C4 GT PUSH2 0x24F JUMPI DUP1 PUSH4 0x536565C4 EQ PUSH2 0x7D4 JUMPI DUP1 PUSH4 0x55F804B3 EQ PUSH2 0x7F4 JUMPI DUP1 PUSH4 0x579B7A30 EQ PUSH2 0x814 JUMPI DUP1 PUSH4 0x61D027B3 EQ PUSH2 0x84A JUMPI PUSH1 0x0 DUP1 REVERT JUMPDEST DUP1 PUSH4 0x4847CE65 EQ PUSH2 0x744 JUMPI DUP1 PUSH4 0x4A5BD2FD EQ PUSH2 0x764 JUMPI DUP1 PUSH4 0x4E6F1C20 EQ PUSH2 0x794 JUMPI DUP1 PUSH4 0x4F6CCCE7 EQ PUSH2 0x7B4 JUMPI PUSH1 0x0 DUP1 REVERT JUMPDEST DUP1 PUSH4 0x3CCFD60B GT PUSH2 0x2BC JUMPI DUP1 PUSH4 0x3CCFD60B EQ PUSH2 0x6CF JUMPI DUP1 PUSH4 0x42842E0E EQ PUSH2 0x6E4 JUMPI DUP1 PUSH4 0x476F56B8 EQ PUSH2 0x704 JUMPI DUP1 PUSH4 0x47B8C003 EQ PUSH2 0x724 JUMPI PUSH1 0x0 DUP1 REVERT JUMPDEST DUP1 PUSH4 0x36568ABE EQ PUSH2 0x64A JUMPI DUP1 PUSH4 0x39A30E76 EQ PUSH2 0x66A JUMPI DUP1 PUSH4 0x3BA484AC EQ PUSH2 0x67D JUMPI DUP1 PUSH4 0x3BB2A921 EQ PUSH2 0x6AF JUMPI PUSH1 0x0 DUP1 REVERT JUMPDEST DUP1 PUSH4 0x23B872DD GT PUSH2 0x365 JUMPI DUP1 PUSH4 0x2F2FF15D GT PUSH2 0x334 JUMPI DUP1 PUSH4 0x2F2FF15D EQ PUSH2 0x5BD JUMPI DUP1 PUSH4 0x2F745C59 EQ PUSH2 0x5DD JUMPI DUP1 PUSH4 0x34F52FC5 EQ PUSH2 0x5FD JUMPI DUP1 PUSH4 0x35403023 EQ PUSH2 0x61D JUMPI PUSH1 0x0 DUP1 REVERT JUMPDEST DUP1 PUSH4 0x23B872DD EQ PUSH2 0x520 JUMPI DUP1 PUSH4 0x248A9CA3 EQ PUSH2 0x540 JUMPI DUP1 PUSH4 0x2844F794 EQ PUSH2 0x570 JUMPI DUP1 PUSH4 0x2E325020 EQ PUSH2 0x590 JUMPI PUSH1 0x0 DUP1 REVERT JUMPDEST DUP1 PUSH4 0x95EA7B3 GT PUSH2 0x3A1 JUMPI DUP1 PUSH4 0x95EA7B3 EQ PUSH2 0x492 JUMPI DUP1 PUSH4 0x18160DDD EQ PUSH2 0x4B4 JUMPI DUP1 PUSH4 0x18712C21 EQ PUSH2 0x4D3 JUMPI DUP1 PUSH4 0x237B7733 EQ PUSH2 0x4F3 JUMPI PUSH1 0x0 DUP1 REVERT JUMPDEST DUP1 PUSH4 0x1FFC9A7 EQ PUSH2 0x3D3 JUMPI DUP1 PUSH4 0x4CA2775 EQ PUSH2 0x408 JUMPI DUP1 PUSH4 0x6FDDE03 EQ PUSH2 0x438 JUMPI DUP1 PUSH4 0x81812FC EQ PUSH2 0x45A JUMPI JUMPDEST PUSH1 0x0 DUP1 REVERT JUMPDEST CALLVALUE DUP1 ISZERO PUSH2 0x3DF JUMPI PUSH1 0x0 DUP1 REVERT JUMPDEST POP PUSH2 0x3F3 PUSH2 0x3EE CALLDATASIZE PUSH1 0x4 PUSH2 0x46AC JUMP JUMPDEST PUSH2 0xCCE JUMP JUMPDEST PUSH1 0x40 MLOAD SWAP1 ISZERO ISZERO DUP2 MSTORE PUSH1 0x20 ADD JUMPDEST PUSH1 0x40 MLOAD DUP1 SWAP2 SUB SWAP1 RETURN JUMPDEST CALLVALUE DUP1 ISZERO PUSH2 0x414 JUMPI PUSH1 0x0 DUP1 REVERT JUMPDEST POP PUSH2 0x3F3 PUSH2 0x423 CALLDATASIZE PUSH1 0x4 PUSH2 0x46C9 JUMP JUMPDEST PUSH1 0x0 SWAP1 DUP2 MSTORE PUSH1 0x6 PUSH1 0x20 MSTORE PUSH1 0x40 SWAP1 KECCAK256 SLOAD PUSH1 0xFF AND SWAP1 JUMP JUMPDEST CALLVALUE DUP1 ISZERO PUSH2 0x444 JUMPI PUSH1 0x0 DUP1 REVERT JUMPDEST POP PUSH2 0x44D PUSH2 0xCDF JUMP JUMPDEST PUSH1 0x40 MLOAD PUSH2 0x3FF SWAP2 SWAP1 PUSH2 0x473A JUMP JUMPDEST CALLVALUE DUP1 ISZERO PUSH2 0x466 JUMPI PUSH1 0x0 DUP1 REVERT JUMPDEST POP PUSH2 0x47A PUSH2 0x475 CALLDATASIZE PUSH1 0x4 PUSH2 0x46C9 JUMP JUMPDEST PUSH2 0xD71 JUMP JUMPDEST PUSH1 0x40 MLOAD PUSH1 0x1 PUSH1 0x1 PUSH1 0xA0 SHL SUB SWAP1 SWAP2 AND DUP2 MSTORE PUSH1 0x20 ADD PUSH2 0x3FF JUMP JUMPDEST CALLVALUE DUP1 ISZERO PUSH2 0x49E JUMPI PUSH1 0x0 DUP1 REVERT JUMPDEST POP PUSH2 0x4B2 PUSH2 0x4AD CALLDATASIZE PUSH1 0x4 PUSH2 0x4769 JUMP JUMPDEST PUSH2 0xD98 JUMP JUMPDEST STOP JUMPDEST CALLVALUE DUP1 ISZERO PUSH2 0x4C0 JUMPI PUSH1 0x0 DUP1 REVERT JUMPDEST POP PUSH1 0x12 SLOAD JUMPDEST PUSH1 0x40 MLOAD SWAP1 DUP2 MSTORE PUSH1 0x20 ADD PUSH2 0x3FF JUMP JUMPDEST CALLVALUE DUP1 ISZERO PUSH2 0x4DF JUMPI PUSH1 0x0 DUP1 REVERT JUMPDEST POP PUSH2 0x4B2 PUSH2 0x4EE CALLDATASIZE PUSH1 0x4 PUSH2 0x4793 JUMP JUMPDEST PUSH2 0xEB3 JUMP JUMPDEST CALLVALUE DUP1 ISZERO PUSH2 0x4FF JUMPI PUSH1 0x0 DUP1 REVERT JUMPDEST POP PUSH2 0x4C5 PUSH2 0x50E CALLDATASIZE PUSH1 0x4 PUSH2 0x46C9 JUMP JUMPDEST PUSH1 0x0 SWAP1 DUP2 MSTORE PUSH1 0x5 PUSH1 0x20 MSTORE PUSH1 0x40 SWAP1 KECCAK256 SLOAD SWAP1 JUMP JUMPDEST CALLVALUE DUP1 ISZERO PUSH2 0x52C JUMPI PUSH1 0x0 DUP1 REVERT JUMPDEST POP PUSH2 0x4B2 PUSH2 0x53B CALLDATASIZE PUSH1 0x4 PUSH2 0x47B5 JUMP JUMPDEST PUSH2 0xED1 JUMP JUMPDEST CALLVALUE DUP1 ISZERO PUSH2 0x54C JUMPI PUSH1 0x0 DUP1 REVERT JUMPDEST POP PUSH2 0x4C5 PUSH2 0x55B CALLDATASIZE PUSH1 0x4 PUSH2 0x46C9 JUMP JUMPDEST PUSH1 0x0 SWAP1 DUP2 MSTORE PUSH1 0x14 PUSH1 0x20 MSTORE PUSH1 0x40 SWAP1 KECCAK256 PUSH1 0x1 ADD SLOAD SWAP1 JUMP JUMPDEST CALLVALUE DUP1 ISZERO PUSH2 0x57C JUMPI PUSH1 0x0 DUP1 REVERT JUMPDEST POP PUSH2 0x4B2 PUSH2 0x58B CALLDATASIZE PUSH1 0x4 PUSH2 0x4793 JUMP JUMPDEST PUSH2 0xF02 JUMP JUMPDEST CALLVALUE DUP1 ISZERO PUSH2 0x59C JUMPI PUSH1 0x0 DUP1 REVERT JUMPDEST POP PUSH2 0x4C5 PUSH2 0x5AB CALLDATASIZE PUSH1 0x4 PUSH2 0x46C9 JUMP JUMPDEST PUSH1 0x0 SWAP1 DUP2 MSTORE PUSH1 0x17 PUSH1 0x20 MSTORE PUSH1 0x40 SWAP1 KECCAK256 SLOAD SWAP1 JUMP JUMPDEST CALLVALUE DUP1 ISZERO PUSH2 0x5C9 JUMPI PUSH1 0x0 DUP1 REVERT JUMPDEST POP PUSH2 0x4B2 PUSH2 0x5D8 CALLDATASIZE PUSH1 0x4 PUSH2 0x47F1 JUMP JUMPDEST PUSH2 0x1139 JUMP JUMPDEST CALLVALUE DUP1 ISZERO PUSH2 0x5E9 JUMPI PUSH1 0x0 DUP1 REVERT JUMPDEST POP PUSH2 0x4C5 PUSH2 0x5F8 CALLDATASIZE PUSH1 0x4 PUSH2 0x4769 JUMP JUMPDEST PUSH2 0x115E JUMP JUMPDEST CALLVALUE DUP1 ISZERO PUSH2 0x609 JUMPI PUSH1 0x0 DUP1 REVERT JUMPDEST POP PUSH2 0x4B2 PUSH2 0x618 CALLDATASIZE PUSH1 0x4 PUSH2 0x4844 JUMP JUMPDEST PUSH2 0x11F4 JUMP JUMPDEST CALLVALUE DUP1 ISZERO PUSH2 0x629 JUMPI PUSH1 0x0 DUP1 REVERT JUMPDEST POP PUSH2 0x4C5 PUSH2 0x638 CALLDATASIZE PUSH1 0x4 PUSH2 0x46C9 JUMP JUMPDEST PUSH1 0x0 SWAP1 DUP2 MSTORE PUSH1 0x2 PUSH1 0x20 MSTORE PUSH1 0x40 SWAP1 KECCAK256 SLOAD SWAP1 JUMP JUMPDEST CALLVALUE DUP1 ISZERO PUSH2 0x656 JUMPI PUSH1 0x0 DUP1 REVERT JUMPDEST POP PUSH2 0x4B2 PUSH2 0x665 CALLDATASIZE PUSH1 0x4 PUSH2 0x47F1 JUMP JUMPDEST PUSH2 0x1277 JUMP JUMPDEST PUSH2 0x4B2 PUSH2 0x678 CALLDATASIZE PUSH1 0x4 PUSH2 0x48A1 JUMP JUMPDEST PUSH2 0x12F5 JUMP JUMPDEST CALLVALUE DUP1 ISZERO PUSH2 0x689 JUMPI PUSH1 0x0 DUP1 REVERT JUMPDEST POP PUSH1 0x15 SLOAD PUSH1 0x1 PUSH1 0x1 PUSH1 0x60 SHL SUB AND JUMPDEST PUSH1 0x40 MLOAD PUSH1 0x1 PUSH1 0x1 PUSH1 0x60 SHL SUB SWAP1 SWAP2 AND DUP2 MSTORE PUSH1 0x20 ADD PUSH2 0x3FF JUMP JUMPDEST CALLVALUE DUP1 ISZERO PUSH2 0x6BB JUMPI PUSH1 0x0 DUP1 REVERT JUMPDEST POP PUSH2 0x697 PUSH2 0x6CA CALLDATASIZE PUSH1 0x4 PUSH2 0x46C9 JUMP JUMPDEST PUSH2 0x14F7 JUMP JUMPDEST CALLVALUE DUP1 ISZERO PUSH2 0x6DB JUMPI PUSH1 0x0 DUP1 REVERT JUMPDEST POP PUSH2 0x4B2 PUSH2 0x1540 JUMP JUMPDEST CALLVALUE DUP1 ISZERO PUSH2 0x6F0 JUMPI PUSH1 0x0 DUP1 REVERT JUMPDEST POP PUSH2 0x4B2 PUSH2 0x6FF CALLDATASIZE PUSH1 0x4 PUSH2 0x47B5 JUMP JUMPDEST PUSH2 0x15A6 JUMP JUMPDEST CALLVALUE DUP1 ISZERO PUSH2 0x710 JUMPI PUSH1 0x0 DUP1 REVERT JUMPDEST POP PUSH2 0x4C5 PUSH2 0x71F CALLDATASIZE PUSH1 0x4 PUSH2 0x46C9 JUMP JUMPDEST PUSH2 0x15C1 JUMP JUMPDEST CALLVALUE DUP1 ISZERO PUSH2 0x730 JUMPI PUSH1 0x0 DUP1 REVERT JUMPDEST POP PUSH2 0x4B2 PUSH2 0x73F CALLDATASIZE PUSH1 0x4 PUSH2 0x46C9 JUMP JUMPDEST PUSH2 0x15D8 JUMP JUMPDEST CALLVALUE DUP1 ISZERO PUSH2 0x750 JUMPI PUSH1 0x0 DUP1 REVERT JUMPDEST POP PUSH2 0x3F3 PUSH2 0x75F CALLDATASIZE PUSH1 0x4 PUSH2 0x4793 JUMP JUMPDEST PUSH2 0x1784 JUMP JUMPDEST CALLVALUE DUP1 ISZERO PUSH2 0x770 JUMPI PUSH1 0x0 DUP1 REVERT JUMPDEST POP PUSH2 0x3F3 PUSH2 0x77F CALLDATASIZE PUSH1 0x4 PUSH2 0x46C9 JUMP JUMPDEST PUSH1 0x0 SWAP1 DUP2 MSTORE PUSH1 0x7 PUSH1 0x20 MSTORE PUSH1 0x40 SWAP1 KECCAK256 SLOAD PUSH1 0xFF AND SWAP1 JUMP JUMPDEST CALLVALUE DUP1 ISZERO PUSH2 0x7A0 JUMPI PUSH1 0x0 DUP1 REVERT JUMPDEST POP PUSH2 0x4B2 PUSH2 0x7AF CALLDATASIZE PUSH1 0x4 PUSH2 0x49A5 JUMP JUMPDEST PUSH2 0x17A9 JUMP JUMPDEST CALLVALUE DUP1 ISZERO PUSH2 0x7C0 JUMPI PUSH1 0x0 DUP1 REVERT JUMPDEST POP PUSH2 0x4C5 PUSH2 0x7CF CALLDATASIZE PUSH1 0x4 PUSH2 0x46C9 JUMP JUMPDEST PUSH2 0x18C0 JUMP JUMPDEST CALLVALUE DUP1 ISZERO PUSH2 0x7E0 JUMPI PUSH1 0x0 DUP1 REVERT JUMPDEST POP PUSH2 0x4B2 PUSH2 0x7EF CALLDATASIZE PUSH1 0x4 PUSH2 0x46C9 JUMP JUMPDEST PUSH2 0x1953 JUMP JUMPDEST CALLVALUE DUP1 ISZERO PUSH2 0x800 JUMPI PUSH1 0x0 DUP1 REVERT JUMPDEST POP PUSH2 0x4B2 PUSH2 0x80F CALLDATASIZE PUSH1 0x4 PUSH2 0x4A7B JUMP JUMPDEST PUSH2 0x1A95 JUMP JUMPDEST CALLVALUE DUP1 ISZERO PUSH2 0x820 JUMPI PUSH1 0x0 DUP1 REVERT JUMPDEST POP PUSH2 0x4C5 PUSH2 0x82F CALLDATASIZE PUSH1 0x4 PUSH2 0x4AC3 JUMP JUMPDEST PUSH1 0x1 PUSH1 0x1 PUSH1 0xA0 SHL SUB AND PUSH1 0x0 SWAP1 DUP2 MSTORE PUSH1 0x1B PUSH1 0x20 MSTORE PUSH1 0x40 SWAP1 KECCAK256 SLOAD SWAP1 JUMP JUMPDEST CALLVALUE DUP1 ISZERO PUSH2 0x856 JUMPI PUSH1 0x0 DUP1 REVERT JUMPDEST POP PUSH1 0x15 SLOAD PUSH1 0x1 PUSH1 0x60 SHL SWAP1 DIV PUSH1 0x1 PUSH1 0x1 PUSH1 0xA0 SHL SUB AND PUSH2 0x47A JUMP JUMPDEST CALLVALUE DUP1 ISZERO PUSH2 0x87B JUMPI PUSH1 0x0 DUP1 REVERT JUMPDEST POP PUSH2 0x47A PUSH2 0x88A CALLDATASIZE PUSH1 0x4 PUSH2 0x46C9 JUMP JUMPDEST PUSH2 0x1AB3 JUMP JUMPDEST PUSH2 0x4B2 PUSH2 0x89D CALLDATASIZE PUSH1 0x4 PUSH2 0x4ADE JUMP JUMPDEST PUSH2 0x1B13 JUMP JUMPDEST CALLVALUE DUP1 ISZERO PUSH2 0x8AE JUMPI PUSH1 0x0 DUP1 REVERT JUMPDEST POP PUSH2 0x4C5 PUSH2 0x8BD CALLDATASIZE PUSH1 0x4 PUSH2 0x46C9 JUMP JUMPDEST PUSH1 0x0 SWAP1 DUP2 MSTORE PUSH1 0x3 PUSH1 0x20 MSTORE PUSH1 0x40 SWAP1 KECCAK256 SLOAD SWAP1 JUMP JUMPDEST CALLVALUE DUP1 ISZERO PUSH2 0x8DB JUMPI PUSH1 0x0 DUP1 REVERT JUMPDEST POP PUSH2 0x4B2 PUSH2 0x8EA CALLDATASIZE PUSH1 0x4 PUSH2 0x4AC3 JUMP JUMPDEST PUSH2 0x1CEB JUMP JUMPDEST CALLVALUE DUP1 ISZERO PUSH2 0x8FB JUMPI PUSH1 0x0 DUP1 REVERT JUMPDEST POP PUSH2 0x4B2 PUSH2 0x90A CALLDATASIZE PUSH1 0x4 PUSH2 0x4B13 JUMP JUMPDEST PUSH2 0x1D15 JUMP JUMPDEST CALLVALUE DUP1 ISZERO PUSH2 0x91B JUMPI PUSH1 0x0 DUP1 REVERT JUMPDEST POP PUSH2 0x4C5 PUSH2 0x92A CALLDATASIZE PUSH1 0x4 PUSH2 0x4AC3 JUMP JUMPDEST PUSH2 0x1E56 JUMP JUMPDEST CALLVALUE DUP1 ISZERO PUSH2 0x93B JUMPI PUSH1 0x0 DUP1 REVERT JUMPDEST POP PUSH2 0x4B2 PUSH2 0x94A CALLDATASIZE PUSH1 0x4 PUSH2 0x4B8C JUMP JUMPDEST PUSH2 0x1EDC JUMP JUMPDEST CALLVALUE DUP1 ISZERO PUSH2 0x95B JUMPI PUSH1 0x0 DUP1 REVERT JUMPDEST POP PUSH2 0x4B2 PUSH2 0x96A CALLDATASIZE PUSH1 0x4 PUSH2 0x46C9 JUMP JUMPDEST PUSH2 0x1F0F JUMP JUMPDEST CALLVALUE DUP1 ISZERO PUSH2 0x97B JUMPI PUSH1 0x0 DUP1 REVERT JUMPDEST POP PUSH2 0x4B2 PUSH2 0x98A CALLDATASIZE PUSH1 0x4 PUSH2 0x4BA7 JUMP JUMPDEST PUSH2 0x1F55 JUMP JUMPDEST CALLVALUE DUP1 ISZERO PUSH2 0x99B JUMPI PUSH1 0x0 DUP1 REVERT JUMPDEST POP PUSH2 0x4B2 PUSH2 0x9AA CALLDATASIZE PUSH1 0x4 PUSH2 0x49A5 JUMP JUMPDEST PUSH2 0x2058 JUMP JUMPDEST CALLVALUE DUP1 ISZERO PUSH2 0x9BB JUMPI PUSH1 0x0 DUP1 REVERT JUMPDEST POP PUSH2 0x3F3 PUSH2 0x9CA CALLDATASIZE PUSH1 0x4 PUSH2 0x47F1 JUMP JUMPDEST PUSH2 0x20E0 JUMP JUMPDEST PUSH2 0x4B2 PUSH2 0x9DD CALLDATASIZE PUSH1 0x4 PUSH2 0x4BF0 JUMP JUMPDEST PUSH2 0x210B JUMP JUMPDEST CALLVALUE DUP1 ISZERO PUSH2 0x9EE JUMPI PUSH1 0x0 DUP1 REVERT JUMPDEST POP PUSH2 0x44D PUSH2 0x240C JUMP JUMPDEST CALLVALUE DUP1 ISZERO PUSH2 0xA03 JUMPI PUSH1 0x0 DUP1 REVERT JUMPDEST POP PUSH2 0x4C5 PUSH2 0xA12 CALLDATASIZE PUSH1 0x4 PUSH2 0x4C7F JUMP JUMPDEST PUSH2 0x241B JUMP JUMPDEST CALLVALUE DUP1 ISZERO PUSH2 0xA23 JUMPI PUSH1 0x0 DUP1 REVERT JUMPDEST POP PUSH2 0x4C5 PUSH2 0xA32 CALLDATASIZE PUSH1 0x4 PUSH2 0x4CBA JUMP JUMPDEST PUSH2 0x245B JUMP JUMPDEST PUSH2 0x4B2 PUSH2 0xA45 CALLDATASIZE PUSH1 0x4 PUSH2 0x4CDD JUMP JUMPDEST PUSH2 0x24BD JUMP JUMPDEST CALLVALUE DUP1 ISZERO PUSH2 0xA56 JUMPI PUSH1 0x0 DUP1 REVERT JUMPDEST POP PUSH2 0x4C5 PUSH1 0x0 DUP2 JUMP JUMPDEST CALLVALUE DUP1 ISZERO PUSH2 0xA6B JUMPI PUSH1 0x0 DUP1 REVERT JUMPDEST POP PUSH2 0x4B2 PUSH2 0xA7A CALLDATASIZE PUSH1 0x4 PUSH2 0x4D1F JUMP JUMPDEST PUSH2 0x26A9 JUMP JUMPDEST CALLVALUE DUP1 ISZERO PUSH2 0xA8B JUMPI PUSH1 0x0 DUP1 REVERT JUMPDEST POP PUSH2 0x4B2 PUSH2 0xA9A CALLDATASIZE PUSH1 0x4 PUSH2 0x4D49 JUMP JUMPDEST PUSH2 0x26B4 JUMP JUMPDEST CALLVALUE DUP1 ISZERO PUSH2 0xAAB JUMPI PUSH1 0x0 DUP1 REVERT JUMPDEST POP PUSH2 0x4C5 PUSH2 0xABA CALLDATASIZE PUSH1 0x4 PUSH2 0x46C9 JUMP JUMPDEST PUSH1 0x0 SWAP1 DUP2 MSTORE PUSH1 0x4 PUSH1 0x20 MSTORE PUSH1 0x40 SWAP1 KECCAK256 SLOAD SWAP1 JUMP JUMPDEST CALLVALUE DUP1 ISZERO PUSH2 0xAD8 JUMPI PUSH1 0x0 DUP1 REVERT JUMPDEST POP PUSH2 0x4C5 PUSH2 0xAE7 CALLDATASIZE PUSH1 0x4 PUSH2 0x47F1 JUMP JUMPDEST PUSH1 0x0 SWAP2 DUP3 MSTORE PUSH1 0x1 PUSH1 0x20 SWAP1 DUP2 MSTORE PUSH1 0x40 DUP1 DUP5 KECCAK256 PUSH1 0x1 PUSH1 0x1 PUSH1 0xA0 SHL SUB SWAP4 SWAP1 SWAP4 AND DUP5 MSTORE SWAP2 SWAP1 MSTORE SWAP1 KECCAK256 SLOAD SWAP1 JUMP JUMPDEST CALLVALUE DUP1 ISZERO PUSH2 0xB1B JUMPI PUSH1 0x0 DUP1 REVERT JUMPDEST POP PUSH2 0x44D PUSH2 0xB2A CALLDATASIZE PUSH1 0x4 PUSH2 0x46C9 JUMP JUMPDEST PUSH2 0x26EC JUMP JUMPDEST CALLVALUE DUP1 ISZERO PUSH2 0xB3B JUMPI PUSH1 0x0 DUP1 REVERT JUMPDEST POP PUSH2 0x47A PUSH2 0xB4A CALLDATASIZE PUSH1 0x4 PUSH2 0x46C9 JUMP JUMPDEST PUSH1 0x0 SWAP1 DUP2 MSTORE PUSH1 0x1A PUSH1 0x20 MSTORE PUSH1 0x40 SWAP1 KECCAK256 SLOAD PUSH1 0x1 PUSH1 0x1 PUSH1 0xA0 SHL SUB AND SWAP1 JUMP JUMPDEST CALLVALUE DUP1 ISZERO PUSH2 0xB71 JUMPI PUSH1 0x0 DUP1 REVERT JUMPDEST POP PUSH2 0x697 PUSH2 0xB80 CALLDATASIZE PUSH1 0x4 PUSH2 0x46C9 JUMP JUMPDEST PUSH2 0x2752 JUMP JUMPDEST CALLVALUE DUP1 ISZERO PUSH2 0xB91 JUMPI PUSH1 0x0 DUP1 REVERT JUMPDEST POP PUSH2 0x4B2 PUSH2 0xBA0 CALLDATASIZE PUSH1 0x4 PUSH2 0x47F1 JUMP JUMPDEST PUSH2 0x27C5 JUMP JUMPDEST CALLVALUE DUP1 ISZERO PUSH2 0xBB1 JUMPI PUSH1 0x0 DUP1 REVERT JUMPDEST POP PUSH2 0x4C5 PUSH2 0xBC0 CALLDATASIZE PUSH1 0x4 PUSH2 0x4AC3 JUMP JUMPDEST PUSH2 0x27EA JUMP JUMPDEST CALLVALUE DUP1 ISZERO PUSH2 0xBD1 JUMPI PUSH1 0x0 DUP1 REVERT JUMPDEST POP PUSH2 0x3F3 PUSH2 0xBE0 CALLDATASIZE PUSH1 0x4 PUSH2 0x4DC4 JUMP JUMPDEST PUSH1 0x1 PUSH1 0x1 PUSH1 0xA0 SHL SUB SWAP2 DUP3 AND PUSH1 0x0 SWAP1 DUP2 MSTORE PUSH1 0xF PUSH1 0x20 SWAP1 DUP2 MSTORE PUSH1 0x40 DUP1 DUP4 KECCAK256 SWAP4 SWAP1 SWAP5 AND DUP3 MSTORE SWAP2 SWAP1 SWAP2 MSTORE KECCAK256 SLOAD PUSH1 0xFF AND SWAP1 JUMP JUMPDEST CALLVALUE DUP1 ISZERO PUSH2 0xC1A JUMPI PUSH1 0x0 DUP1 REVERT JUMPDEST POP PUSH2 0x4B2 PUSH2 0xC29 CALLDATASIZE PUSH1 0x4 PUSH2 0x4DEE JUMP JUMPDEST PUSH2 0x2835 JUMP JUMPDEST CALLVALUE DUP1 ISZERO PUSH2 0xC3A JUMPI PUSH1 0x0 DUP1 REVERT JUMPDEST POP PUSH2 0x4B2 PUSH2 0xC49 CALLDATASIZE PUSH1 0x4 PUSH2 0x4AC3 JUMP JUMPDEST PUSH2 0x292A JUMP JUMPDEST CALLVALUE DUP1 ISZERO PUSH2 0xC5A JUMPI PUSH1 0x0 DUP1 REVERT JUMPDEST POP PUSH2 0x697 PUSH2 0xC69 CALLDATASIZE PUSH1 0x4 PUSH2 0x4AC3 JUMP JUMPDEST PUSH2 0x295E JUMP JUMPDEST CALLVALUE DUP1 ISZERO PUSH2 0xC7A JUMPI PUSH1 0x0 DUP1 REVERT JUMPDEST POP PUSH2 0x4B2 PUSH2 0xC89 CALLDATASIZE PUSH1 0x4 PUSH2 0x46C9 JUMP JUMPDEST PUSH2 0x2A1C JUMP JUMPDEST CALLVALUE DUP1 ISZERO PUSH2 0xC9A JUMPI PUSH1 0x0 DUP1 REVERT JUMPDEST POP PUSH2 0x47A PUSH2 0xCA9 CALLDATASIZE PUSH1 0x4 PUSH2 0x4793 JUMP JUMPDEST PUSH2 0x2AAB JUMP JUMPDEST CALLVALUE DUP1 ISZERO PUSH2 0xCBA JUMPI PUSH1 0x0 DUP1 REVERT JUMPDEST POP PUSH2 0x4B2 PUSH2 0xCC9 CALLDATASIZE PUSH1 0x4 PUSH2 0x4E13 JUMP JUMPDEST PUSH2 0x2AC3 JUMP JUMPDEST PUSH1 0x0 PUSH2 0xCD9 DUP3 PUSH2 0x2B85 JUMP JUMPDEST SWAP3 SWAP2 POP POP JUMP JUMPDEST PUSH1 0x60 PUSH1 0xA DUP1 SLOAD PUSH2 0xCEE SWAP1 PUSH2 0x4E72 JUMP JUMPDEST DUP1 PUSH1 0x1F ADD PUSH1 0x20 DUP1 SWAP2 DIV MUL PUSH1 0x20 ADD PUSH1 0x40 MLOAD SWAP1 DUP2 ADD PUSH1 0x40 MSTORE DUP1 SWAP3 SWAP2 SWAP1 DUP2 DUP2 MSTORE PUSH1 0x20 ADD DUP3 DUP1 SLOAD PUSH2 0xD1A SWAP1 PUSH2 0x4E72 JUMP JUMPDEST DUP1 ISZERO PUSH2 0xD67 JUMPI DUP1 PUSH1 0x1F LT PUSH2 0xD3C JUMPI PUSH2 0x100 DUP1 DUP4 SLOAD DIV MUL DUP4 MSTORE SWAP2 PUSH1 0x20 ADD SWAP2 PUSH2 0xD67 JUMP JUMPDEST DUP3 ADD SWAP2 SWAP1 PUSH1 0x0 MSTORE PUSH1 0x20 PUSH1 0x0 KECCAK256 SWAP1 JUMPDEST DUP2 SLOAD DUP2 MSTORE SWAP1 PUSH1 0x1 ADD SWAP1 PUSH1 0x20 ADD DUP1 DUP4 GT PUSH2 0xD4A JUMPI DUP3 SWAP1 SUB PUSH1 0x1F AND DUP3 ADD SWAP2 JUMPDEST POP POP POP POP POP SWAP1 POP SWAP1 JUMP JUMPDEST PUSH1 0x0 PUSH2 0xD7C DUP3 PUSH2 0x2BAA JUMP JUMPDEST POP PUSH1 0x0 SWAP1 DUP2 MSTORE PUSH1 0xE PUSH1 0x20 MSTORE PUSH1 0x40 SWAP1 KECCAK256 SLOAD PUSH1 0x1 PUSH1 0x1 PUSH1 0xA0 SHL SUB AND SWAP1 JUMP JUMPDEST PUSH1 0x0 PUSH2 0xDA3 DUP3 PUSH2 0x1AB3 JUMP JUMPDEST SWAP1 POP DUP1 PUSH1 0x1 PUSH1 0x1 PUSH1 0xA0 SHL SUB AND DUP4 PUSH1 0x1 PUSH1 0x1 PUSH1 0xA0 SHL SUB AND EQ ISZERO PUSH2 0xE16 JUMPI PUSH1 0x40 MLOAD PUSH3 0x461BCD PUSH1 0xE5 SHL DUP2 MSTORE PUSH1 0x20 PUSH1 0x4 DUP3 ADD MSTORE PUSH1 0x21 PUSH1 0x24 DUP3 ADD MSTORE PUSH32 0x4552433732313A20617070726F76616C20746F2063757272656E74206F776E65 PUSH1 0x44 DUP3 ADD MSTORE PUSH1 0x39 PUSH1 0xF9 SHL PUSH1 0x64 DUP3 ADD MSTORE PUSH1 0x84 ADD JUMPDEST PUSH1 0x40 MLOAD DUP1 SWAP2 SUB SWAP1 REVERT JUMPDEST CALLER PUSH1 0x1 PUSH1 0x1 PUSH1 0xA0 SHL SUB DUP3 AND EQ DUP1 PUSH2 0xE32 JUMPI POP PUSH2 0xE32 DUP2 CALLER PUSH2 0xBE0 JUMP JUMPDEST PUSH2 0xEA4 JUMPI PUSH1 0x40 MLOAD PUSH3 0x461BCD PUSH1 0xE5 SHL DUP2 MSTORE PUSH1 0x20 PUSH1 0x4 DUP3 ADD MSTORE PUSH1 0x3D PUSH1 0x24 DUP3 ADD MSTORE PUSH32 0x4552433732313A20617070726F76652063616C6C6572206973206E6F7420746F PUSH1 0x44 DUP3 ADD MSTORE PUSH32 0x6B656E206F776E6572206F7220617070726F76656420666F7220616C6C000000 PUSH1 0x64 DUP3 ADD MSTORE PUSH1 0x84 ADD PUSH2 0xE0D JUMP JUMPDEST PUSH2 0xEAE DUP4 DUP4 PUSH2 0x2C09 JUMP JUMPDEST POP POP POP JUMP JUMPDEST PUSH1 0x0 PUSH2 0xEBE DUP2 PUSH2 0x2C77 JUMP JUMPDEST POP PUSH1 0x0 SWAP2 DUP3 MSTORE PUSH1 0x20 DUP3 SWAP1 MSTORE PUSH1 0x40 SWAP1 SWAP2 KECCAK256 SSTORE JUMP JUMPDEST PUSH2 0xEDB CALLER DUP3 PUSH2 0x2C81 JUMP JUMPDEST PUSH2 0xEF7 JUMPI PUSH1 0x40 MLOAD PUSH3 0x461BCD PUSH1 0xE5 SHL DUP2 MSTORE PUSH1 0x4 ADD PUSH2 0xE0D SWAP1 PUSH2 0x4EAD JUMP JUMPDEST PUSH2 0xEAE DUP4 DUP4 DUP4 PUSH2 0x2CFF JUMP JUMPDEST DUP1 DUP3 EQ ISZERO PUSH2 0xF52 JUMPI PUSH1 0x40 MLOAD PUSH3 0x461BCD PUSH1 0xE5 SHL DUP2 MSTORE PUSH1 0x20 PUSH1 0x4 DUP3 ADD MSTORE PUSH1 0x1B PUSH1 0x24 DUP3 ADD MSTORE PUSH32 0x43616E6E6F742073776974636820746F2073616D6520746F6B656E0000000000 PUSH1 0x44 DUP3 ADD MSTORE PUSH1 0x64 ADD PUSH2 0xE0D JUMP JUMPDEST CALLER PUSH2 0xF5C DUP4 PUSH2 0x1AB3 JUMP JUMPDEST PUSH1 0x1 PUSH1 0x1 PUSH1 0xA0 SHL SUB AND EQ PUSH2 0xF82 JUMPI PUSH1 0x40 MLOAD PUSH3 0x461BCD PUSH1 0xE5 SHL DUP2 MSTORE PUSH1 0x4 ADD PUSH2 0xE0D SWAP1 PUSH2 0x4EFA JUMP JUMPDEST CALLER PUSH2 0xF8C DUP3 PUSH2 0x1AB3 JUMP JUMPDEST PUSH1 0x1 PUSH1 0x1 PUSH1 0xA0 SHL SUB AND EQ PUSH2 0xFB2 JUMPI PUSH1 0x40 MLOAD PUSH3 0x461BCD PUSH1 0xE5 SHL DUP2 MSTORE PUSH1 0x4 ADD PUSH2 0xE0D SWAP1 PUSH2 0x4EFA JUMP JUMPDEST PUSH1 0x0 DUP3 DUP2 MSTORE PUSH1 0x1A PUSH1 0x20 MSTORE PUSH1 0x40 SWAP1 KECCAK256 SLOAD PUSH1 0x1 PUSH1 0x1 PUSH1 0xA0 SHL SUB AND CALLER EQ PUSH2 0x100D JUMPI PUSH1 0x40 MLOAD PUSH3 0x461BCD PUSH1 0xE5 SHL DUP2 MSTORE PUSH1 0x20 PUSH1 0x4 DUP3 ADD MSTORE PUSH1 0x12 PUSH1 0x24 DUP3 ADD MSTORE PUSH18 0x24B73B30B634B21030B1BA34BB30BA34B7B7 PUSH1 0x71 SHL PUSH1 0x44 DUP3 ADD MSTORE PUSH1 0x64 ADD PUSH2 0xE0D JUMP JUMPDEST PUSH1 0x0 DUP2 DUP2 MSTORE PUSH1 0x1A PUSH1 0x20 MSTORE PUSH1 0x40 SWAP1 KECCAK256 SLOAD PUSH1 0x1 PUSH1 0x1 PUSH1 0xA0 SHL SUB AND ISZERO PUSH2 0x1042 JUMPI PUSH1 0x40 MLOAD PUSH3 0x461BCD PUSH1 0xE5 SHL DUP2 MSTORE PUSH1 0x4 ADD PUSH2 0xE0D SWAP1 PUSH2 0x4F1F JUMP JUMPDEST PUSH1 0x0 DUP3 DUP2 MSTORE PUSH1 0x1C PUSH1 0x20 MSTORE PUSH1 0x40 SWAP1 KECCAK256 PUSH2 0x1059 SWAP1 PUSH2 0x2E70 JUMP JUMPDEST ISZERO PUSH2 0x10A0 JUMPI PUSH1 0x40 MLOAD PUSH3 0x461BCD PUSH1 0xE5 SHL DUP2 MSTORE PUSH1 0x20 PUSH1 0x4 DUP3 ADD MSTORE PUSH1 0x17 PUSH1 0x24 DUP3 ADD MSTORE PUSH23 0x13595B58995C9CC81CDD1A5B1B081858DD1A5D985D1959 PUSH1 0x4A SHL PUSH1 0x44 DUP3 ADD MSTORE PUSH1 0x64 ADD PUSH2 0xE0D JUMP JUMPDEST PUSH1 0x0 DUP3 DUP2 MSTORE PUSH1 0x1A PUSH1 0x20 SWAP1 DUP2 MSTORE PUSH1 0x40 DUP1 DUP4 KECCAK256 DUP1 SLOAD PUSH1 0x1 PUSH1 0x1 PUSH1 0xA0 SHL SUB NOT SWAP1 DUP2 AND SWAP1 SWAP2 SSTORE DUP5 DUP5 MSTORE DUP2 DUP5 KECCAK256 DUP1 SLOAD CALLER SWAP3 AND DUP3 OR SWAP1 SSTORE DUP1 DUP5 MSTORE PUSH1 0x1B SWAP1 SWAP3 MSTORE DUP1 DUP4 KECCAK256 DUP5 SWAP1 SSTORE MLOAD SWAP1 SWAP2 DUP5 SWAP2 PUSH32 0xD99429F557CA87DF7FFEFE25AE8DE8FEABEABD528CC646FF1C14534F857F6BD2 SWAP2 SWAP1 LOG3 PUSH1 0x40 MLOAD CALLER SWAP1 DUP3 SWAP1 PUSH32 0xD4AE292DA4C1B97C2B8A3A8A4D7788A389D5F06E6FBAE5C9BFC42235964A1F0A SWAP1 PUSH1 0x0 SWAP1 LOG3 POP POP JUMP JUMPDEST PUSH1 0x0 DUP3 DUP2 MSTORE PUSH1 0x14 PUSH1 0x20 MSTORE PUSH1 0x40 SWAP1 KECCAK256 PUSH1 0x1 ADD SLOAD PUSH2 0x1154 DUP2 PUSH2 0x2C77 JUMP JUMPDEST PUSH2 0xEAE DUP4 DUP4 PUSH2 0x2E7A JUMP JUMPDEST PUSH1 0x0 PUSH2 0x1169 DUP4 PUSH2 0x1E56 JUMP JUMPDEST DUP3 LT PUSH2 0x11CB JUMPI PUSH1 0x40 MLOAD PUSH3 0x461BCD PUSH1 0xE5 SHL DUP2 MSTORE PUSH1 0x20 PUSH1 0x4 DUP3 ADD MSTORE PUSH1 0x2B PUSH1 0x24 DUP3 ADD MSTORE PUSH32 0x455243373231456E756D657261626C653A206F776E657220696E646578206F75 PUSH1 0x44 DUP3 ADD MSTORE PUSH11 0x74206F6620626F756E6473 PUSH1 0xA8 SHL PUSH1 0x64 DUP3 ADD MSTORE PUSH1 0x84 ADD PUSH2 0xE0D JUMP JUMPDEST POP PUSH1 0x1 PUSH1 0x1 PUSH1 0xA0 SHL SUB SWAP2 SWAP1 SWAP2 AND PUSH1 0x0 SWAP1 DUP2 MSTORE PUSH1 0x10 PUSH1 0x20 SWAP1 DUP2 MSTORE PUSH1 0x40 DUP1 DUP4 KECCAK256 SWAP4 DUP4 MSTORE SWAP3 SWAP1 MSTORE KECCAK256 SLOAD SWAP1 JUMP JUMPDEST PUSH1 0x0 PUSH2 0x11FF DUP2 PUSH2 0x2C77 JUMP JUMPDEST PUSH1 0x0 DUP6 DUP2 MSTORE PUSH1 0x19 PUSH1 0x20 SWAP1 DUP2 MSTORE PUSH1 0x40 DUP1 DUP4 KECCAK256 PUSH1 0x1 PUSH1 0x1 PUSH1 0x60 SHL SUB DUP9 AND DUP1 DUP6 MSTORE SWAP1 DUP4 MSTORE SWAP3 DUP2 SWAP1 KECCAK256 PUSH1 0x1 DUP2 ADD DUP1 SLOAD PUSH1 0xFF NOT AND DUP8 ISZERO ISZERO SWAP1 DUP2 OR SWAP1 SWAP2 SSTORE SWAP1 DUP8 SWAP1 SSTORE SWAP1 MLOAD SWAP1 DUP2 MSTORE DUP6 SWAP3 SWAP2 DUP9 SWAP2 PUSH32 0x58F305C686EBBF6D0C690803BBDE56D59BD8B9D1FA4A2E92381141D46E0E8907 SWAP2 ADD PUSH1 0x40 MLOAD DUP1 SWAP2 SUB SWAP1 LOG4 POP POP POP POP POP JUMP JUMPDEST PUSH1 0x1 PUSH1 0x1 PUSH1 0xA0 SHL SUB DUP2 AND CALLER EQ PUSH2 0x12E7 JUMPI PUSH1 0x40 MLOAD PUSH3 0x461BCD PUSH1 0xE5 SHL DUP2 MSTORE PUSH1 0x20 PUSH1 0x4 DUP3 ADD MSTORE PUSH1 0x2F PUSH1 0x24 DUP3 ADD MSTORE PUSH32 0x416363657373436F6E74726F6C3A2063616E206F6E6C792072656E6F756E6365 PUSH1 0x44 DUP3 ADD MSTORE PUSH15 0x103937B632B9903337B91039B2B633 PUSH1 0x89 SHL PUSH1 0x64 DUP3 ADD MSTORE PUSH1 0x84 ADD PUSH2 0xE0D JUMP JUMPDEST PUSH2 0x12F1 DUP3 DUP3 PUSH2 0x2F00 JUMP JUMPDEST POP POP JUMP JUMPDEST PUSH1 0x0 DUP9 DUP2 MSTORE PUSH1 0x3 PUSH1 0x20 SWAP1 DUP2 MSTORE PUSH1 0x40 DUP1 DUP4 KECCAK256 SLOAD PUSH1 0x6 SWAP1 SWAP3 MSTORE SWAP1 SWAP2 KECCAK256 SLOAD DUP10 SWAP2 DUP9 SWAP2 DUP9 SWAP2 SWAP1 PUSH1 0xFF AND PUSH2 0x1336 JUMPI PUSH1 0x40 MLOAD PUSH3 0x461BCD PUSH1 0xE5 SHL DUP2 MSTORE PUSH1 0x4 ADD PUSH2 0xE0D SWAP1 PUSH2 0x4F4C JUMP JUMPDEST PUSH1 0x0 DUP4 PUSH1 0x1 PUSH1 0x1 PUSH1 0x40 SHL SUB AND GT PUSH2 0x135F JUMPI PUSH1 0x40 MLOAD PUSH3 0x461BCD PUSH1 0xE5 SHL DUP2 MSTORE PUSH1 0x4 ADD PUSH2 0xE0D SWAP1 PUSH2 0x4F75 JUMP JUMPDEST PUSH1 0x0 DUP2 GT PUSH2 0x136E JUMPI PUSH1 0x1 PUSH2 0x1395 JUMP JUMPDEST PUSH1 0x0 DUP5 DUP2 MSTORE PUSH1 0x2 PUSH1 0x20 MSTORE PUSH1 0x40 SWAP1 KECCAK256 SLOAD DUP2 SWAP1 PUSH2 0x1392 SWAP1 PUSH1 0x1 PUSH1 0x1 PUSH1 0x40 SHL SUB DUP7 AND PUSH2 0x2F67 JUMP JUMPDEST GT ISZERO JUMPDEST PUSH2 0x13B1 JUMPI PUSH1 0x40 MLOAD PUSH3 0x461BCD PUSH1 0xE5 SHL DUP2 MSTORE PUSH1 0x4 ADD PUSH2 0xE0D SWAP1 PUSH2 0x4F9C JUMP JUMPDEST PUSH1 0x0 DUP5 DUP2 MSTORE PUSH1 0x4 PUSH1 0x20 MSTORE PUSH1 0x40 SWAP1 KECCAK256 SLOAD PUSH1 0x1 PUSH1 0x1 PUSH1 0x40 SHL SUB DUP5 AND GT ISZERO PUSH2 0x13E8 JUMPI PUSH1 0x40 MLOAD PUSH3 0x461BCD PUSH1 0xE5 SHL DUP2 MSTORE PUSH1 0x4 ADD PUSH2 0xE0D SWAP1 PUSH2 0x4FC9 JUMP JUMPDEST PUSH1 0x0 DUP5 DUP2 MSTORE PUSH1 0x5 PUSH1 0x20 SWAP1 DUP2 MSTORE PUSH1 0x40 DUP1 DUP4 KECCAK256 SLOAD PUSH1 0x1 DUP4 MSTORE DUP2 DUP5 KECCAK256 PUSH1 0x1 PUSH1 0x1 PUSH1 0xA0 SHL SUB DUP8 AND DUP6 MSTORE SWAP1 SWAP3 MSTORE SWAP1 SWAP2 KECCAK256 SLOAD PUSH2 0x1427 SWAP1 PUSH1 0x1 PUSH1 0x1 PUSH1 0x40 SHL SUB DUP7 AND PUSH2 0x2F67 JUMP JUMPDEST GT ISZERO PUSH2 0x1445 JUMPI PUSH1 0x40 MLOAD PUSH3 0x461BCD PUSH1 0xE5 SHL DUP2 MSTORE PUSH1 0x4 ADD PUSH2 0xE0D SWAP1 PUSH2 0x4FF8 JUMP JUMPDEST PUSH1 0x0 DUP13 DUP2 MSTORE PUSH1 0x7 PUSH1 0x20 MSTORE PUSH1 0x40 SWAP1 KECCAK256 SLOAD PUSH1 0xFF AND PUSH2 0x1498 JUMPI PUSH1 0x40 MLOAD PUSH3 0x461BCD PUSH1 0xE5 SHL DUP2 MSTORE PUSH1 0x20 PUSH1 0x4 DUP3 ADD MSTORE PUSH1 0x12 PUSH1 0x24 DUP3 ADD MSTORE PUSH18 0x50726573616C65206E6F7420616374697665 PUSH1 0x70 SHL PUSH1 0x44 DUP3 ADD MSTORE PUSH1 0x64 ADD PUSH2 0xE0D JUMP JUMPDEST PUSH2 0x14A5 DUP13 DUP10 DUP10 DUP10 DUP10 PUSH2 0x2F73 JUMP JUMPDEST PUSH2 0x14B1 DUP13 DUP13 DUP12 DUP14 PUSH2 0x315D JUMP JUMPDEST DUP7 DUP12 PUSH1 0x1 PUSH1 0x1 PUSH1 0x60 SHL SUB AND DUP14 PUSH32 0xA8230C372EB3D29A6DA2E4DBE072E3F7411066608B72AC4FD5CEF851A55F5611 PUSH1 0x40 MLOAD PUSH1 0x40 MLOAD DUP1 SWAP2 SUB SWAP1 LOG4 POP POP POP POP POP POP POP POP POP POP POP POP JUMP JUMPDEST PUSH1 0x0 DUP1 PUSH2 0x1503 DUP4 PUSH2 0x2752 JUMP JUMPDEST SWAP1 POP PUSH1 0x1 PUSH1 0x1 PUSH1 0x60 SHL SUB DUP2 AND PUSH2 0x151C JUMPI POP PUSH1 0x5 SWAP3 SWAP2 POP POP JUMP JUMPDEST DUP1 PUSH1 0x1 PUSH1 0x1 PUSH1 0x60 SHL SUB AND PUSH1 0xFA EQ ISZERO PUSH2 0x1537 JUMPI POP PUSH1 0x3 SWAP3 SWAP2 POP POP JUMP JUMPDEST POP PUSH1 0x2 SWAP3 SWAP2 POP POP JUMP JUMPDEST PUSH1 0x0 PUSH2 0x154B DUP2 PUSH2 0x2C77 JUMP JUMPDEST PUSH1 0x0 SELFBALANCE GT PUSH2 0x1587 JUMPI PUSH1 0x40 MLOAD PUSH3 0x461BCD PUSH1 0xE5 SHL DUP2 MSTORE PUSH1 0x20 PUSH1 0x4 DUP3 ADD MSTORE PUSH1 0x9 PUSH1 0x24 DUP3 ADD MSTORE PUSH9 0x302062616C616E6365 PUSH1 0xB8 SHL PUSH1 0x44 DUP3 ADD MSTORE PUSH1 0x64 ADD PUSH2 0xE0D JUMP JUMPDEST PUSH1 0x15 SLOAD SELFBALANCE SWAP1 PUSH2 0x12F1 SWAP1 PUSH1 0x1 PUSH1 0x60 SHL SWAP1 DIV PUSH1 0x1 PUSH1 0x1 PUSH1 0xA0 SHL SUB AND DUP3 PUSH2 0x323D JUMP JUMPDEST PUSH2 0xEAE DUP4 DUP4 DUP4 PUSH1 0x40 MLOAD DUP1 PUSH1 0x20 ADD PUSH1 0x40 MSTORE DUP1 PUSH1 0x0 DUP2 MSTORE POP PUSH2 0x26B4 JUMP JUMPDEST PUSH1 0x0 DUP2 DUP2 MSTORE PUSH1 0x1C PUSH1 0x20 MSTORE PUSH1 0x40 DUP2 KECCAK256 PUSH2 0xCD9 SWAP1 PUSH2 0x2E70 JUMP JUMPDEST CALLER PUSH2 0x15E2 DUP3 PUSH2 0x1AB3 JUMP JUMPDEST PUSH1 0x1 PUSH1 0x1 PUSH1 0xA0 SHL SUB AND EQ PUSH2 0x1608 JUMPI PUSH1 0x40 MLOAD PUSH3 0x461BCD PUSH1 0xE5 SHL DUP2 MSTORE PUSH1 0x4 ADD PUSH2 0xE0D SWAP1 PUSH2 0x4EFA JUMP JUMPDEST PUSH1 0x0 DUP2 DUP2 MSTORE PUSH1 0x1A PUSH1 0x20 MSTORE PUSH1 0x40 SWAP1 KECCAK256 SLOAD PUSH1 0x1 PUSH1 0x1 PUSH1 0xA0 SHL SUB AND ISZERO PUSH2 0x166D JUMPI PUSH1 0x40 MLOAD PUSH3 0x461BCD PUSH1 0xE5 SHL DUP2 MSTORE PUSH1 0x20 PUSH1 0x4 DUP3 ADD MSTORE PUSH1 0x17 PUSH1 0x24 DUP3 ADD MSTORE PUSH32 0x546F6B656E20616C726561647920616374697661746564000000000000000000 PUSH1 0x44 DUP3 ADD MSTORE PUSH1 0x64 ADD PUSH2 0xE0D JUMP JUMPDEST CALLER PUSH1 0x0 SWAP1 DUP2 MSTORE PUSH1 0x1B PUSH1 0x20 MSTORE PUSH1 0x40 SWAP1 KECCAK256 SLOAD ISZERO PUSH2 0x16CA JUMPI PUSH1 0x40 MLOAD PUSH3 0x461BCD PUSH1 0xE5 SHL DUP2 MSTORE PUSH1 0x20 PUSH1 0x4 DUP3 ADD MSTORE PUSH1 0x17 PUSH1 0x24 DUP3 ADD MSTORE PUSH32 0x4F776E657220616C726561647920616374697661746564000000000000000000 PUSH1 0x44 DUP3 ADD MSTORE PUSH1 0x64 ADD PUSH2 0xE0D JUMP JUMPDEST CALLER PUSH1 0x0 SWAP1 DUP2 MSTORE PUSH1 0x1D PUSH1 0x20 MSTORE PUSH1 0x40 SWAP1 KECCAK256 PUSH1 0x1 ADD SLOAD PUSH1 0xFF AND ISZERO PUSH2 0x1726 JUMPI PUSH1 0x40 MLOAD PUSH3 0x461BCD PUSH1 0xE5 SHL DUP2 MSTORE PUSH1 0x20 PUSH1 0x4 DUP3 ADD MSTORE PUSH1 0x16 PUSH1 0x24 DUP3 ADD MSTORE PUSH22 0x4D656D626572206F6620616E6F746865722070617373 PUSH1 0x50 SHL PUSH1 0x44 DUP3 ADD MSTORE PUSH1 0x64 ADD PUSH2 0xE0D JUMP JUMPDEST PUSH1 0x0 DUP2 DUP2 MSTORE PUSH1 0x1A PUSH1 0x20 SWAP1 DUP2 MSTORE PUSH1 0x40 DUP1 DUP4 KECCAK256 DUP1 SLOAD PUSH1 0x1 PUSH1 0x1 PUSH1 0xA0 SHL SUB NOT AND CALLER SWAP1 DUP2 OR SWAP1 SWAP2 SSTORE DUP1 DUP5 MSTORE PUSH1 0x1B SWAP1 SWAP3 MSTORE DUP1 DUP4 KECCAK256 DUP5 SWAP1 SSTORE MLOAD SWAP1 SWAP2 DUP4 SWAP2 PUSH32 0xD4AE292DA4C1B97C2B8A3A8A4D7788A389D5F06E6FBAE5C9BFC42235964A1F0A SWAP2 SWAP1 LOG3 POP JUMP JUMPDEST PUSH1 0x0 DUP3 DUP2 MSTORE PUSH1 0x8 PUSH1 0x20 SWAP1 DUP2 MSTORE PUSH1 0x40 DUP1 DUP4 KECCAK256 DUP5 DUP5 MSTORE SWAP1 SWAP2 MSTORE DUP2 KECCAK256 SLOAD PUSH1 0xFF AND JUMPDEST SWAP4 SWAP3 POP POP POP JUMP JUMPDEST PUSH1 0x0 DUP4 DUP2 MSTORE PUSH1 0x1A PUSH1 0x20 MSTORE PUSH1 0x40 SWAP1 KECCAK256 SLOAD DUP2 SWAP1 PUSH1 0x1 PUSH1 0x1 PUSH1 0xA0 SHL SUB AND CALLER EQ PUSH2 0x17E1 JUMPI PUSH1 0x40 MLOAD PUSH3 0x461BCD PUSH1 0xE5 SHL DUP2 MSTORE PUSH1 0x4 ADD PUSH2 0xE0D SWAP1 PUSH2 0x4F1F JUMP JUMPDEST PUSH1 0x0 DUP5 DUP2 MSTORE PUSH1 0x1C PUSH1 0x20 MSTORE PUSH1 0x40 SWAP1 KECCAK256 DUP2 SWAP1 PUSH2 0x17FA SWAP1 PUSH2 0x2E70 JUMP JUMPDEST PUSH2 0x1804 SWAP2 SWAP1 PUSH2 0x5045 JUMP JUMPDEST PUSH2 0x180D DUP6 PUSH2 0x14F7 JUMP JUMPDEST PUSH1 0x1 PUSH1 0x1 PUSH1 0x60 SHL SUB AND LT ISZERO PUSH2 0x1864 JUMPI PUSH1 0x40 MLOAD PUSH3 0x461BCD PUSH1 0xE5 SHL DUP2 MSTORE PUSH1 0x20 PUSH1 0x4 DUP3 ADD MSTORE PUSH1 0x17 PUSH1 0x24 DUP3 ADD MSTORE PUSH32 0x52656163686564204D6178696D756D204D656D62657273000000000000000000 PUSH1 0x44 DUP3 ADD MSTORE PUSH1 0x64 ADD PUSH2 0xE0D JUMP JUMPDEST PUSH1 0x0 JUMPDEST DUP2 DUP2 PUSH1 0x1 PUSH1 0x1 PUSH1 0x40 SHL SUB AND LT ISZERO PUSH2 0x18B9 JUMPI PUSH2 0x18B1 DUP6 DUP6 DUP6 DUP5 PUSH1 0x1 PUSH1 0x1 PUSH1 0x40 SHL SUB AND DUP2 DUP2 LT PUSH2 0x1897 JUMPI PUSH2 0x1897 PUSH2 0x505D JUMP JUMPDEST SWAP1 POP PUSH1 0x20 MUL ADD PUSH1 0x20 DUP2 ADD SWAP1 PUSH2 0x18AC SWAP2 SWAP1 PUSH2 0x4AC3 JUMP JUMPDEST PUSH2 0x3356 JUMP JUMPDEST PUSH1 0x1 ADD PUSH2 0x1867 JUMP JUMPDEST POP POP POP POP POP JUMP JUMPDEST PUSH1 0x0 PUSH2 0x18CB PUSH1 0x12 SLOAD SWAP1 JUMP JUMPDEST DUP3 LT PUSH2 0x192E JUMPI PUSH1 0x40 MLOAD PUSH3 0x461BCD PUSH1 0xE5 SHL DUP2 MSTORE PUSH1 0x20 PUSH1 0x4 DUP3 ADD MSTORE PUSH1 0x2C PUSH1 0x24 DUP3 ADD MSTORE PUSH32 0x455243373231456E756D657261626C653A20676C6F62616C20696E646578206F PUSH1 0x44 DUP3 ADD MSTORE PUSH12 0x7574206F6620626F756E6473 PUSH1 0xA0 SHL PUSH1 0x64 DUP3 ADD MSTORE PUSH1 0x84 ADD PUSH2 0xE0D JUMP JUMPDEST PUSH1 0x12 DUP3 DUP2 SLOAD DUP2 LT PUSH2 0x1941 JUMPI PUSH2 0x1941 PUSH2 0x505D JUMP JUMPDEST SWAP1 PUSH1 0x0 MSTORE PUSH1 0x20 PUSH1 0x0 KECCAK256 ADD SLOAD SWAP1 POP SWAP2 SWAP1 POP JUMP JUMPDEST PUSH1 0x0 DUP2 DUP2 MSTORE PUSH1 0x1A PUSH1 0x20 MSTORE PUSH1 0x40 SWAP1 KECCAK256 SLOAD PUSH1 0x1 PUSH1 0x1 PUSH1 0xA0 SHL SUB AND CALLER EQ PUSH2 0x1989 JUMPI PUSH1 0x40 MLOAD PUSH3 0x461BCD PUSH1 0xE5 SHL DUP2 MSTORE PUSH1 0x4 ADD PUSH2 0xE0D SWAP1 PUSH2 0x4F1F JUMP JUMPDEST CALLER PUSH1 0x0 SWAP1 DUP2 MSTORE PUSH1 0x1B PUSH1 0x20 MSTORE PUSH1 0x40 SWAP1 KECCAK256 SLOAD DUP2 EQ PUSH2 0x19DD JUMPI PUSH1 0x40 MLOAD PUSH3 0x461BCD PUSH1 0xE5 SHL DUP2 MSTORE PUSH1 0x20 PUSH1 0x4 DUP3 ADD MSTORE PUSH1 0x13 PUSH1 0x24 DUP3 ADD MSTORE PUSH19 0x13DDDB995C881B9BDD081858DD1A5D985D1959 PUSH1 0x6A SHL PUSH1 0x44 DUP3 ADD MSTORE PUSH1 0x64 ADD PUSH2 0xE0D JUMP JUMPDEST PUSH1 0x0 DUP2 DUP2 MSTORE PUSH1 0x1C PUSH1 0x20 MSTORE PUSH1 0x40 SWAP1 KECCAK256 PUSH2 0x19F4 SWAP1 PUSH2 0x2E70 JUMP JUMPDEST ISZERO PUSH2 0x1A3B JUMPI PUSH1 0x40 MLOAD PUSH3 0x461BCD PUSH1 0xE5 SHL DUP2 MSTORE PUSH1 0x20 PUSH1 0x4 DUP3 ADD MSTORE PUSH1 0x17 PUSH1 0x24 DUP3 ADD MSTORE PUSH23 0x13595B58995C9CC81CDD1A5B1B081858DD1A5D985D1959 PUSH1 0x4A SHL PUSH1 0x44 DUP3 ADD MSTORE PUSH1 0x64 ADD PUSH2 0xE0D JUMP JUMPDEST PUSH1 0x0 DUP2 DUP2 MSTORE PUSH1 0x1A PUSH1 0x20 SWAP1 DUP2 MSTORE PUSH1 0x40 DUP1 DUP4 KECCAK256 DUP1 SLOAD PUSH1 0x1 PUSH1 0x1 PUSH1 0xA0 SHL SUB NOT AND SWAP1 SSTORE CALLER DUP1 DUP5 MSTORE PUSH1 0x1B SWAP1 SWAP3 MSTORE DUP1 DUP4 KECCAK256 DUP4 SWAP1 SSTORE MLOAD SWAP1 SWAP2 DUP4 SWAP2 PUSH32 0xD99429F557CA87DF7FFEFE25AE8DE8FEABEABD528CC646FF1C14534F857F6BD2 SWAP2 SWAP1 LOG3 POP JUMP JUMPDEST PUSH1 0x0 PUSH2 0x1AA0 DUP2 PUSH2 0x2C77 JUMP JUMPDEST DUP2 MLOAD PUSH2 0xEAE SWAP1 PUSH1 0x16 SWAP1 PUSH1 0x20 DUP6 ADD SWAP1 PUSH2 0x45FD JUMP JUMPDEST PUSH1 0x0 DUP2 DUP2 MSTORE PUSH1 0xC PUSH1 0x20 MSTORE PUSH1 0x40 DUP2 KECCAK256 SLOAD PUSH1 0x1 PUSH1 0x1 PUSH1 0xA0 SHL SUB AND DUP1 PUSH2 0xCD9 JUMPI PUSH1 0x40 MLOAD PUSH3 0x461BCD PUSH1 0xE5 SHL DUP2 MSTORE PUSH1 0x20 PUSH1 0x4 DUP3 ADD MSTORE PUSH1 0x18 PUSH1 0x24 DUP3 ADD MSTORE PUSH24 0x115490CDCC8C4E881A5B9D985B1A59081D1BDAD95B881251 PUSH1 0x42 SHL PUSH1 0x44 DUP3 ADD MSTORE PUSH1 0x64 ADD PUSH2 0xE0D JUMP JUMPDEST PUSH1 0x0 DUP4 DUP2 MSTORE PUSH1 0x17 PUSH1 0x20 MSTORE PUSH1 0x40 DUP2 KECCAK256 SLOAD SWAP1 PUSH2 0x1B2C DUP6 PUSH2 0x2752 JUMP JUMPDEST PUSH1 0x0 DUP4 DUP2 MSTORE PUSH1 0x1E PUSH1 0x20 SWAP1 DUP2 MSTORE PUSH1 0x40 DUP1 DUP4 KECCAK256 PUSH1 0x1 PUSH1 0x1 PUSH1 0x60 SHL SUB DUP6 DUP2 AND DUP6 MSTORE SWAP1 DUP4 MSTORE DUP2 DUP5 KECCAK256 DUP10 DUP6 MSTORE DUP4 MSTORE DUP2 DUP5 KECCAK256 SWAP1 DUP9 AND DUP5 MSTORE DUP3 MSTORE SWAP2 DUP3 SWAP1 KECCAK256 DUP3 MLOAD DUP1 DUP5 ADD SWAP1 SWAP4 MSTORE DUP1 SLOAD DUP4 MSTORE PUSH1 0x1 ADD SLOAD PUSH1 0xFF AND ISZERO ISZERO SWAP1 DUP3 ADD MSTORE SWAP1 SWAP2 POP CALLER PUSH2 0x1B89 DUP8 PUSH2 0x1AB3 JUMP JUMPDEST PUSH1 0x1 PUSH1 0x1 PUSH1 0xA0 SHL SUB AND EQ PUSH2 0x1BAF JUMPI PUSH1 0x40 MLOAD PUSH3 0x461BCD PUSH1 0xE5 SHL DUP2 MSTORE PUSH1 0x4 ADD PUSH2 0xE0D SWAP1 PUSH2 0x4EFA JUMP JUMPDEST DUP1 PUSH1 0x20 ADD MLOAD PUSH2 0x1BF7 JUMPI PUSH1 0x40 MLOAD PUSH3 0x461BCD PUSH1 0xE5 SHL DUP2 MSTORE PUSH1 0x20 PUSH1 0x4 DUP3 ADD MSTORE PUSH1 0x14 PUSH1 0x24 DUP3 ADD MSTORE PUSH20 0x55706772616465206E6F7420656C696769626C65 PUSH1 0x60 SHL PUSH1 0x44 DUP3 ADD MSTORE PUSH1 0x64 ADD PUSH2 0xE0D JUMP JUMPDEST DUP1 MLOAD CALLVALUE LT ISZERO PUSH2 0x1C38 JUMPI PUSH1 0x40 MLOAD PUSH3 0x461BCD PUSH1 0xE5 SHL DUP2 MSTORE PUSH1 0x20 PUSH1 0x4 DUP3 ADD MSTORE PUSH1 0xD PUSH1 0x24 DUP3 ADD MSTORE PUSH13 0x496E76616C6964205072696365 PUSH1 0x98 SHL PUSH1 0x44 DUP3 ADD MSTORE PUSH1 0x64 ADD PUSH2 0xE0D JUMP JUMPDEST PUSH1 0x40 DUP1 MLOAD DUP1 DUP3 ADD DUP3 MSTORE PUSH1 0x0 DUP1 DUP3 MSTORE PUSH1 0x20 SWAP2 DUP3 ADD MSTORE DUP2 MLOAD DUP1 DUP4 ADD SWAP1 SWAP3 MSTORE PUSH1 0x1 PUSH1 0x1 PUSH1 0x60 SHL SUB DUP7 AND DUP3 MSTORE PUSH1 0x1 SWAP1 DUP3 ADD MSTORE PUSH1 0x0 DUP8 DUP2 MSTORE PUSH1 0x18 PUSH1 0x20 SWAP1 DUP2 MSTORE PUSH1 0x40 DUP1 DUP4 KECCAK256 DUP5 MLOAD DUP2 SLOAD SWAP6 DUP5 ADD MLOAD ISZERO ISZERO PUSH1 0x1 PUSH1 0x60 SHL MUL PUSH13 0xFFFFFFFFFFFFFFFFFFFFFFFFFF NOT SWAP1 SWAP7 AND PUSH1 0x1 PUSH1 0x1 PUSH1 0x60 SHL SUB SWAP2 DUP3 AND OR SWAP6 SWAP1 SWAP6 OR SWAP1 SSTORE PUSH1 0x17 SWAP1 SWAP2 MSTORE DUP1 DUP3 KECCAK256 DUP9 SWAP1 SSTORE MLOAD SWAP2 DUP7 AND SWAP2 DUP8 SWAP2 DUP10 SWAP2 PUSH32 0x429979EEC1F3F5CD99BCD94CD181457A670E7309CD1A8DE2120CDA426AEC174C SWAP2 SWAP1 LOG4 POP POP POP POP POP POP JUMP JUMPDEST PUSH1 0x0 PUSH2 0x1CF6 DUP2 PUSH2 0x2C77 JUMP JUMPDEST PUSH1 0x9 DUP1 SLOAD PUSH1 0x1 PUSH1 0x1 PUSH1 0xA0 SHL SUB NOT AND PUSH1 0x1 PUSH1 0x1 PUSH1 0xA0 SHL SUB DUP5 AND OR SWAP1 SSTORE POP POP JUMP JUMPDEST PUSH1 0x0 PUSH2 0x1D20 DUP2 PUSH2 0x2C77 JUMP JUMPDEST DUP4 DUP3 EQ PUSH2 0x1D6F JUMPI PUSH1 0x40 MLOAD PUSH3 0x461BCD PUSH1 0xE5 SHL DUP2 MSTORE PUSH1 0x20 PUSH1 0x4 DUP3 ADD MSTORE PUSH1 0x1C PUSH1 0x24 DUP3 ADD MSTORE PUSH32 0x496E76616C6964206E756D626572206F6620726563697069656E747300000000 PUSH1 0x44 DUP3 ADD MSTORE PUSH1 0x64 ADD PUSH2 0xE0D JUMP JUMPDEST DUP4 PUSH1 0x0 JUMPDEST DUP2 DUP2 LT ISZERO PUSH2 0x1E4C JUMPI PUSH1 0x0 DUP9 DUP2 MSTORE PUSH1 0x19 PUSH1 0x20 MSTORE PUSH1 0x40 DUP2 KECCAK256 SWAP1 DUP7 DUP7 DUP5 DUP2 DUP2 LT PUSH2 0x1D9C JUMPI PUSH2 0x1D9C PUSH2 0x505D JUMP JUMPDEST SWAP1 POP PUSH1 0x20 MUL ADD PUSH1 0x20 DUP2 ADD SWAP1 PUSH2 0x1DB1 SWAP2 SWAP1 PUSH2 0x4B8C JUMP JUMPDEST PUSH1 0x1 PUSH1 0x1 PUSH1 0x60 SHL SUB AND DUP2 MSTORE PUSH1 0x20 DUP2 ADD SWAP2 SWAP1 SWAP2 MSTORE PUSH1 0x40 ADD PUSH1 0x0 KECCAK256 PUSH1 0x1 ADD SLOAD PUSH1 0xFF AND PUSH2 0x1DED JUMPI PUSH1 0x40 MLOAD PUSH3 0x461BCD PUSH1 0xE5 SHL DUP2 MSTORE PUSH1 0x4 ADD PUSH2 0xE0D SWAP1 PUSH2 0x5073 JUMP JUMPDEST PUSH2 0x1E44 DUP9 DUP7 DUP7 DUP5 DUP2 DUP2 LT PUSH2 0x1E03 JUMPI PUSH2 0x1E03 PUSH2 0x505D JUMP JUMPDEST SWAP1 POP PUSH1 0x20 MUL ADD PUSH1 0x20 DUP2 ADD SWAP1 PUSH2 0x1E18 SWAP2 SWAP1 PUSH2 0x4B8C JUMP JUMPDEST DUP10 DUP10 DUP6 DUP2 DUP2 LT PUSH2 0x1E2A JUMPI PUSH2 0x1E2A PUSH2 0x505D JUMP JUMPDEST SWAP1 POP PUSH1 0x20 MUL ADD PUSH1 0x20 DUP2 ADD SWAP1 PUSH2 0x1E3F SWAP2 SWAP1 PUSH2 0x4AC3 JUMP JUMPDEST PUSH2 0x3490 JUMP JUMPDEST PUSH1 0x1 ADD PUSH2 0x1D73 JUMP JUMPDEST POP POP POP POP POP POP POP POP JUMP JUMPDEST PUSH1 0x0 PUSH1 0x1 PUSH1 0x1 PUSH1 0xA0 SHL SUB DUP3 AND PUSH2 0x1EC0 JUMPI PUSH1 0x40 MLOAD PUSH3 0x461BCD PUSH1 0xE5 SHL DUP2 MSTORE PUSH1 0x20 PUSH1 0x4 DUP3 ADD MSTORE PUSH1 0x29 PUSH1 0x24 DUP3 ADD MSTORE PUSH32 0x4552433732313A2061646472657373207A65726F206973206E6F742061207661 PUSH1 0x44 DUP3 ADD MSTORE PUSH9 0x3634B21037BBB732B9 PUSH1 0xB9 SHL PUSH1 0x64 DUP3 ADD MSTORE PUSH1 0x84 ADD PUSH2 0xE0D JUMP JUMPDEST POP PUSH1 0x1 PUSH1 0x1 PUSH1 0xA0 SHL SUB AND PUSH1 0x0 SWAP1 DUP2 MSTORE PUSH1 0xD PUSH1 0x20 MSTORE PUSH1 0x40 SWAP1 KECCAK256 SLOAD SWAP1 JUMP JUMPDEST PUSH1 0x0 PUSH2 0x1EE7 DUP2 PUSH2 0x2C77 JUMP JUMPDEST POP PUSH1 0x15 DUP1 SLOAD PUSH12 0xFFFFFFFFFFFFFFFFFFFFFFFF NOT AND PUSH1 0x1 PUSH1 0x1 PUSH1 0x60 SHL SUB SWAP3 SWAP1 SWAP3 AND SWAP2 SWAP1 SWAP2 OR SWAP1 SSTORE JUMP JUMPDEST PUSH1 0x0 DUP2 DUP2 MSTORE PUSH1 0x1A PUSH1 0x20 MSTORE PUSH1 0x40 SWAP1 KECCAK256 SLOAD PUSH1 0x1 PUSH1 0x1 PUSH1 0xA0 SHL SUB AND PUSH2 0x1F43 JUMPI PUSH1 0x40 MLOAD PUSH3 0x461BCD PUSH1 0xE5 SHL DUP2 MSTORE PUSH1 0x4 ADD PUSH2 0xE0D SWAP1 PUSH2 0x4F1F JUMP JUMPDEST PUSH2 0x1F52 DUP2 CALLER PUSH2 0x3555 JUMP JUMPDEST PUSH2 0x3555 JUMP JUMPDEST POP JUMP JUMPDEST PUSH1 0x0 PUSH2 0x1F60 DUP2 PUSH2 0x2C77 JUMP JUMPDEST PUSH1 0x0 DUP7 DUP2 MSTORE PUSH1 0x6 PUSH1 0x20 MSTORE PUSH1 0x40 SWAP1 KECCAK256 SLOAD PUSH1 0xFF AND ISZERO PUSH2 0x1FB5 JUMPI PUSH1 0x40 MLOAD PUSH3 0x461BCD PUSH1 0xE5 SHL DUP2 MSTORE PUSH1 0x20 PUSH1 0x4 DUP3 ADD MSTORE PUSH1 0x13 PUSH1 0x24 DUP3 ADD MSTORE PUSH19 0x53616C6520616C726561647920616374697665 PUSH1 0x68 SHL PUSH1 0x44 DUP3 ADD MSTORE PUSH1 0x64 ADD PUSH2 0xE0D JUMP JUMPDEST PUSH1 0x0 DUP7 DUP2 MSTORE PUSH1 0x6 PUSH1 0x20 SWAP1 DUP2 MSTORE PUSH1 0x40 DUP1 DUP4 KECCAK256 DUP1 SLOAD PUSH1 0x1 PUSH1 0xFF NOT SWAP2 DUP3 AND OR SWAP1 SWAP2 SSTORE PUSH1 0x3 DUP4 MSTORE DUP2 DUP5 KECCAK256 DUP10 SWAP1 SSTORE PUSH1 0x5 DUP4 MSTORE DUP2 DUP5 KECCAK256 DUP9 SWAP1 SSTORE PUSH1 0x4 DUP4 MSTORE DUP2 DUP5 KECCAK256 DUP8 SWAP1 SSTORE PUSH1 0x7 SWAP1 SWAP3 MSTORE SWAP1 SWAP2 KECCAK256 DUP1 SLOAD SWAP1 SWAP2 AND DUP4 ISZERO ISZERO OR SWAP1 SSTORE PUSH1 0x40 DUP1 MLOAD DUP7 DUP2 MSTORE PUSH1 0x20 DUP2 ADD DUP7 SWAP1 MSTORE SWAP1 DUP2 ADD DUP5 SWAP1 MSTORE DUP3 ISZERO ISZERO PUSH1 0x60 DUP3 ADD MSTORE DUP7 SWAP1 PUSH32 0xAFB595B10A1EA4E6A7767173C9C6707891E7174118BEDB6BD7C28B4ECAD106FA SWAP1 PUSH1 0x80 ADD PUSH1 0x40 MLOAD DUP1 SWAP2 SUB SWAP1 LOG2 POP POP POP POP POP POP JUMP JUMPDEST PUSH1 0x0 DUP4 DUP2 MSTORE PUSH1 0x1A PUSH1 0x20 MSTORE PUSH1 0x40 SWAP1 KECCAK256 SLOAD DUP2 SWAP1 PUSH1 0x1 PUSH1 0x1 PUSH1 0xA0 SHL SUB AND CALLER EQ PUSH2 0x2090 JUMPI PUSH1 0x40 MLOAD PUSH3 0x461BCD PUSH1 0xE5 SHL DUP2 MSTORE PUSH1 0x4 ADD PUSH2 0xE0D SWAP1 PUSH2 0x4F1F JUMP JUMPDEST PUSH1 0x0 JUMPDEST DUP2 DUP2 PUSH1 0x1 PUSH1 0x1 PUSH1 0x40 SHL SUB AND LT ISZERO PUSH2 0x18B9 JUMPI PUSH2 0x20D8 DUP6 DUP6 DUP6 DUP5 PUSH1 0x1 PUSH1 0x1 PUSH1 0x40 SHL SUB AND DUP2 DUP2 LT PUSH2 0x20C3 JUMPI PUSH2 0x20C3 PUSH2 0x505D JUMP JUMPDEST SWAP1 POP PUSH1 0x20 MUL ADD PUSH1 0x20 DUP2 ADD SWAP1 PUSH2 0x1F4D SWAP2 SWAP1 PUSH2 0x4AC3 JUMP JUMPDEST PUSH1 0x1 ADD PUSH2 0x2093 JUMP JUMPDEST PUSH1 0x0 SWAP2 DUP3 MSTORE PUSH1 0x14 PUSH1 0x20 SWAP1 DUP2 MSTORE PUSH1 0x40 DUP1 DUP5 KECCAK256 PUSH1 0x1 PUSH1 0x1 PUSH1 0xA0 SHL SUB SWAP4 SWAP1 SWAP4 AND DUP5 MSTORE SWAP2 SWAP1 MSTORE SWAP1 KECCAK256 SLOAD PUSH1 0xFF AND SWAP1 JUMP JUMPDEST PUSH1 0x0 DUP8 DUP2 MSTORE PUSH1 0x3 PUSH1 0x20 SWAP1 DUP2 MSTORE PUSH1 0x40 DUP1 DUP4 KECCAK256 SLOAD PUSH1 0x6 SWAP1 SWAP3 MSTORE SWAP1 SWAP2 KECCAK256 SLOAD DUP9 SWAP2 DUP8 SWAP2 DUP7 SWAP2 SWAP1 PUSH1 0xFF AND PUSH2 0x214C JUMPI PUSH1 0x40 MLOAD PUSH3 0x461BCD PUSH1 0xE5 SHL DUP2 MSTORE PUSH1 0x4 ADD PUSH2 0xE0D SWAP1 PUSH2 0x4F4C JUMP JUMPDEST PUSH1 0x0 DUP4 PUSH1 0x1 PUSH1 0x1 PUSH1 0x40 SHL SUB AND GT PUSH2 0x2175 JUMPI PUSH1 0x40 MLOAD PUSH3 0x461BCD PUSH1 0xE5 SHL DUP2 MSTORE PUSH1 0x4 ADD PUSH2 0xE0D SWAP1 PUSH2 0x4F75 JUMP JUMPDEST PUSH1 0x0 DUP2 GT PUSH2 0x2184 JUMPI PUSH1 0x1 PUSH2 0x21AB JUMP JUMPDEST PUSH1 0x0 DUP5 DUP2 MSTORE PUSH1 0x2 PUSH1 0x20 MSTORE PUSH1 0x40 SWAP1 KECCAK256 SLOAD DUP2 SWAP1 PUSH2 0x21A8 SWAP1 PUSH1 0x1 PUSH1 0x1 PUSH1 0x40 SHL SUB DUP7 AND PUSH2 0x2F67 JUMP JUMPDEST GT ISZERO JUMPDEST PUSH2 0x21C7 JUMPI PUSH1 0x40 MLOAD PUSH3 0x461BCD PUSH1 0xE5 SHL DUP2 MSTORE PUSH1 0x4 ADD PUSH2 0xE0D SWAP1 PUSH2 0x4F9C JUMP JUMPDEST PUSH1 0x0 DUP5 DUP2 MSTORE PUSH1 0x4 PUSH1 0x20 MSTORE PUSH1 0x40 SWAP1 KECCAK256 SLOAD PUSH1 0x1 PUSH1 0x1 PUSH1 0x40 SHL SUB DUP5 AND GT ISZERO PUSH2 0x21FE JUMPI PUSH1 0x40 MLOAD PUSH3 0x461BCD PUSH1 0xE5 SHL DUP2 MSTORE PUSH1 0x4 ADD PUSH2 0xE0D SWAP1 PUSH2 0x4FC9 JUMP JUMPDEST PUSH1 0x0 DUP5 DUP2 MSTORE PUSH1 0x5 PUSH1 0x20 SWAP1 DUP2 MSTORE PUSH1 0x40 DUP1 DUP4 KECCAK256 SLOAD PUSH1 0x1 DUP4 MSTORE DUP2 DUP5 KECCAK256 PUSH1 0x1 PUSH1 0x1 PUSH1 0xA0 SHL SUB DUP8 AND DUP6 MSTORE SWAP1 SWAP3 MSTORE SWAP1 SWAP2 KECCAK256 SLOAD PUSH2 0x223D SWAP1 PUSH1 0x1 PUSH1 0x1 PUSH1 0x40 SHL SUB DUP7 AND PUSH2 0x2F67 JUMP JUMPDEST GT ISZERO PUSH2 0x225B JUMPI PUSH1 0x40 MLOAD PUSH3 0x461BCD PUSH1 0xE5 SHL DUP2 MSTORE PUSH1 0x4 ADD PUSH2 0xE0D SWAP1 PUSH2 0x4FF8 JUMP JUMPDEST PUSH1 0x0 DUP12 DUP2 MSTORE PUSH1 0x20 DUP2 DUP2 MSTORE PUSH1 0x40 DUP1 DUP4 KECCAK256 SLOAD PUSH1 0x7 SWAP1 SWAP3 MSTORE SWAP1 SWAP2 KECCAK256 SLOAD PUSH1 0xFF AND PUSH2 0x22B8 JUMPI PUSH1 0x40 MLOAD PUSH3 0x461BCD PUSH1 0xE5 SHL DUP2 MSTORE PUSH1 0x20 PUSH1 0x4 DUP3 ADD MSTORE PUSH1 0x12 PUSH1 0x24 DUP3 ADD MSTORE PUSH18 0x50726573616C65206E6F7420616374697665 PUSH1 0x70 SHL PUSH1 0x44 DUP3 ADD MSTORE PUSH1 0x64 ADD PUSH2 0xE0D JUMP JUMPDEST DUP1 PUSH2 0x22F7 JUMPI PUSH1 0x40 MLOAD PUSH3 0x461BCD PUSH1 0xE5 SHL DUP2 MSTORE PUSH1 0x20 PUSH1 0x4 DUP3 ADD MSTORE PUSH1 0xF PUSH1 0x24 DUP3 ADD MSTORE PUSH15 0x141C995CD85B19481B9BDD081CD95D PUSH1 0x8A SHL PUSH1 0x44 DUP3 ADD MSTORE PUSH1 0x64 ADD PUSH2 0xE0D JUMP JUMPDEST PUSH2 0x237E DUP8 DUP8 DUP1 DUP1 PUSH1 0x20 MUL PUSH1 0x20 ADD PUSH1 0x40 MLOAD SWAP1 DUP2 ADD PUSH1 0x40 MSTORE DUP1 SWAP4 SWAP3 SWAP2 SWAP1 DUP2 DUP2 MSTORE PUSH1 0x20 ADD DUP4 DUP4 PUSH1 0x20 MUL DUP1 DUP3 DUP5 CALLDATACOPY PUSH1 0x0 SWAP3 ADD SWAP2 SWAP1 SWAP2 MSTORE POP POP PUSH1 0x40 MLOAD PUSH12 0xFFFFFFFFFFFFFFFFFFFFFFFF NOT PUSH1 0x60 DUP15 SWAP1 SHL AND PUSH1 0x20 DUP3 ADD MSTORE PUSH1 0x1 PUSH1 0x1 PUSH1 0xC0 SHL SUB NOT PUSH1 0xC0 DUP16 SWAP1 SHL AND PUSH1 0x34 DUP3 ADD MSTORE DUP6 SWAP3 POP PUSH1 0x3C ADD SWAP1 POP PUSH1 0x40 MLOAD PUSH1 0x20 DUP2 DUP4 SUB SUB DUP2 MSTORE SWAP1 PUSH1 0x40 MSTORE DUP1 MLOAD SWAP1 PUSH1 0x20 ADD KECCAK256 PUSH2 0x3618 JUMP JUMPDEST PUSH2 0x23BC JUMPI PUSH1 0x40 MLOAD PUSH3 0x461BCD PUSH1 0xE5 SHL DUP2 MSTORE PUSH1 0x20 PUSH1 0x4 DUP3 ADD MSTORE PUSH1 0xF PUSH1 0x24 DUP3 ADD MSTORE PUSH15 0x141C995CD85B19481A5B9D985B1A59 PUSH1 0x8A SHL PUSH1 0x44 DUP3 ADD MSTORE PUSH1 0x64 ADD PUSH2 0xE0D JUMP JUMPDEST PUSH2 0x23C8 DUP13 DUP13 DUP11 DUP14 PUSH2 0x315D JUMP JUMPDEST PUSH1 0x40 MLOAD PUSH1 0x1 PUSH1 0x1 PUSH1 0x60 SHL SUB DUP13 AND SWAP1 DUP14 SWAP1 PUSH32 0xB9BA3CDA2CA5D3D8FAF8D0E09982DABBA09A516299D2B54D33BAA8F35434B14C SWAP1 PUSH1 0x0 SWAP1 LOG3 POP POP POP POP POP POP POP POP POP POP POP POP JUMP JUMPDEST PUSH1 0x60 PUSH1 0xB DUP1 SLOAD PUSH2 0xCEE SWAP1 PUSH2 0x4E72 JUMP JUMPDEST PUSH1 0x0 DUP5 DUP2 MSTORE PUSH1 0x1E PUSH1 0x20 SWAP1 DUP2 MSTORE PUSH1 0x40 DUP1 DUP4 KECCAK256 PUSH1 0x1 PUSH1 0x1 PUSH1 0x60 SHL SUB DUP1 DUP9 AND DUP6 MSTORE SWAP1 DUP4 MSTORE DUP2 DUP5 KECCAK256 DUP7 DUP6 MSTORE DUP4 MSTORE DUP2 DUP5 KECCAK256 SWAP1 DUP6 AND DUP5 MSTORE SWAP1 SWAP2 MSTORE SWAP1 KECCAK256 SLOAD JUMPDEST SWAP5 SWAP4 POP POP POP POP JUMP JUMPDEST PUSH1 0x0 DUP3 DUP2 MSTORE PUSH1 0x19 PUSH1 0x20 SWAP1 DUP2 MSTORE PUSH1 0x40 DUP1 DUP4 KECCAK256 PUSH1 0x1 PUSH1 0x1 PUSH1 0x60 SHL SUB DUP6 AND DUP5 MSTORE DUP3 MSTORE DUP1 DUP4 KECCAK256 DUP2 MLOAD DUP1 DUP4 ADD SWAP1 SWAP3 MSTORE DUP1 SLOAD DUP3 MSTORE PUSH1 0x1 ADD SLOAD PUSH1 0xFF AND ISZERO ISZERO SWAP2 DUP2 ADD DUP3 SWAP1 MSTORE SWAP1 PUSH2 0x24B5 JUMPI PUSH1 0x40 MLOAD PUSH3 0x461BCD PUSH1 0xE5 SHL DUP2 MSTORE PUSH1 0x4 ADD PUSH2 0xE0D SWAP1 PUSH2 0x5073 JUMP JUMPDEST MLOAD SWAP4 SWAP3 POP POP POP JUMP JUMPDEST PUSH1 0x0 DUP5 DUP2 MSTORE PUSH1 0x3 PUSH1 0x20 SWAP1 DUP2 MSTORE PUSH1 0x40 DUP1 DUP4 KECCAK256 SLOAD PUSH1 0x6 SWAP1 SWAP3 MSTORE SWAP1 SWAP2 KECCAK256 SLOAD DUP6 SWAP2 DUP5 SWAP2 DUP5 SWAP2 SWAP1 PUSH1 0xFF AND PUSH2 0x24FE JUMPI PUSH1 0x40 MLOAD PUSH3 0x461BCD PUSH1 0xE5 SHL DUP2 MSTORE PUSH1 0x4 ADD PUSH2 0xE0D SWAP1 PUSH2 0x4F4C JUMP JUMPDEST PUSH1 0x0 DUP4 PUSH1 0x1 PUSH1 0x1 PUSH1 0x40 SHL SUB AND GT PUSH2 0x2527 JUMPI PUSH1 0x40 MLOAD PUSH3 0x461BCD PUSH1 0xE5 SHL DUP2 MSTORE PUSH1 0x4 ADD PUSH2 0xE0D SWAP1 PUSH2 0x4F75 JUMP JUMPDEST PUSH1 0x0 DUP2 GT PUSH2 0x2536 JUMPI PUSH1 0x1 PUSH2 0x255D JUMP JUMPDEST PUSH1 0x0 DUP5 DUP2 MSTORE PUSH1 0x2 PUSH1 0x20 MSTORE PUSH1 0x40 SWAP1 KECCAK256 SLOAD DUP2 SWAP1 PUSH2 0x255A SWAP1 PUSH1 0x1 PUSH1 0x1 PUSH1 0x40 SHL SUB DUP7 AND PUSH2 0x2F67 JUMP JUMPDEST GT ISZERO JUMPDEST PUSH2 0x2579 JUMPI PUSH1 0x40 MLOAD PUSH3 0x461BCD PUSH1 0xE5 SHL DUP2 MSTORE PUSH1 0x4 ADD PUSH2 0xE0D SWAP1 PUSH2 0x4F9C JUMP JUMPDEST PUSH1 0x0 DUP5 DUP2 MSTORE PUSH1 0x4 PUSH1 0x20 MSTORE PUSH1 0x40 SWAP1 KECCAK256 SLOAD PUSH1 0x1 PUSH1 0x1 PUSH1 0x40 SHL SUB DUP5 AND GT ISZERO PUSH2 0x25B0 JUMPI PUSH1 0x40 MLOAD PUSH3 0x461BCD PUSH1 0xE5 SHL DUP2 MSTORE PUSH1 0x4 ADD PUSH2 0xE0D SWAP1 PUSH2 0x4FC9 JUMP JUMPDEST PUSH1 0x0 DUP5 DUP2 MSTORE PUSH1 0x5 PUSH1 0x20 SWAP1 DUP2 MSTORE PUSH1 0x40 DUP1 DUP4 KECCAK256 SLOAD PUSH1 0x1 DUP4 MSTORE DUP2 DUP5 KECCAK256 PUSH1 0x1 PUSH1 0x1 PUSH1 0xA0 SHL SUB DUP8 AND DUP6 MSTORE SWAP1 SWAP3 MSTORE SWAP1 SWAP2 KECCAK256 SLOAD PUSH2 0x25EF SWAP1 PUSH1 0x1 PUSH1 0x1 PUSH1 0x40 SHL SUB DUP7 AND PUSH2 0x2F67 JUMP JUMPDEST GT ISZERO PUSH2 0x260D JUMPI PUSH1 0x40 MLOAD PUSH3 0x461BCD PUSH1 0xE5 SHL DUP2 MSTORE PUSH1 0x4 ADD PUSH2 0xE0D SWAP1 PUSH2 0x4FF8 JUMP JUMPDEST PUSH1 0x0 DUP9 DUP2 MSTORE PUSH1 0x7 PUSH1 0x20 MSTORE PUSH1 0x40 SWAP1 KECCAK256 SLOAD PUSH1 0xFF AND ISZERO PUSH2 0x265D JUMPI PUSH1 0x40 MLOAD PUSH3 0x461BCD PUSH1 0xE5 SHL DUP2 MSTORE PUSH1 0x20 PUSH1 0x4 DUP3 ADD MSTORE PUSH1 0xE PUSH1 0x24 DUP3 ADD MSTORE PUSH14 0x50726573616C6520616374697665 PUSH1 0x90 SHL PUSH1 0x44 DUP3 ADD MSTORE PUSH1 0x64 ADD PUSH2 0xE0D JUMP JUMPDEST PUSH2 0x2669 DUP9 DUP9 DUP8 DUP10 PUSH2 0x315D JUMP JUMPDEST PUSH1 0x40 MLOAD PUSH1 0x1 PUSH1 0x1 PUSH1 0x60 SHL SUB DUP9 AND SWAP1 DUP10 SWAP1 PUSH32 0xB9BA3CDA2CA5D3D8FAF8D0E09982DABBA09A516299D2B54D33BAA8F35434B14C SWAP1 PUSH1 0x0 SWAP1 LOG3 POP POP POP POP POP POP POP POP JUMP JUMPDEST PUSH2 0x12F1 CALLER DUP4 DUP4 PUSH2 0x362E JUMP JUMPDEST PUSH2 0x26BE CALLER DUP4 PUSH2 0x2C81 JUMP JUMPDEST PUSH2 0x26DA JUMPI PUSH1 0x40 MLOAD PUSH3 0x461BCD PUSH1 0xE5 SHL DUP2 MSTORE PUSH1 0x4 ADD PUSH2 0xE0D SWAP1 PUSH2 0x4EAD JUMP JUMPDEST PUSH2 0x26E6 DUP5 DUP5 DUP5 DUP5 PUSH2 0x36FD JUMP JUMPDEST POP POP POP POP JUMP JUMPDEST PUSH1 0x60 PUSH2 0x26F7 DUP3 PUSH2 0x2BAA JUMP JUMPDEST PUSH1 0x0 PUSH2 0x2701 PUSH2 0x3730 JUMP JUMPDEST SWAP1 POP PUSH1 0x0 DUP2 MLOAD GT PUSH2 0x2721 JUMPI PUSH1 0x40 MLOAD DUP1 PUSH1 0x20 ADD PUSH1 0x40 MSTORE DUP1 PUSH1 0x0 DUP2 MSTORE POP PUSH2 0x17A2 JUMP JUMPDEST DUP1 PUSH2 0x272B DUP5 PUSH2 0x373F JUMP JUMPDEST PUSH1 0x40 MLOAD PUSH1 0x20 ADD PUSH2 0x273C SWAP3 SWAP2 SWAP1 PUSH2 0x509F JUMP JUMPDEST PUSH1 0x40 MLOAD PUSH1 0x20 DUP2 DUP4 SUB SUB DUP2 MSTORE SWAP1 PUSH1 0x40 MSTORE SWAP4 SWAP3 POP POP POP JUMP JUMPDEST PUSH1 0x0 DUP2 DUP2 MSTORE PUSH1 0x18 PUSH1 0x20 MSTORE PUSH1 0x40 DUP2 KECCAK256 SLOAD PUSH1 0x1 PUSH1 0x60 SHL SWAP1 DIV PUSH1 0xFF AND PUSH2 0x27A9 JUMPI PUSH1 0x40 MLOAD PUSH3 0x461BCD PUSH1 0xE5 SHL DUP2 MSTORE PUSH1 0x20 PUSH1 0x4 DUP3 ADD MSTORE PUSH1 0xF PUSH1 0x24 DUP3 ADD MSTORE PUSH15 0x125B9D985B1A59081D1BDAD95B9259 PUSH1 0x8A SHL PUSH1 0x44 DUP3 ADD MSTORE PUSH1 0x64 ADD PUSH2 0xE0D JUMP JUMPDEST POP PUSH1 0x0 SWAP1 DUP2 MSTORE PUSH1 0x18 PUSH1 0x20 MSTORE PUSH1 0x40 SWAP1 KECCAK256 SLOAD PUSH1 0x1 PUSH1 0x1 PUSH1 0x60 SHL SUB AND SWAP1 JUMP JUMPDEST PUSH1 0x0 DUP3 DUP2 MSTORE PUSH1 0x14 PUSH1 0x20 MSTORE PUSH1 0x40 SWAP1 KECCAK256 PUSH1 0x1 ADD SLOAD PUSH2 0x27E0 DUP2 PUSH2 0x2C77 JUMP JUMPDEST PUSH2 0xEAE DUP4 DUP4 PUSH2 0x2F00 JUMP JUMPDEST PUSH1 0x1 PUSH1 0x1 PUSH1 0xA0 SHL SUB DUP2 AND PUSH1 0x0 SWAP1 DUP2 MSTORE PUSH1 0x1D PUSH1 0x20 SWAP1 DUP2 MSTORE PUSH1 0x40 DUP1 DUP4 KECCAK256 DUP2 MLOAD DUP1 DUP4 ADD SWAP1 SWAP3 MSTORE DUP1 SLOAD DUP3 MSTORE PUSH1 0x1 ADD SLOAD PUSH1 0xFF AND ISZERO ISZERO SWAP2 DUP2 ADD DUP3 SWAP1 MSTORE SWAP1 PUSH2 0x282E JUMPI POP PUSH1 0x0 SWAP3 SWAP2 POP POP JUMP JUMPDEST MLOAD SWAP3 SWAP2 POP POP JUMP JUMPDEST PUSH1 0x0 PUSH2 0x2840 DUP2 PUSH2 0x2C77 JUMP JUMPDEST PUSH1 0x0 DUP5 DUP2 MSTORE PUSH1 0x19 PUSH1 0x20 SWAP1 DUP2 MSTORE PUSH1 0x40 DUP1 DUP4 KECCAK256 PUSH1 0x1 PUSH1 0x1 PUSH1 0x60 SHL SUB DUP8 AND DUP5 MSTORE SWAP1 SWAP2 MSTORE SWAP1 KECCAK256 PUSH1 0x1 ADD SLOAD PUSH1 0xFF AND ISZERO PUSH2 0x28AC JUMPI PUSH1 0x40 MLOAD PUSH3 0x461BCD PUSH1 0xE5 SHL DUP2 MSTORE PUSH1 0x20 PUSH1 0x4 DUP3 ADD MSTORE PUSH1 0x13 PUSH1 0x24 DUP3 ADD MSTORE PUSH19 0x5061737320616C726561647920657869737473 PUSH1 0x68 SHL PUSH1 0x44 DUP3 ADD MSTORE PUSH1 0x64 ADD PUSH2 0xE0D JUMP JUMPDEST PUSH1 0x40 DUP1 MLOAD DUP1 DUP3 ADD DUP3 MSTORE DUP4 DUP2 MSTORE PUSH1 0x1 PUSH1 0x20 DUP1 DUP4 ADD DUP3 DUP2 MSTORE PUSH1 0x0 DUP10 DUP2 MSTORE PUSH1 0x19 DUP4 MSTORE DUP6 DUP2 KECCAK256 PUSH1 0x1 PUSH1 0x1 PUSH1 0x60 SHL SUB DUP11 AND DUP1 DUP4 MSTORE SWAP4 MSTORE DUP6 DUP2 KECCAK256 SWAP5 MLOAD DUP6 SSTORE SWAP1 MLOAD SWAP4 SWAP1 SWAP3 ADD DUP1 SLOAD PUSH1 0xFF NOT AND SWAP4 ISZERO ISZERO SWAP4 SWAP1 SWAP4 OR SWAP1 SWAP3 SSTORE SWAP2 MLOAD DUP5 SWAP3 DUP8 SWAP2 PUSH32 0xA2FD84681D7A45BE68A37025DD071757E93B9B72B804FF58263B32017E0BF783 SWAP2 SWAP1 LOG4 POP POP POP POP JUMP JUMPDEST PUSH1 0x0 PUSH2 0x2935 DUP2 PUSH2 0x2C77 JUMP JUMPDEST POP PUSH1 0x15 DUP1 SLOAD PUSH1 0x1 PUSH1 0x1 PUSH1 0xA0 SHL SUB SWAP1 SWAP3 AND PUSH1 0x1 PUSH1 0x60 SHL MUL PUSH1 0x1 PUSH1 0x1 PUSH1 0x60 SHL SUB SWAP1 SWAP3 AND SWAP2 SWAP1 SWAP2 OR SWAP1 SSTORE JUMP JUMPDEST PUSH1 0x1 PUSH1 0x1 PUSH1 0xA0 SHL SUB DUP2 AND PUSH1 0x0 SWAP1 DUP2 MSTORE PUSH1 0x1B PUSH1 0x20 SWAP1 DUP2 MSTORE PUSH1 0x40 DUP1 DUP4 KECCAK256 SLOAD DUP1 DUP5 MSTORE PUSH1 0x18 SWAP1 SWAP3 MSTORE DUP3 KECCAK256 SLOAD PUSH1 0x1 PUSH1 0x60 SHL SWAP1 DIV PUSH1 0xFF AND ISZERO PUSH2 0x29B2 JUMPI PUSH1 0x0 SWAP1 DUP2 MSTORE PUSH1 0x18 PUSH1 0x20 MSTORE PUSH1 0x40 SWAP1 KECCAK256 SLOAD PUSH1 0x1 PUSH1 0x1 PUSH1 0x60 SHL SUB AND SWAP3 SWAP2 POP POP JUMP JUMPDEST PUSH1 0x1 PUSH1 0x1 PUSH1 0xA0 SHL SUB DUP4 AND PUSH1 0x0 SWAP1 DUP2 MSTORE PUSH1 0x1D PUSH1 0x20 MSTORE PUSH1 0x40 SWAP1 KECCAK256 PUSH1 0x1 ADD SLOAD PUSH1 0xFF AND ISZERO PUSH2 0x2A09 JUMPI POP POP PUSH1 0x1 PUSH1 0x1 PUSH1 0xA0 SHL SUB AND PUSH1 0x0 SWAP1 DUP2 MSTORE PUSH1 0x1D PUSH1 0x20 SWAP1 DUP2 MSTORE PUSH1 0x40 DUP1 DUP4 KECCAK256 SLOAD DUP4 MSTORE PUSH1 0x18 SWAP1 SWAP2 MSTORE SWAP1 KECCAK256 SLOAD PUSH1 0x1 PUSH1 0x1 PUSH1 0x60 SHL SUB AND SWAP1 JUMP JUMPDEST POP POP PUSH1 0x15 SLOAD PUSH1 0x1 PUSH1 0x1 PUSH1 0x60 SHL SUB AND SWAP2 SWAP1 POP JUMP JUMPDEST PUSH1 0x0 PUSH2 0x2A27 DUP2 PUSH2 0x2C77 JUMP JUMPDEST PUSH1 0x0 DUP3 DUP2 MSTORE PUSH1 0x6 PUSH1 0x20 MSTORE PUSH1 0x40 SWAP1 KECCAK256 SLOAD PUSH1 0xFF AND PUSH2 0x2A55 JUMPI PUSH1 0x40 MLOAD PUSH3 0x461BCD PUSH1 0xE5 SHL DUP2 MSTORE PUSH1 0x4 ADD PUSH2 0xE0D SWAP1 PUSH2 0x4F4C JUMP JUMPDEST PUSH1 0x0 DUP3 DUP2 MSTORE PUSH1 0x6 PUSH1 0x20 SWAP1 DUP2 MSTORE PUSH1 0x40 DUP1 DUP4 KECCAK256 DUP1 SLOAD PUSH1 0xFF NOT SWAP1 DUP2 AND SWAP1 SWAP2 SSTORE PUSH1 0x7 SWAP1 SWAP3 MSTORE DUP1 DUP4 KECCAK256 DUP1 SLOAD SWAP1 SWAP3 AND SWAP1 SWAP2 SSTORE MLOAD DUP4 SWAP2 PUSH32 0x47F75DD68B479A7DC904BAEB75498EBB157246EDCC056BB28BF42D12F1D8E364 SWAP2 LOG2 POP POP JUMP JUMPDEST PUSH1 0x0 DUP3 DUP2 MSTORE PUSH1 0x1C PUSH1 0x20 MSTORE PUSH1 0x40 DUP2 KECCAK256 PUSH2 0x17A2 SWAP1 DUP4 PUSH2 0x37DB JUMP JUMPDEST PUSH1 0x0 PUSH2 0x2ACE DUP2 PUSH2 0x2C77 JUMP JUMPDEST PUSH1 0x40 DUP1 MLOAD DUP1 DUP3 ADD DUP3 MSTORE DUP5 DUP2 MSTORE DUP4 ISZERO ISZERO PUSH1 0x20 DUP1 DUP4 ADD DUP3 DUP2 MSTORE PUSH1 0x0 DUP13 DUP2 MSTORE PUSH1 0x1E DUP4 MSTORE DUP6 DUP2 KECCAK256 PUSH1 0x1 PUSH1 0x1 PUSH1 0x60 SHL SUB DUP14 DUP2 AND DUP1 DUP5 MSTORE SWAP2 DUP6 MSTORE DUP8 DUP4 KECCAK256 DUP14 DUP5 MSTORE DUP6 MSTORE DUP8 DUP4 KECCAK256 SWAP1 DUP13 AND DUP1 DUP5 MSTORE SWAP1 DUP6 MSTORE SWAP2 DUP8 SWAP1 KECCAK256 SWAP6 MLOAD DUP7 SSTORE SWAP2 MLOAD PUSH1 0x1 SWAP1 SWAP6 ADD DUP1 SLOAD PUSH1 0xFF NOT AND SWAP6 ISZERO ISZERO SWAP6 SWAP1 SWAP6 OR SWAP1 SWAP5 SSTORE DUP5 MLOAD DUP11 DUP2 MSTORE SWAP2 DUP3 ADD SWAP4 SWAP1 SWAP4 MSTORE SWAP3 DUP4 ADD DUP7 SWAP1 MSTORE PUSH1 0x60 DUP4 ADD MSTORE SWAP1 DUP9 SWAP1 PUSH32 0xB234B4684F9FD3C339A10C297816F934534F80F23EB6B4135DB06E305B96DD1 SWAP1 PUSH1 0x80 ADD PUSH1 0x40 MLOAD DUP1 SWAP2 SUB SWAP1 LOG3 POP POP POP POP POP POP POP JUMP JUMPDEST PUSH1 0x0 PUSH1 0x1 PUSH1 0x1 PUSH1 0xE0 SHL SUB NOT DUP3 AND PUSH4 0x7965DB0B PUSH1 0xE0 SHL EQ DUP1 PUSH2 0xCD9 JUMPI POP PUSH2 0xCD9 DUP3 PUSH2 0x37E7 JUMP JUMPDEST PUSH1 0x0 DUP2 DUP2 MSTORE PUSH1 0xC PUSH1 0x20 MSTORE PUSH1 0x40 SWAP1 KECCAK256 SLOAD PUSH1 0x1 PUSH1 0x1 PUSH1 0xA0 SHL SUB AND PUSH2 0x1F52 JUMPI PUSH1 0x40 MLOAD PUSH3 0x461BCD PUSH1 0xE5 SHL DUP2 MSTORE PUSH1 0x20 PUSH1 0x4 DUP3 ADD MSTORE PUSH1 0x18 PUSH1 0x24 DUP3 ADD MSTORE PUSH24 0x115490CDCC8C4E881A5B9D985B1A59081D1BDAD95B881251 PUSH1 0x42 SHL PUSH1 0x44 DUP3 ADD MSTORE PUSH1 0x64 ADD PUSH2 0xE0D JUMP JUMPDEST PUSH1 0x0 DUP2 DUP2 MSTORE PUSH1 0xE PUSH1 0x20 MSTORE PUSH1 0x40 SWAP1 KECCAK256 DUP1 SLOAD PUSH1 0x1 PUSH1 0x1 PUSH1 0xA0 SHL SUB NOT AND PUSH1 0x1 PUSH1 0x1 PUSH1 0xA0 SHL SUB DUP5 AND SWAP1 DUP2 OR SWAP1 SWAP2 SSTORE DUP2 SWAP1 PUSH2 0x2C3E DUP3 PUSH2 0x1AB3 JUMP JUMPDEST PUSH1 0x1 PUSH1 0x1 PUSH1 0xA0 SHL SUB AND PUSH32 0x8C5BE1E5EBEC7D5BD14F71427D1E84F3DD0314C0F7B2291E5B200AC8C7C3B925 PUSH1 0x40 MLOAD PUSH1 0x40 MLOAD DUP1 SWAP2 SUB SWAP1 LOG4 POP POP JUMP JUMPDEST PUSH2 0x1F52 DUP2 CALLER PUSH2 0x380C JUMP JUMPDEST PUSH1 0x0 DUP1 PUSH2 0x2C8D DUP4 PUSH2 0x1AB3 JUMP JUMPDEST SWAP1 POP DUP1 PUSH1 0x1 PUSH1 0x1 PUSH1 0xA0 SHL SUB AND DUP5 PUSH1 0x1 PUSH1 0x1 PUSH1 0xA0 SHL SUB AND EQ DUP1 PUSH2 0x2CD4 JUMPI POP PUSH1 0x1 PUSH1 0x1 PUSH1 0xA0 SHL SUB DUP1 DUP3 AND PUSH1 0x0 SWAP1 DUP2 MSTORE PUSH1 0xF PUSH1 0x20 SWAP1 DUP2 MSTORE PUSH1 0x40 DUP1 DUP4 KECCAK256 SWAP4 DUP9 AND DUP4 MSTORE SWAP3 SWAP1 MSTORE KECCAK256 SLOAD PUSH1 0xFF AND JUMPDEST DUP1 PUSH2 0x2453 JUMPI POP DUP4 PUSH1 0x1 PUSH1 0x1 PUSH1 0xA0 SHL SUB AND PUSH2 0x2CED DUP5 PUSH2 0xD71 JUMP JUMPDEST PUSH1 0x1 PUSH1 0x1 PUSH1 0xA0 SHL SUB AND EQ SWAP5 SWAP4 POP POP POP POP JUMP JUMPDEST DUP3 PUSH1 0x1 PUSH1 0x1 PUSH1 0xA0 SHL SUB AND PUSH2 0x2D12 DUP3 PUSH2 0x1AB3 JUMP JUMPDEST PUSH1 0x1 PUSH1 0x1 PUSH1 0xA0 SHL SUB AND EQ PUSH2 0x2D38 JUMPI PUSH1 0x40 MLOAD PUSH3 0x461BCD PUSH1 0xE5 SHL DUP2 MSTORE PUSH1 0x4 ADD PUSH2 0xE0D SWAP1 PUSH2 0x50CE JUMP JUMPDEST PUSH1 0x1 PUSH1 0x1 PUSH1 0xA0 SHL SUB DUP3 AND PUSH2 0x2D9A JUMPI PUSH1 0x40 MLOAD PUSH3 0x461BCD PUSH1 0xE5 SHL DUP2 MSTORE PUSH1 0x20 PUSH1 0x4 DUP3 ADD MSTORE PUSH1 0x24 DUP1 DUP3 ADD MSTORE PUSH32 0x4552433732313A207472616E7366657220746F20746865207A65726F20616464 PUSH1 0x44 DUP3 ADD MSTORE PUSH4 0x72657373 PUSH1 0xE0 SHL PUSH1 0x64 DUP3 ADD MSTORE PUSH1 0x84 ADD PUSH2 0xE0D JUMP JUMPDEST PUSH2 0x2DA7 DUP4 DUP4 DUP4 PUSH1 0x1 PUSH2 0x3865 JUMP JUMPDEST DUP3 PUSH1 0x1 PUSH1 0x1 PUSH1 0xA0 SHL SUB AND PUSH2 0x2DBA DUP3 PUSH2 0x1AB3 JUMP JUMPDEST PUSH1 0x1 PUSH1 0x1 PUSH1 0xA0 SHL SUB AND EQ PUSH2 0x2DE0 JUMPI PUSH1 0x40 MLOAD PUSH3 0x461BCD PUSH1 0xE5 SHL DUP2 MSTORE PUSH1 0x4 ADD PUSH2 0xE0D SWAP1 PUSH2 0x50CE JUMP JUMPDEST PUSH1 0x0 DUP2 DUP2 MSTORE PUSH1 0xE PUSH1 0x20 SWAP1 DUP2 MSTORE PUSH1 0x40 DUP1 DUP4 KECCAK256 DUP1 SLOAD PUSH1 0x1 PUSH1 0x1 PUSH1 0xA0 SHL SUB NOT SWAP1 DUP2 AND SWAP1 SWAP2 SSTORE PUSH1 0x1 PUSH1 0x1 PUSH1 0xA0 SHL SUB DUP8 DUP2 AND DUP1 DUP7 MSTORE PUSH1 0xD DUP6 MSTORE DUP4 DUP7 KECCAK256 DUP1 SLOAD PUSH1 0x0 NOT ADD SWAP1 SSTORE SWAP1 DUP8 AND DUP1 DUP7 MSTORE DUP4 DUP7 KECCAK256 DUP1 SLOAD PUSH1 0x1 ADD SWAP1 SSTORE DUP7 DUP7 MSTORE PUSH1 0xC SWAP1 SWAP5 MSTORE DUP3 DUP6 KECCAK256 DUP1 SLOAD SWAP1 SWAP3 AND DUP5 OR SWAP1 SWAP2 SSTORE SWAP1 MLOAD DUP5 SWAP4 PUSH32 0xDDF252AD1BE2C89B69C2B068FC378DAA952BA7F163C4A11628F55A4DF523B3EF SWAP2 LOG4 POP POP POP JUMP JUMPDEST PUSH1 0x0 PUSH2 0xCD9 DUP3 SLOAD SWAP1 JUMP JUMPDEST PUSH2 0x2E84 DUP3 DUP3 PUSH2 0x20E0 JUMP JUMPDEST PUSH2 0x12F1 JUMPI PUSH1 0x0 DUP3 DUP2 MSTORE PUSH1 0x14 PUSH1 0x20 SWAP1 DUP2 MSTORE PUSH1 0x40 DUP1 DUP4 KECCAK256 PUSH1 0x1 PUSH1 0x1 PUSH1 0xA0 SHL SUB DUP6 AND DUP5 MSTORE SWAP1 SWAP2 MSTORE SWAP1 KECCAK256 DUP1 SLOAD PUSH1 0xFF NOT AND PUSH1 0x1 OR SWAP1 SSTORE PUSH2 0x2EBC CALLER SWAP1 JUMP JUMPDEST PUSH1 0x1 PUSH1 0x1 PUSH1 0xA0 SHL SUB AND DUP2 PUSH1 0x1 PUSH1 0x1 PUSH1 0xA0 SHL SUB AND DUP4 PUSH32 0x2F8788117E7EFF1D82E926EC794901D17C78024A50270940304540A733656F0D PUSH1 0x40 MLOAD PUSH1 0x40 MLOAD DUP1 SWAP2 SUB SWAP1 LOG4 POP POP JUMP JUMPDEST PUSH2 0x2F0A DUP3 DUP3 PUSH2 0x20E0 JUMP JUMPDEST ISZERO PUSH2 0x12F1 JUMPI PUSH1 0x0 DUP3 DUP2 MSTORE PUSH1 0x14 PUSH1 0x20 SWAP1 DUP2 MSTORE PUSH1 0x40 DUP1 DUP4 KECCAK256 PUSH1 0x1 PUSH1 0x1 PUSH1 0xA0 SHL SUB DUP6 AND DUP1 DUP6 MSTORE SWAP3 MSTORE DUP1 DUP4 KECCAK256 DUP1 SLOAD PUSH1 0xFF NOT AND SWAP1 SSTORE MLOAD CALLER SWAP3 DUP6 SWAP2 PUSH32 0xF6391F5C32D9C69D2A47EA670B442974B53935D1EDC7FD64EB21E047A839171B SWAP2 SWAP1 LOG4 POP POP JUMP JUMPDEST PUSH1 0x0 PUSH2 0x17A2 DUP3 DUP5 PUSH2 0x5045 JUMP JUMPDEST PUSH1 0x0 DUP6 DUP2 MSTORE PUSH1 0x8 PUSH1 0x20 SWAP1 DUP2 MSTORE PUSH1 0x40 DUP1 DUP4 KECCAK256 DUP7 DUP5 MSTORE SWAP1 SWAP2 MSTORE SWAP1 KECCAK256 SLOAD PUSH1 0xFF AND ISZERO PUSH2 0x2FDD JUMPI PUSH1 0x40 MLOAD PUSH3 0x461BCD PUSH1 0xE5 SHL DUP2 MSTORE PUSH1 0x20 PUSH1 0x4 DUP3 ADD MSTORE PUSH1 0x1A PUSH1 0x24 DUP3 ADD MSTORE PUSH32 0x5369676E617475726520616C7265616479207665726966696564000000000000 PUSH1 0x44 DUP3 ADD MSTORE PUSH1 0x64 ADD PUSH2 0xE0D JUMP JUMPDEST TIMESTAMP DUP5 GT PUSH2 0x3020 JUMPI PUSH1 0x40 MLOAD PUSH3 0x461BCD PUSH1 0xE5 SHL DUP2 MSTORE PUSH1 0x20 PUSH1 0x4 DUP3 ADD MSTORE PUSH1 0x11 PUSH1 0x24 DUP3 ADD MSTORE PUSH17 0x14DA59DB985D1D5C9948195E1C1A5C9959 PUSH1 0x7A SHL PUSH1 0x44 DUP3 ADD MSTORE PUSH1 0x64 ADD PUSH2 0xE0D JUMP JUMPDEST PUSH1 0x9 SLOAD PUSH1 0x40 DUP1 MLOAD PUSH1 0x20 PUSH1 0x1F DUP6 ADD DUP2 SWAP1 DIV DUP2 MUL DUP3 ADD DUP2 ADD SWAP1 SWAP3 MSTORE DUP4 DUP2 MSTORE PUSH1 0x1 PUSH1 0x1 PUSH1 0xA0 SHL SUB SWAP1 SWAP3 AND SWAP2 PUSH2 0x30E9 SWAP2 DUP6 SWAP1 DUP6 SWAP1 DUP2 SWAP1 DUP5 ADD DUP4 DUP3 DUP1 DUP3 DUP5 CALLDATACOPY PUSH1 0x0 SWAP3 ADD SWAP2 SWAP1 SWAP2 MSTORE POP POP PUSH1 0x40 DUP1 MLOAD PUSH1 0x20 DUP1 DUP3 ADD DUP14 SWAP1 MSTORE DUP2 DUP4 ADD DUP13 SWAP1 MSTORE PUSH1 0x60 DUP1 DUP4 ADD DUP13 SWAP1 MSTORE DUP4 MLOAD DUP1 DUP5 SUB SWAP1 SWAP2 ADD DUP2 MSTORE PUSH1 0x80 DUP4 ADD DUP5 MSTORE DUP1 MLOAD SWAP1 DUP3 ADD KECCAK256 PUSH32 0x19457468657265756D205369676E6564204D6573736167653A0A333200000000 PUSH1 0xA0 DUP5 ADD MSTORE PUSH1 0xBC DUP1 DUP5 ADD SWAP2 SWAP1 SWAP2 MSTORE DUP4 MLOAD DUP1 DUP5 SUB SWAP1 SWAP2 ADD DUP2 MSTORE PUSH1 0xDC SWAP1 SWAP3 ADD SWAP1 SWAP3 MSTORE DUP1 MLOAD SWAP2 ADD KECCAK256 SWAP2 POP PUSH2 0x30E3 SWAP1 POP JUMP JUMPDEST SWAP1 PUSH2 0x38CF JUMP JUMPDEST PUSH1 0x1 PUSH1 0x1 PUSH1 0xA0 SHL SUB AND EQ PUSH2 0x3133 JUMPI PUSH1 0x40 MLOAD PUSH3 0x461BCD PUSH1 0xE5 SHL DUP2 MSTORE PUSH1 0x20 PUSH1 0x4 DUP3 ADD MSTORE PUSH1 0x11 PUSH1 0x24 DUP3 ADD MSTORE PUSH17 0x496E76616C6964207369676E6174757265 PUSH1 0x78 SHL PUSH1 0x44 DUP3 ADD MSTORE PUSH1 0x64 ADD PUSH2 0xE0D JUMP JUMPDEST POP POP PUSH1 0x0 SWAP3 DUP4 MSTORE PUSH1 0x8 PUSH1 0x20 SWAP1 DUP2 MSTORE PUSH1 0x40 DUP1 DUP6 KECCAK256 SWAP3 DUP6 MSTORE SWAP2 SWAP1 MSTORE SWAP1 SWAP2 KECCAK256 DUP1 SLOAD PUSH1 0xFF NOT AND PUSH1 0x1 OR SWAP1 SSTORE POP JUMP JUMPDEST PUSH1 0x0 DUP5 DUP2 MSTORE PUSH1 0x19 PUSH1 0x20 SWAP1 DUP2 MSTORE PUSH1 0x40 DUP1 DUP4 KECCAK256 PUSH1 0x1 PUSH1 0x1 PUSH1 0x60 SHL SUB DUP8 AND DUP5 MSTORE DUP3 MSTORE SWAP2 DUP3 SWAP1 KECCAK256 DUP3 MLOAD DUP1 DUP5 ADD SWAP1 SWAP4 MSTORE DUP1 SLOAD DUP4 MSTORE PUSH1 0x1 ADD SLOAD PUSH1 0xFF AND ISZERO ISZERO SWAP1 DUP3 ADD DUP2 SWAP1 MSTORE PUSH2 0x31B7 JUMPI PUSH1 0x40 MLOAD PUSH3 0x461BCD PUSH1 0xE5 SHL DUP2 MSTORE PUSH1 0x4 ADD PUSH2 0xE0D SWAP1 PUSH2 0x5073 JUMP JUMPDEST DUP1 MLOAD CALLVALUE SWAP1 PUSH2 0x31CE SWAP1 PUSH1 0x1 PUSH1 0x1 PUSH1 0x40 SHL SUB DUP6 AND PUSH2 0x38EB JUMP JUMPDEST GT ISZERO PUSH2 0x320E JUMPI PUSH1 0x40 MLOAD PUSH3 0x461BCD PUSH1 0xE5 SHL DUP2 MSTORE PUSH1 0x20 PUSH1 0x4 DUP3 ADD MSTORE PUSH1 0xF PUSH1 0x24 DUP3 ADD MSTORE PUSH15 0x15985B1D59481A5B98DBDC9C9958DD PUSH1 0x8A SHL PUSH1 0x44 DUP3 ADD MSTORE PUSH1 0x64 ADD PUSH2 0xE0D JUMP JUMPDEST PUSH1 0x0 JUMPDEST DUP3 PUSH1 0x1 PUSH1 0x1 PUSH1 0x40 SHL SUB AND DUP2 LT ISZERO PUSH2 0x3235 JUMPI PUSH2 0x322D DUP7 DUP7 DUP7 PUSH2 0x3490 JUMP JUMPDEST PUSH1 0x1 ADD PUSH2 0x3211 JUMP JUMPDEST POP POP POP POP POP POP JUMP JUMPDEST DUP1 SELFBALANCE LT ISZERO PUSH2 0x328D JUMPI PUSH1 0x40 MLOAD PUSH3 0x461BCD PUSH1 0xE5 SHL DUP2 MSTORE PUSH1 0x20 PUSH1 0x4 DUP3 ADD MSTORE PUSH1 0x1D PUSH1 0x24 DUP3 ADD MSTORE PUSH32 0x416464726573733A20696E73756666696369656E742062616C616E6365000000 PUSH1 0x44 DUP3 ADD MSTORE PUSH1 0x64 ADD PUSH2 0xE0D JUMP JUMPDEST PUSH1 0x0 DUP3 PUSH1 0x1 PUSH1 0x1 PUSH1 0xA0 SHL SUB AND DUP3 PUSH1 0x40 MLOAD PUSH1 0x0 PUSH1 0x40 MLOAD DUP1 DUP4 SUB DUP2 DUP6 DUP8 GAS CALL SWAP3 POP POP POP RETURNDATASIZE DUP1 PUSH1 0x0 DUP2 EQ PUSH2 0x32DA JUMPI PUSH1 0x40 MLOAD SWAP2 POP PUSH1 0x1F NOT PUSH1 0x3F RETURNDATASIZE ADD AND DUP3 ADD PUSH1 0x40 MSTORE RETURNDATASIZE DUP3 MSTORE RETURNDATASIZE PUSH1 0x0 PUSH1 0x20 DUP5 ADD RETURNDATACOPY PUSH2 0x32DF JUMP JUMPDEST PUSH1 0x60 SWAP2 POP JUMPDEST POP POP SWAP1 POP DUP1 PUSH2 0xEAE JUMPI PUSH1 0x40 MLOAD PUSH3 0x461BCD PUSH1 0xE5 SHL DUP2 MSTORE PUSH1 0x20 PUSH1 0x4 DUP3 ADD MSTORE PUSH1 0x3A PUSH1 0x24 DUP3 ADD MSTORE PUSH32 0x416464726573733A20756E61626C6520746F2073656E642076616C75652C2072 PUSH1 0x44 DUP3 ADD MSTORE PUSH32 0x6563697069656E74206D61792068617665207265766572746564000000000000 PUSH1 0x64 DUP3 ADD MSTORE PUSH1 0x84 ADD PUSH2 0xE0D JUMP JUMPDEST PUSH1 0x1 PUSH1 0x1 PUSH1 0xA0 SHL SUB DUP2 AND PUSH1 0x0 SWAP1 DUP2 MSTORE PUSH1 0x1B PUSH1 0x20 MSTORE PUSH1 0x40 SWAP1 KECCAK256 SLOAD ISZERO PUSH2 0x33BC JUMPI PUSH1 0x40 MLOAD PUSH3 0x461BCD PUSH1 0xE5 SHL DUP2 MSTORE PUSH1 0x20 PUSH1 0x4 DUP3 ADD MSTORE PUSH1 0x18 PUSH1 0x24 DUP3 ADD MSTORE PUSH32 0x4D656D62657220616C7265616479206163746976617465640000000000000000 PUSH1 0x44 DUP3 ADD MSTORE PUSH1 0x64 ADD PUSH2 0xE0D JUMP JUMPDEST PUSH1 0x1 PUSH1 0x1 PUSH1 0xA0 SHL SUB DUP2 AND PUSH1 0x0 SWAP1 DUP2 MSTORE PUSH1 0x1D PUSH1 0x20 MSTORE PUSH1 0x40 SWAP1 KECCAK256 PUSH1 0x1 ADD SLOAD PUSH1 0xFF AND ISZERO PUSH2 0x3421 JUMPI PUSH1 0x40 MLOAD PUSH3 0x461BCD PUSH1 0xE5 SHL DUP2 MSTORE PUSH1 0x20 PUSH1 0x4 DUP3 ADD MSTORE PUSH1 0x16 PUSH1 0x24 DUP3 ADD MSTORE PUSH22 0x4D656D626572206F6620616E6F746865722070617373 PUSH1 0x50 SHL PUSH1 0x44 DUP3 ADD MSTORE PUSH1 0x64 ADD PUSH2 0xE0D JUMP JUMPDEST PUSH1 0x0 DUP3 DUP2 MSTORE PUSH1 0x1C PUSH1 0x20 MSTORE PUSH1 0x40 SWAP1 KECCAK256 PUSH2 0x3439 SWAP1 DUP3 PUSH2 0x38F7 JUMP JUMPDEST POP PUSH1 0x1 PUSH1 0x1 PUSH1 0xA0 SHL SUB DUP2 AND PUSH1 0x0 DUP2 DUP2 MSTORE PUSH1 0x1D PUSH1 0x20 MSTORE PUSH1 0x40 DUP1 DUP3 KECCAK256 DUP6 DUP2 SSTORE PUSH1 0x1 SWAP1 DUP2 ADD DUP1 SLOAD PUSH1 0xFF NOT AND SWAP1 SWAP2 OR SWAP1 SSTORE MLOAD DUP5 SWAP2 PUSH32 0xEED5C42B98FF6F919C93C16BE2FC3821307F9DC5435013526C11AAEB9D2A041D SWAP2 LOG3 POP POP JUMP JUMPDEST PUSH1 0x0 PUSH2 0x34A6 PUSH1 0x1 PUSH2 0x34A0 PUSH1 0x12 SLOAD SWAP1 JUMP JUMPDEST SWAP1 PUSH2 0x2F67 JUMP JUMPDEST PUSH1 0x40 DUP1 MLOAD DUP1 DUP3 ADD DUP3 MSTORE PUSH1 0x0 DUP1 DUP3 MSTORE PUSH1 0x20 SWAP2 DUP3 ADD DUP2 SWAP1 MSTORE DUP3 MLOAD DUP1 DUP5 ADD DUP5 MSTORE PUSH1 0x1 PUSH1 0x1 PUSH1 0x60 SHL SUB DUP9 DUP2 AND DUP3 MSTORE PUSH1 0x1 DUP3 DUP6 ADD DUP2 DUP2 MSTORE DUP8 DUP6 MSTORE PUSH1 0x18 DUP7 MSTORE DUP7 DUP6 KECCAK256 SWAP4 MLOAD DUP5 SLOAD SWAP2 MLOAD ISZERO ISZERO PUSH1 0x1 PUSH1 0x60 SHL MUL PUSH13 0xFFFFFFFFFFFFFFFFFFFFFFFFFF NOT SWAP1 SWAP3 AND SWAP4 AND SWAP3 SWAP1 SWAP3 OR SWAP2 SWAP1 SWAP2 OR SWAP1 SWAP2 SSTORE PUSH1 0x17 DUP4 MSTORE DUP4 DUP3 KECCAK256 DUP10 SWAP1 SSTORE DUP9 DUP3 MSTORE PUSH1 0x2 DUP4 MSTORE DUP4 DUP3 KECCAK256 DUP1 SLOAD DUP3 ADD SWAP1 SSTORE DUP1 DUP4 MSTORE DUP4 DUP3 KECCAK256 PUSH1 0x1 PUSH1 0x1 PUSH1 0xA0 SHL SUB DUP9 AND DUP4 MSTORE SWAP1 SWAP3 MSTORE SWAP2 SWAP1 SWAP2 KECCAK256 DUP1 SLOAD SWAP1 SWAP2 ADD SWAP1 SSTORE SWAP1 POP PUSH2 0x26E6 DUP3 DUP3 PUSH2 0x390C JUMP JUMPDEST PUSH1 0x0 DUP3 DUP2 MSTORE PUSH1 0x1C PUSH1 0x20 MSTORE PUSH1 0x40 SWAP1 KECCAK256 PUSH2 0x356D SWAP1 DUP3 PUSH2 0x3926 JUMP JUMPDEST PUSH2 0x35B1 JUMPI PUSH1 0x40 MLOAD PUSH3 0x461BCD PUSH1 0xE5 SHL DUP2 MSTORE PUSH1 0x20 PUSH1 0x4 DUP3 ADD MSTORE PUSH1 0x15 PUSH1 0x24 DUP3 ADD MSTORE PUSH21 0x13595B58995C88191BD95CC81B9BDD08195E1A5CDD PUSH1 0x5A SHL PUSH1 0x44 DUP3 ADD MSTORE PUSH1 0x64 ADD PUSH2 0xE0D JUMP JUMPDEST PUSH1 0x0 DUP3 DUP2 MSTORE PUSH1 0x1C PUSH1 0x20 MSTORE PUSH1 0x40 SWAP1 KECCAK256 PUSH2 0x35C9 SWAP1 DUP3 PUSH2 0x3948 JUMP JUMPDEST POP PUSH1 0x1 PUSH1 0x1 PUSH1 0xA0 SHL SUB DUP2 AND PUSH1 0x0 DUP2 DUP2 MSTORE PUSH1 0x1D PUSH1 0x20 MSTORE PUSH1 0x40 DUP1 DUP3 KECCAK256 PUSH1 0x1 ADD DUP1 SLOAD PUSH1 0xFF NOT AND SWAP1 SSTORE MLOAD DUP5 SWAP2 PUSH32 0x2DD1FBA15A05261F4CCCEE50E7AB336435A45CF2C976C73A65C4D0E3E190118D SWAP2 LOG3 POP POP JUMP JUMPDEST PUSH1 0x0 DUP3 PUSH2 0x3625 DUP6 DUP5 PUSH2 0x395D JUMP JUMPDEST EQ SWAP5 SWAP4 POP POP POP POP JUMP JUMPDEST DUP2 PUSH1 0x1 PUSH1 0x1 PUSH1 0xA0 SHL SUB AND DUP4 PUSH1 0x1 PUSH1 0x1 PUSH1 0xA0 SHL SUB AND EQ ISZERO PUSH2 0x3690 JUMPI PUSH1 0x40 MLOAD PUSH3 0x461BCD PUSH1 0xE5 SHL DUP2 MSTORE PUSH1 0x20 PUSH1 0x4 DUP3 ADD MSTORE PUSH1 0x19 PUSH1 0x24 DUP3 ADD MSTORE PUSH32 0x4552433732313A20617070726F766520746F2063616C6C657200000000000000 PUSH1 0x44 DUP3 ADD MSTORE PUSH1 0x64 ADD PUSH2 0xE0D JUMP JUMPDEST PUSH1 0x1 PUSH1 0x1 PUSH1 0xA0 SHL SUB DUP4 DUP2 AND PUSH1 0x0 DUP2 DUP2 MSTORE PUSH1 0xF PUSH1 0x20 SWAP1 DUP2 MSTORE PUSH1 0x40 DUP1 DUP4 KECCAK256 SWAP5 DUP8 AND DUP1 DUP5 MSTORE SWAP5 DUP3 MSTORE SWAP2 DUP3 SWAP1 KECCAK256 DUP1 SLOAD PUSH1 0xFF NOT AND DUP7 ISZERO ISZERO SWAP1 DUP2 OR SWAP1 SWAP2 SSTORE SWAP2 MLOAD SWAP2 DUP3 MSTORE PUSH32 0x17307EAB39AB6107E8899845AD3D59BD9653F200F220920489CA2B5937696C31 SWAP2 ADD PUSH1 0x40 MLOAD DUP1 SWAP2 SUB SWAP1 LOG3 POP POP POP JUMP JUMPDEST PUSH2 0x3708 DUP5 DUP5 DUP5 PUSH2 0x2CFF JUMP JUMPDEST PUSH2 0x3714 DUP5 DUP5 DUP5 DUP5 PUSH2 0x39A2 JUMP JUMPDEST PUSH2 0x26E6 JUMPI PUSH1 0x40 MLOAD PUSH3 0x461BCD PUSH1 0xE5 SHL DUP2 MSTORE PUSH1 0x4 ADD PUSH2 0xE0D SWAP1 PUSH2 0x5113 JUMP JUMPDEST PUSH1 0x60 PUSH1 0x16 DUP1 SLOAD PUSH2 0xCEE SWAP1 PUSH2 0x4E72 JUMP JUMPDEST PUSH1 0x60 PUSH1 0x0 PUSH2 0x374C DUP4 PUSH2 0x3AAC JUMP JUMPDEST PUSH1 0x1 ADD SWAP1 POP PUSH1 0x0 DUP2 PUSH1 0x1 PUSH1 0x1 PUSH1 0x40 SHL SUB DUP2 GT ISZERO PUSH2 0x376B JUMPI PUSH2 0x376B PUSH2 0x49F0 JUMP JUMPDEST PUSH1 0x40 MLOAD SWAP1 DUP1 DUP3 MSTORE DUP1 PUSH1 0x1F ADD PUSH1 0x1F NOT AND PUSH1 0x20 ADD DUP3 ADD PUSH1 0x40 MSTORE DUP1 ISZERO PUSH2 0x3795 JUMPI PUSH1 0x20 DUP3 ADD DUP2 DUP1 CALLDATASIZE DUP4 CALLDATACOPY ADD SWAP1 POP JUMPDEST POP SWAP1 POP DUP2 DUP2 ADD PUSH1 0x20 ADD JUMPDEST PUSH1 0x0 NOT ADD PUSH16 0x181899199A1A9B1B9C1CB0B131B232B3 PUSH1 0x81 SHL PUSH1 0xA DUP7 MOD BYTE DUP2 MSTORE8 PUSH1 0xA DUP6 DIV SWAP5 POP DUP5 PUSH2 0x37CE JUMPI PUSH2 0x37D3 JUMP JUMPDEST PUSH2 0x379F JUMP JUMPDEST POP SWAP4 SWAP3 POP POP POP JUMP JUMPDEST PUSH1 0x0 PUSH2 0x17A2 DUP4 DUP4 PUSH2 0x3B84 JUMP JUMPDEST PUSH1 0x0 PUSH1 0x1 PUSH1 0x1 PUSH1 0xE0 SHL SUB NOT DUP3 AND PUSH4 0x780E9D63 PUSH1 0xE0 SHL EQ DUP1 PUSH2 0xCD9 JUMPI POP PUSH2 0xCD9 DUP3 PUSH2 0x3BAE JUMP JUMPDEST PUSH2 0x3816 DUP3 DUP3 PUSH2 0x20E0 JUMP JUMPDEST PUSH2 0x12F1 JUMPI PUSH2 0x3823 DUP2 PUSH2 0x3BFE JUMP JUMPDEST PUSH2 0x382E DUP4 PUSH1 0x20 PUSH2 0x3C10 JUMP JUMPDEST PUSH1 0x40 MLOAD PUSH1 0x20 ADD PUSH2 0x383F SWAP3 SWAP2 SWAP1 PUSH2 0x5165 JUMP JUMPDEST PUSH1 0x40 DUP1 MLOAD PUSH1 0x1F NOT DUP2 DUP5 SUB ADD DUP2 MSTORE SWAP1 DUP3 SWAP1 MSTORE PUSH3 0x461BCD PUSH1 0xE5 SHL DUP3 MSTORE PUSH2 0xE0D SWAP2 PUSH1 0x4 ADD PUSH2 0x473A JUMP JUMPDEST PUSH1 0x0 DUP3 DUP2 MSTORE PUSH1 0x1A PUSH1 0x20 MSTORE PUSH1 0x40 SWAP1 KECCAK256 SLOAD PUSH1 0x1 PUSH1 0x1 PUSH1 0xA0 SHL SUB AND ISZERO PUSH2 0x38C3 JUMPI PUSH1 0x40 MLOAD PUSH3 0x461BCD PUSH1 0xE5 SHL DUP2 MSTORE PUSH1 0x20 PUSH1 0x4 DUP3 ADD MSTORE PUSH1 0x16 PUSH1 0x24 DUP3 ADD MSTORE PUSH22 0x14185CDCC8185B1C9958591E481858DD1A5D985D1959 PUSH1 0x52 SHL PUSH1 0x44 DUP3 ADD MSTORE PUSH1 0x64 ADD PUSH2 0xE0D JUMP JUMPDEST PUSH2 0x26E6 DUP5 DUP5 DUP5 DUP5 PUSH2 0x3DAB JUMP JUMPDEST PUSH1 0x0 DUP1 PUSH1 0x0 PUSH2 0x38DE DUP6 DUP6 PUSH2 0x3ED8 JUMP JUMPDEST SWAP2 POP SWAP2 POP PUSH2 0x37D3 DUP2 PUSH2 0x3F1E JUMP JUMPDEST PUSH1 0x0 PUSH2 0x17A2 DUP3 DUP5 PUSH2 0x51DA JUMP JUMPDEST PUSH1 0x0 PUSH2 0x17A2 DUP4 PUSH1 0x1 PUSH1 0x1 PUSH1 0xA0 SHL SUB DUP5 AND PUSH2 0x406C JUMP JUMPDEST PUSH2 0x12F1 DUP3 DUP3 PUSH1 0x40 MLOAD DUP1 PUSH1 0x20 ADD PUSH1 0x40 MSTORE DUP1 PUSH1 0x0 DUP2 MSTORE POP PUSH2 0x40BB JUMP JUMPDEST PUSH1 0x1 PUSH1 0x1 PUSH1 0xA0 SHL SUB DUP2 AND PUSH1 0x0 SWAP1 DUP2 MSTORE PUSH1 0x1 DUP4 ADD PUSH1 0x20 MSTORE PUSH1 0x40 DUP2 KECCAK256 SLOAD ISZERO ISZERO PUSH2 0x17A2 JUMP JUMPDEST PUSH1 0x0 PUSH2 0x17A2 DUP4 PUSH1 0x1 PUSH1 0x1 PUSH1 0xA0 SHL SUB DUP5 AND PUSH2 0x40EE JUMP JUMPDEST PUSH1 0x0 DUP2 DUP2 JUMPDEST DUP5 MLOAD DUP2 LT ISZERO PUSH2 0x37D3 JUMPI PUSH2 0x398E DUP3 DUP7 DUP4 DUP2 MLOAD DUP2 LT PUSH2 0x3981 JUMPI PUSH2 0x3981 PUSH2 0x505D JUMP JUMPDEST PUSH1 0x20 MUL PUSH1 0x20 ADD ADD MLOAD PUSH2 0x41E1 JUMP JUMPDEST SWAP2 POP DUP1 PUSH2 0x399A DUP2 PUSH2 0x51F9 JUMP JUMPDEST SWAP2 POP POP PUSH2 0x3962 JUMP JUMPDEST PUSH1 0x0 PUSH1 0x1 PUSH1 0x1 PUSH1 0xA0 SHL SUB DUP5 AND EXTCODESIZE ISZERO PUSH2 0x3AA4 JUMPI PUSH1 0x40 MLOAD PUSH4 0xA85BD01 PUSH1 0xE1 SHL DUP2 MSTORE PUSH1 0x1 PUSH1 0x1 PUSH1 0xA0 SHL SUB DUP6 AND SWAP1 PUSH4 0x150B7A02 SWAP1 PUSH2 0x39E6 SWAP1 CALLER SWAP1 DUP10 SWAP1 DUP9 SWAP1 DUP9 SWAP1 PUSH1 0x4 ADD PUSH2 0x5214 JUMP JUMPDEST PUSH1 0x20 PUSH1 0x40 MLOAD DUP1 DUP4 SUB DUP2 PUSH1 0x0 DUP8 DUP1 EXTCODESIZE ISZERO DUP1 ISZERO PUSH2 0x3A00 JUMPI PUSH1 0x0 DUP1 REVERT JUMPDEST POP GAS CALL SWAP3 POP POP POP DUP1 ISZERO PUSH2 0x3A30 JUMPI POP PUSH1 0x40 DUP1 MLOAD PUSH1 0x1F RETURNDATASIZE SWAP1 DUP2 ADD PUSH1 0x1F NOT AND DUP3 ADD SWAP1 SWAP3 MSTORE PUSH2 0x3A2D SWAP2 DUP2 ADD SWAP1 PUSH2 0x5251 JUMP JUMPDEST PUSH1 0x1 JUMPDEST PUSH2 0x3A8A JUMPI RETURNDATASIZE DUP1 DUP1 ISZERO PUSH2 0x3A5E JUMPI PUSH1 0x40 MLOAD SWAP2 POP PUSH1 0x1F NOT PUSH1 0x3F RETURNDATASIZE ADD AND DUP3 ADD PUSH1 0x40 MSTORE RETURNDATASIZE DUP3 MSTORE RETURNDATASIZE PUSH1 0x0 PUSH1 0x20 DUP5 ADD RETURNDATACOPY PUSH2 0x3A63 JUMP JUMPDEST PUSH1 0x60 SWAP2 POP JUMPDEST POP DUP1 MLOAD PUSH2 0x3A82 JUMPI PUSH1 0x40 MLOAD PUSH3 0x461BCD PUSH1 0xE5 SHL DUP2 MSTORE PUSH1 0x4 ADD PUSH2 0xE0D SWAP1 PUSH2 0x5113 JUMP JUMPDEST DUP1 MLOAD DUP2 PUSH1 0x20 ADD REVERT JUMPDEST PUSH1 0x1 PUSH1 0x1 PUSH1 0xE0 SHL SUB NOT AND PUSH4 0xA85BD01 PUSH1 0xE1 SHL EQ SWAP1 POP PUSH2 0x2453 JUMP JUMPDEST POP PUSH1 0x1 PUSH2 0x2453 JUMP JUMPDEST PUSH1 0x0 DUP1 PUSH19 0x184F03E93FF9F4DAA797ED6E38ED64BF6A1F01 PUSH1 0x40 SHL DUP4 LT PUSH2 0x3AEB JUMPI PUSH19 0x184F03E93FF9F4DAA797ED6E38ED64BF6A1F01 PUSH1 0x40 SHL DUP4 DIV SWAP3 POP PUSH1 0x40 ADD JUMPDEST PUSH14 0x4EE2D6D415B85ACEF8100000000 DUP4 LT PUSH2 0x3B17 JUMPI PUSH14 0x4EE2D6D415B85ACEF8100000000 DUP4 DIV SWAP3 POP PUSH1 0x20 ADD JUMPDEST PUSH7 0x2386F26FC10000 DUP4 LT PUSH2 0x3B35 JUMPI PUSH7 0x2386F26FC10000 DUP4 DIV SWAP3 POP PUSH1 0x10 ADD JUMPDEST PUSH4 0x5F5E100 DUP4 LT PUSH2 0x3B4D JUMPI PUSH4 0x5F5E100 DUP4 DIV SWAP3 POP PUSH1 0x8 ADD JUMPDEST PUSH2 0x2710 DUP4 LT PUSH2 0x3B61 JUMPI PUSH2 0x2710 DUP4 DIV SWAP3 POP PUSH1 0x4 ADD JUMPDEST PUSH1 0x64 DUP4 LT PUSH2 0x3B73 JUMPI PUSH1 0x64 DUP4 DIV SWAP3 POP PUSH1 0x2 ADD JUMPDEST PUSH1 0xA DUP4 LT PUSH2 0xCD9 JUMPI PUSH1 0x1 ADD SWAP3 SWAP2 POP POP JUMP JUMPDEST PUSH1 0x0 DUP3 PUSH1 0x0 ADD DUP3 DUP2 SLOAD DUP2 LT PUSH2 0x3B9B JUMPI PUSH2 0x3B9B PUSH2 0x505D JUMP JUMPDEST SWAP1 PUSH1 0x0 MSTORE PUSH1 0x20 PUSH1 0x0 KECCAK256 ADD SLOAD SWAP1 POP SWAP3 SWAP2 POP POP JUMP JUMPDEST PUSH1 0x0 PUSH1 0x1 PUSH1 0x1 PUSH1 0xE0 SHL SUB NOT DUP3 AND PUSH4 0x80AC58CD PUSH1 0xE0 SHL EQ DUP1 PUSH2 0x3BDF JUMPI POP PUSH1 0x1 PUSH1 0x1 PUSH1 0xE0 SHL SUB NOT DUP3 AND PUSH4 0x5B5E139F PUSH1 0xE0 SHL EQ JUMPDEST DUP1 PUSH2 0xCD9 JUMPI POP PUSH4 0x1FFC9A7 PUSH1 0xE0 SHL PUSH1 0x1 PUSH1 0x1 PUSH1 0xE0 SHL SUB NOT DUP4 AND EQ PUSH2 0xCD9 JUMP JUMPDEST PUSH1 0x60 PUSH2 0xCD9 PUSH1 0x1 PUSH1 0x1 PUSH1 0xA0 SHL SUB DUP4 AND PUSH1 0x14 JUMPDEST PUSH1 0x60 PUSH1 0x0 PUSH2 0x3C1F DUP4 PUSH1 0x2 PUSH2 0x51DA JUMP JUMPDEST PUSH2 0x3C2A SWAP1 PUSH1 0x2 PUSH2 0x5045 JUMP JUMPDEST PUSH1 0x1 PUSH1 0x1 PUSH1 0x40 SHL SUB DUP2 GT ISZERO PUSH2 0x3C41 JUMPI PUSH2 0x3C41 PUSH2 0x49F0 JUMP JUMPDEST PUSH1 0x40 MLOAD SWAP1 DUP1 DUP3 MSTORE DUP1 PUSH1 0x1F ADD PUSH1 0x1F NOT AND PUSH1 0x20 ADD DUP3 ADD PUSH1 0x40 MSTORE DUP1 ISZERO PUSH2 0x3C6B JUMPI PUSH1 0x20 DUP3 ADD DUP2 DUP1 CALLDATASIZE DUP4 CALLDATACOPY ADD SWAP1 POP JUMPDEST POP SWAP1 POP PUSH1 0x3 PUSH1 0xFC SHL DUP2 PUSH1 0x0 DUP2 MLOAD DUP2 LT PUSH2 0x3C86 JUMPI PUSH2 0x3C86 PUSH2 0x505D JUMP JUMPDEST PUSH1 0x20 ADD ADD SWAP1 PUSH1 0x1 PUSH1 0x1 PUSH1 0xF8 SHL SUB NOT AND SWAP1 DUP2 PUSH1 0x0 BYTE SWAP1 MSTORE8 POP PUSH1 0xF PUSH1 0xFB SHL DUP2 PUSH1 0x1 DUP2 MLOAD DUP2 LT PUSH2 0x3CB5 JUMPI PUSH2 0x3CB5 PUSH2 0x505D JUMP JUMPDEST PUSH1 0x20 ADD ADD SWAP1 PUSH1 0x1 PUSH1 0x1 PUSH1 0xF8 SHL SUB NOT AND SWAP1 DUP2 PUSH1 0x0 BYTE SWAP1 MSTORE8 POP PUSH1 0x0 PUSH2 0x3CD9 DUP5 PUSH1 0x2 PUSH2 0x51DA JUMP JUMPDEST PUSH2 0x3CE4 SWAP1 PUSH1 0x1 PUSH2 0x5045 JUMP JUMPDEST SWAP1 POP JUMPDEST PUSH1 0x1 DUP2 GT ISZERO PUSH2 0x3D5C JUMPI PUSH16 0x181899199A1A9B1B9C1CB0B131B232B3 PUSH1 0x81 SHL DUP6 PUSH1 0xF AND PUSH1 0x10 DUP2 LT PUSH2 0x3D18 JUMPI PUSH2 0x3D18 PUSH2 0x505D JUMP JUMPDEST BYTE PUSH1 0xF8 SHL DUP3 DUP3 DUP2 MLOAD DUP2 LT PUSH2 0x3D2E JUMPI PUSH2 0x3D2E PUSH2 0x505D JUMP JUMPDEST PUSH1 0x20 ADD ADD SWAP1 PUSH1 0x1 PUSH1 0x1 PUSH1 0xF8 SHL SUB NOT AND SWAP1 DUP2 PUSH1 0x0 BYTE SWAP1 MSTORE8 POP PUSH1 0x4 SWAP5 SWAP1 SWAP5 SHR SWAP4 PUSH2 0x3D55 DUP2 PUSH2 0x526E JUMP JUMPDEST SWAP1 POP PUSH2 0x3CE7 JUMP JUMPDEST POP DUP4 ISZERO PUSH2 0x17A2 JUMPI PUSH1 0x40 MLOAD PUSH3 0x461BCD PUSH1 0xE5 SHL DUP2 MSTORE PUSH1 0x20 PUSH1 0x4 DUP3 ADD DUP2 SWAP1 MSTORE PUSH1 0x24 DUP3 ADD MSTORE PUSH32 0x537472696E67733A20686578206C656E67746820696E73756666696369656E74 PUSH1 0x44 DUP3 ADD MSTORE PUSH1 0x64 ADD PUSH2 0xE0D JUMP JUMPDEST PUSH1 0x1 DUP2 GT ISZERO PUSH2 0x3E1A JUMPI PUSH1 0x40 MLOAD PUSH3 0x461BCD PUSH1 0xE5 SHL DUP2 MSTORE PUSH1 0x20 PUSH1 0x4 DUP3 ADD MSTORE PUSH1 0x35 PUSH1 0x24 DUP3 ADD MSTORE PUSH32 0x455243373231456E756D657261626C653A20636F6E7365637574697665207472 PUSH1 0x44 DUP3 ADD MSTORE PUSH21 0x185B9CD9995C9CC81B9BDD081CDD5C1C1BDC9D1959 PUSH1 0x5A SHL PUSH1 0x64 DUP3 ADD MSTORE PUSH1 0x84 ADD PUSH2 0xE0D JUMP JUMPDEST DUP2 PUSH1 0x1 PUSH1 0x1 PUSH1 0xA0 SHL SUB DUP6 AND PUSH2 0x3E76 JUMPI PUSH2 0x3E71 DUP2 PUSH1 0x12 DUP1 SLOAD PUSH1 0x0 DUP4 DUP2 MSTORE PUSH1 0x13 PUSH1 0x20 MSTORE PUSH1 0x40 DUP2 KECCAK256 DUP3 SWAP1 SSTORE PUSH1 0x1 DUP3 ADD DUP4 SSTORE SWAP2 SWAP1 SWAP2 MSTORE PUSH32 0xBB8A6A4669BA250D26CD7A459ECA9D215F8307E33AEBE50379BC5A3617EC3444 ADD SSTORE JUMP JUMPDEST PUSH2 0x3E99 JUMP JUMPDEST DUP4 PUSH1 0x1 PUSH1 0x1 PUSH1 0xA0 SHL SUB AND DUP6 PUSH1 0x1 PUSH1 0x1 PUSH1 0xA0 SHL SUB AND EQ PUSH2 0x3E99 JUMPI PUSH2 0x3E99 DUP6 DUP3 PUSH2 0x4210 JUMP JUMPDEST PUSH1 0x1 PUSH1 0x1 PUSH1 0xA0 SHL SUB DUP5 AND PUSH2 0x3EB5 JUMPI PUSH2 0x3EB0 DUP2 PUSH2 0x42AD JUMP JUMPDEST PUSH2 0x18B9 JUMP JUMPDEST DUP5 PUSH1 0x1 PUSH1 0x1 PUSH1 0xA0 SHL SUB AND DUP5 PUSH1 0x1 PUSH1 0x1 PUSH1 0xA0 SHL SUB AND EQ PUSH2 0x18B9 JUMPI PUSH2 0x18B9 DUP5 DUP3 PUSH2 0x435C JUMP JUMPDEST PUSH1 0x0 DUP1 DUP3 MLOAD PUSH1 0x41 EQ ISZERO PUSH2 0x3F0F JUMPI PUSH1 0x20 DUP4 ADD MLOAD PUSH1 0x40 DUP5 ADD MLOAD PUSH1 0x60 DUP6 ADD MLOAD PUSH1 0x0 BYTE PUSH2 0x3F03 DUP8 DUP3 DUP6 DUP6 PUSH2 0x43A0 JUMP JUMPDEST SWAP5 POP SWAP5 POP POP POP POP PUSH2 0x3F17 JUMP JUMPDEST POP PUSH1 0x0 SWAP1 POP PUSH1 0x2 JUMPDEST SWAP3 POP SWAP3 SWAP1 POP JUMP JUMPDEST PUSH1 0x0 DUP2 PUSH1 0x4 DUP2 GT ISZERO PUSH2 0x3F32 JUMPI PUSH2 0x3F32 PUSH2 0x5285 JUMP JUMPDEST EQ ISZERO PUSH2 0x3F3B JUMPI POP JUMP JUMPDEST PUSH1 0x1 DUP2 PUSH1 0x4 DUP2 GT ISZERO PUSH2 0x3F4F JUMPI PUSH2 0x3F4F PUSH2 0x5285 JUMP JUMPDEST EQ ISZERO PUSH2 0x3F9D JUMPI PUSH1 0x40 MLOAD PUSH3 0x461BCD PUSH1 0xE5 SHL DUP2 MSTORE PUSH1 0x20 PUSH1 0x4 DUP3 ADD MSTORE PUSH1 0x18 PUSH1 0x24 DUP3 ADD MSTORE PUSH32 0x45434453413A20696E76616C6964207369676E61747572650000000000000000 PUSH1 0x44 DUP3 ADD MSTORE PUSH1 0x64 ADD PUSH2 0xE0D JUMP JUMPDEST PUSH1 0x2 DUP2 PUSH1 0x4 DUP2 GT ISZERO PUSH2 0x3FB1 JUMPI PUSH2 0x3FB1 PUSH2 0x5285 JUMP JUMPDEST EQ ISZERO PUSH2 0x3FFF JUMPI PUSH1 0x40 MLOAD PUSH3 0x461BCD PUSH1 0xE5 SHL DUP2 MSTORE PUSH1 0x20 PUSH1 0x4 DUP3 ADD MSTORE PUSH1 0x1F PUSH1 0x24 DUP3 ADD MSTORE PUSH32 0x45434453413A20696E76616C6964207369676E6174757265206C656E67746800 PUSH1 0x44 DUP3 ADD MSTORE PUSH1 0x64 ADD PUSH2 0xE0D JUMP JUMPDEST PUSH1 0x3 DUP2 PUSH1 0x4 DUP2 GT ISZERO PUSH2 0x4013 JUMPI PUSH2 0x4013 PUSH2 0x5285 JUMP JUMPDEST EQ ISZERO PUSH2 0x1F52 JUMPI PUSH1 0x40 MLOAD PUSH3 0x461BCD PUSH1 0xE5 SHL DUP2 MSTORE PUSH1 0x20 PUSH1 0x4 DUP3 ADD MSTORE PUSH1 0x22 PUSH1 0x24 DUP3 ADD MSTORE PUSH32 0x45434453413A20696E76616C6964207369676E6174757265202773272076616C PUSH1 0x44 DUP3 ADD MSTORE PUSH2 0x7565 PUSH1 0xF0 SHL PUSH1 0x64 DUP3 ADD MSTORE PUSH1 0x84 ADD PUSH2 0xE0D JUMP JUMPDEST PUSH1 0x0 DUP2 DUP2 MSTORE PUSH1 0x1 DUP4 ADD PUSH1 0x20 MSTORE PUSH1 0x40 DUP2 KECCAK256 SLOAD PUSH2 0x40B3 JUMPI POP DUP2 SLOAD PUSH1 0x1 DUP2 DUP2 ADD DUP5 SSTORE PUSH1 0x0 DUP5 DUP2 MSTORE PUSH1 0x20 DUP1 DUP3 KECCAK256 SWAP1 SWAP4 ADD DUP5 SWAP1 SSTORE DUP5 SLOAD DUP5 DUP3 MSTORE DUP3 DUP7 ADD SWAP1 SWAP4 MSTORE PUSH1 0x40 SWAP1 KECCAK256 SWAP2 SWAP1 SWAP2 SSTORE PUSH2 0xCD9 JUMP JUMPDEST POP PUSH1 0x0 PUSH2 0xCD9 JUMP JUMPDEST PUSH2 0x40C5 DUP4 DUP4 PUSH2 0x4464 JUMP JUMPDEST PUSH2 0x40D2 PUSH1 0x0 DUP5 DUP5 DUP5 PUSH2 0x39A2 JUMP JUMPDEST PUSH2 0xEAE JUMPI PUSH1 0x40 MLOAD PUSH3 0x461BCD PUSH1 0xE5 SHL DUP2 MSTORE PUSH1 0x4 ADD PUSH2 0xE0D SWAP1 PUSH2 0x5113 JUMP JUMPDEST PUSH1 0x0 DUP2 DUP2 MSTORE PUSH1 0x1 DUP4 ADD PUSH1 0x20 MSTORE PUSH1 0x40 DUP2 KECCAK256 SLOAD DUP1 ISZERO PUSH2 0x41D7 JUMPI PUSH1 0x0 PUSH2 0x4112 PUSH1 0x1 DUP4 PUSH2 0x529B JUMP JUMPDEST DUP6 SLOAD SWAP1 SWAP2 POP PUSH1 0x0 SWAP1 PUSH2 0x4126 SWAP1 PUSH1 0x1 SWAP1 PUSH2 0x529B JUMP JUMPDEST SWAP1 POP DUP2 DUP2 EQ PUSH2 0x418B JUMPI PUSH1 0x0 DUP7 PUSH1 0x0 ADD DUP3 DUP2 SLOAD DUP2 LT PUSH2 0x4146 JUMPI PUSH2 0x4146 PUSH2 0x505D JUMP JUMPDEST SWAP1 PUSH1 0x0 MSTORE PUSH1 0x20 PUSH1 0x0 KECCAK256 ADD SLOAD SWAP1 POP DUP1 DUP8 PUSH1 0x0 ADD DUP5 DUP2 SLOAD DUP2 LT PUSH2 0x4169 JUMPI PUSH2 0x4169 PUSH2 0x505D JUMP JUMPDEST PUSH1 0x0 SWAP2 DUP3 MSTORE PUSH1 0x20 DUP1 DUP4 KECCAK256 SWAP1 SWAP2 ADD SWAP3 SWAP1 SWAP3 SSTORE SWAP2 DUP3 MSTORE PUSH1 0x1 DUP9 ADD SWAP1 MSTORE PUSH1 0x40 SWAP1 KECCAK256 DUP4 SWAP1 SSTORE JUMPDEST DUP6 SLOAD DUP7 SWAP1 DUP1 PUSH2 0x419C JUMPI PUSH2 0x419C PUSH2 0x52B2 JUMP JUMPDEST PUSH1 0x1 SWAP1 SUB DUP2 DUP2 SWAP1 PUSH1 0x0 MSTORE PUSH1 0x20 PUSH1 0x0 KECCAK256 ADD PUSH1 0x0 SWAP1 SSTORE SWAP1 SSTORE DUP6 PUSH1 0x1 ADD PUSH1 0x0 DUP7 DUP2 MSTORE PUSH1 0x20 ADD SWAP1 DUP2 MSTORE PUSH1 0x20 ADD PUSH1 0x0 KECCAK256 PUSH1 0x0 SWAP1 SSTORE PUSH1 0x1 SWAP4 POP POP POP POP PUSH2 0xCD9 JUMP JUMPDEST PUSH1 0x0 SWAP2 POP POP PUSH2 0xCD9 JUMP JUMPDEST PUSH1 0x0 DUP2 DUP4 LT PUSH2 0x41FD JUMPI PUSH1 0x0 DUP3 DUP2 MSTORE PUSH1 0x20 DUP5 SWAP1 MSTORE PUSH1 0x40 SWAP1 KECCAK256 PUSH2 0x17A2 JUMP JUMPDEST PUSH1 0x0 DUP4 DUP2 MSTORE PUSH1 0x20 DUP4 SWAP1 MSTORE PUSH1 0x40 SWAP1 KECCAK256 PUSH2 0x17A2 JUMP JUMPDEST PUSH1 0x0 PUSH1 0x1 PUSH2 0x421D DUP5 PUSH2 0x1E56 JUMP JUMPDEST PUSH2 0x4227 SWAP2 SWAP1 PUSH2 0x529B JUMP JUMPDEST PUSH1 0x0 DUP4 DUP2 MSTORE PUSH1 0x11 PUSH1 0x20 MSTORE PUSH1 0x40 SWAP1 KECCAK256 SLOAD SWAP1 SWAP2 POP DUP1 DUP3 EQ PUSH2 0x427A JUMPI PUSH1 0x1 PUSH1 0x1 PUSH1 0xA0 SHL SUB DUP5 AND PUSH1 0x0 SWAP1 DUP2 MSTORE PUSH1 0x10 PUSH1 0x20 SWAP1 DUP2 MSTORE PUSH1 0x40 DUP1 DUP4 KECCAK256 DUP6 DUP5 MSTORE DUP3 MSTORE DUP1 DUP4 KECCAK256 SLOAD DUP5 DUP5 MSTORE DUP2 DUP5 KECCAK256 DUP2 SWAP1 SSTORE DUP4 MSTORE PUSH1 0x11 SWAP1 SWAP2 MSTORE SWAP1 KECCAK256 DUP2 SWAP1 SSTORE JUMPDEST POP PUSH1 0x0 SWAP2 DUP3 MSTORE PUSH1 0x11 PUSH1 0x20 SWAP1 DUP2 MSTORE PUSH1 0x40 DUP1 DUP5 KECCAK256 DUP5 SWAP1 SSTORE PUSH1 0x1 PUSH1 0x1 PUSH1 0xA0 SHL SUB SWAP1 SWAP5 AND DUP4 MSTORE PUSH1 0x10 DUP2 MSTORE DUP4 DUP4 KECCAK256 SWAP2 DUP4 MSTORE MSTORE SWAP1 DUP2 KECCAK256 SSTORE JUMP JUMPDEST PUSH1 0x12 SLOAD PUSH1 0x0 SWAP1 PUSH2 0x42BF SWAP1 PUSH1 0x1 SWAP1 PUSH2 0x529B JUMP JUMPDEST PUSH1 0x0 DUP4 DUP2 MSTORE PUSH1 0x13 PUSH1 0x20 MSTORE PUSH1 0x40 DUP2 KECCAK256 SLOAD PUSH1 0x12 DUP1 SLOAD SWAP4 SWAP5 POP SWAP1 SWAP3 DUP5 SWAP1 DUP2 LT PUSH2 0x42E7 JUMPI PUSH2 0x42E7 PUSH2 0x505D JUMP JUMPDEST SWAP1 PUSH1 0x0 MSTORE PUSH1 0x20 PUSH1 0x0 KECCAK256 ADD SLOAD SWAP1 POP DUP1 PUSH1 0x12 DUP4 DUP2 SLOAD DUP2 LT PUSH2 0x4308 JUMPI PUSH2 0x4308 PUSH2 0x505D JUMP JUMPDEST PUSH1 0x0 SWAP2 DUP3 MSTORE PUSH1 0x20 DUP1 DUP4 KECCAK256 SWAP1 SWAP2 ADD SWAP3 SWAP1 SWAP3 SSTORE DUP3 DUP2 MSTORE PUSH1 0x13 SWAP1 SWAP2 MSTORE PUSH1 0x40 DUP1 DUP3 KECCAK256 DUP5 SWAP1 SSTORE DUP6 DUP3 MSTORE DUP2 KECCAK256 SSTORE PUSH1 0x12 DUP1 SLOAD DUP1 PUSH2 0x4340 JUMPI PUSH2 0x4340 PUSH2 0x52B2 JUMP JUMPDEST PUSH1 0x1 SWAP1 SUB DUP2 DUP2 SWAP1 PUSH1 0x0 MSTORE PUSH1 0x20 PUSH1 0x0 KECCAK256 ADD PUSH1 0x0 SWAP1 SSTORE SWAP1 SSTORE POP POP POP POP JUMP JUMPDEST PUSH1 0x0 PUSH2 0x4367 DUP4 PUSH2 0x1E56 JUMP JUMPDEST PUSH1 0x1 PUSH1 0x1 PUSH1 0xA0 SHL SUB SWAP1 SWAP4 AND PUSH1 0x0 SWAP1 DUP2 MSTORE PUSH1 0x10 PUSH1 0x20 SWAP1 DUP2 MSTORE PUSH1 0x40 DUP1 DUP4 KECCAK256 DUP7 DUP5 MSTORE DUP3 MSTORE DUP1 DUP4 KECCAK256 DUP6 SWAP1 SSTORE SWAP4 DUP3 MSTORE PUSH1 0x11 SWAP1 MSTORE SWAP2 SWAP1 SWAP2 KECCAK256 SWAP2 SWAP1 SWAP2 SSTORE POP JUMP JUMPDEST PUSH1 0x0 DUP1 PUSH32 0x7FFFFFFFFFFFFFFFFFFFFFFFFFFFFFFF5D576E7357A4501DDFE92F46681B20A0 DUP4 GT ISZERO PUSH2 0x43D7 JUMPI POP PUSH1 0x0 SWAP1 POP PUSH1 0x3 PUSH2 0x445B JUMP JUMPDEST PUSH1 0x40 DUP1 MLOAD PUSH1 0x0 DUP1 DUP3 MSTORE PUSH1 0x20 DUP3 ADD DUP1 DUP5 MSTORE DUP10 SWAP1 MSTORE PUSH1 0xFF DUP9 AND SWAP3 DUP3 ADD SWAP3 SWAP1 SWAP3 MSTORE PUSH1 0x60 DUP2 ADD DUP7 SWAP1 MSTORE PUSH1 0x80 DUP2 ADD DUP6 SWAP1 MSTORE PUSH1 0x1 SWAP1 PUSH1 0xA0 ADD PUSH1 0x20 PUSH1 0x40 MLOAD PUSH1 0x20 DUP2 SUB SWAP1 DUP1 DUP5 SUB SWAP1 DUP6 GAS STATICCALL ISZERO DUP1 ISZERO PUSH2 0x442B JUMPI RETURNDATASIZE PUSH1 0x0 DUP1 RETURNDATACOPY RETURNDATASIZE PUSH1 0x0 REVERT JUMPDEST POP POP PUSH1 0x40 MLOAD PUSH1 0x1F NOT ADD MLOAD SWAP2 POP POP PUSH1 0x1 PUSH1 0x1 PUSH1 0xA0 SHL SUB DUP2 AND PUSH2 0x4454 JUMPI PUSH1 0x0 PUSH1 0x1 SWAP3 POP SWAP3 POP POP PUSH2 0x445B JUMP JUMPDEST SWAP2 POP PUSH1 0x0 SWAP1 POP JUMPDEST SWAP5 POP SWAP5 SWAP3 POP POP POP JUMP JUMPDEST PUSH1 0x1 PUSH1 0x1 PUSH1 0xA0 SHL SUB DUP3 AND PUSH2 0x44BA JUMPI PUSH1 0x40 MLOAD PUSH3 0x461BCD PUSH1 0xE5 SHL DUP2 MSTORE PUSH1 0x20 PUSH1 0x4 DUP3 ADD DUP2 SWAP1 MSTORE PUSH1 0x24 DUP3 ADD MSTORE PUSH32 0x4552433732313A206D696E7420746F20746865207A65726F2061646472657373 PUSH1 0x44 DUP3 ADD MSTORE PUSH1 0x64 ADD PUSH2 0xE0D JUMP JUMPDEST PUSH1 0x0 DUP2 DUP2 MSTORE PUSH1 0xC PUSH1 0x20 MSTORE PUSH1 0x40 SWAP1 KECCAK256 SLOAD PUSH1 0x1 PUSH1 0x1 PUSH1 0xA0 SHL SUB AND ISZERO PUSH2 0x451F JUMPI PUSH1 0x40 MLOAD PUSH3 0x461BCD PUSH1 0xE5 SHL DUP2 MSTORE PUSH1 0x20 PUSH1 0x4 DUP3 ADD MSTORE PUSH1 0x1C PUSH1 0x24 DUP3 ADD MSTORE PUSH32 0x4552433732313A20746F6B656E20616C7265616479206D696E74656400000000 PUSH1 0x44 DUP3 ADD MSTORE PUSH1 0x64 ADD PUSH2 0xE0D JUMP JUMPDEST PUSH2 0x452D PUSH1 0x0 DUP4 DUP4 PUSH1 0x1 PUSH2 0x3865 JUMP JUMPDEST PUSH1 0x0 DUP2 DUP2 MSTORE PUSH1 0xC PUSH1 0x20 MSTORE PUSH1 0x40 SWAP1 KECCAK256 SLOAD PUSH1 0x1 PUSH1 0x1 PUSH1 0xA0 SHL SUB AND ISZERO PUSH2 0x4592 JUMPI PUSH1 0x40 MLOAD PUSH3 0x461BCD PUSH1 0xE5 SHL DUP2 MSTORE PUSH1 0x20 PUSH1 0x4 DUP3 ADD MSTORE PUSH1 0x1C PUSH1 0x24 DUP3 ADD MSTORE PUSH32 0x4552433732313A20746F6B656E20616C7265616479206D696E74656400000000 PUSH1 0x44 DUP3 ADD MSTORE PUSH1 0x64 ADD PUSH2 0xE0D JUMP JUMPDEST PUSH1 0x1 PUSH1 0x1 PUSH1 0xA0 SHL SUB DUP3 AND PUSH1 0x0 DUP2 DUP2 MSTORE PUSH1 0xD PUSH1 0x20 SWAP1 DUP2 MSTORE PUSH1 0x40 DUP1 DUP4 KECCAK256 DUP1 SLOAD PUSH1 0x1 ADD SWAP1 SSTORE DUP5 DUP4 MSTORE PUSH1 0xC SWAP1 SWAP2 MSTORE DUP1 DUP3 KECCAK256 DUP1 SLOAD PUSH1 0x1 PUSH1 0x1 PUSH1 0xA0 SHL SUB NOT AND DUP5 OR SWAP1 SSTORE MLOAD DUP4 SWAP3 SWAP2 SWAP1 PUSH32 0xDDF252AD1BE2C89B69C2B068FC378DAA952BA7F163C4A11628F55A4DF523B3EF SWAP1 DUP3 SWAP1 LOG4 POP POP JUMP JUMPDEST DUP3 DUP1 SLOAD PUSH2 0x4609 SWAP1 PUSH2 0x4E72 JUMP JUMPDEST SWAP1 PUSH1 0x0 MSTORE PUSH1 0x20 PUSH1 0x0 KECCAK256 SWAP1 PUSH1 0x1F ADD PUSH1 0x20 SWAP1 DIV DUP2 ADD SWAP3 DUP3 PUSH2 0x462B JUMPI PUSH1 0x0 DUP6 SSTORE PUSH2 0x4671 JUMP JUMPDEST DUP3 PUSH1 0x1F LT PUSH2 0x4644 JUMPI DUP1 MLOAD PUSH1 0xFF NOT AND DUP4 DUP1 ADD OR DUP6 SSTORE PUSH2 0x4671 JUMP JUMPDEST DUP3 DUP1 ADD PUSH1 0x1 ADD DUP6 SSTORE DUP3 ISZERO PUSH2 0x4671 JUMPI SWAP2 DUP3 ADD JUMPDEST DUP3 DUP2 GT ISZERO PUSH2 0x4671 JUMPI DUP3 MLOAD DUP3 SSTORE SWAP2 PUSH1 0x20 ADD SWAP2 SWAP1 PUSH1 0x1 ADD SWAP1 PUSH2 0x4656 JUMP JUMPDEST POP PUSH2 0x467D SWAP3 SWAP2 POP PUSH2 0x4681 JUMP JUMPDEST POP SWAP1 JUMP JUMPDEST JUMPDEST DUP1 DUP3 GT ISZERO PUSH2 0x467D JUMPI PUSH1 0x0 DUP2 SSTORE PUSH1 0x1 ADD PUSH2 0x4682 JUMP JUMPDEST PUSH1 0x1 PUSH1 0x1 PUSH1 0xE0 SHL SUB NOT DUP2 AND DUP2 EQ PUSH2 0x1F52 JUMPI PUSH1 0x0 DUP1 REVERT JUMPDEST PUSH1 0x0 PUSH1 0x20 DUP3 DUP5 SUB SLT ISZERO PUSH2 0x46BE JUMPI PUSH1 0x0 DUP1 REVERT JUMPDEST DUP2 CALLDATALOAD PUSH2 0x17A2 DUP2 PUSH2 0x4696 JUMP JUMPDEST PUSH1 0x0 PUSH1 0x20 DUP3 DUP5 SUB SLT ISZERO PUSH2 0x46DB JUMPI PUSH1 0x0 DUP1 REVERT JUMPDEST POP CALLDATALOAD SWAP2 SWAP1 POP JUMP JUMPDEST PUSH1 0x0 JUMPDEST DUP4 DUP2 LT ISZERO PUSH2 0x46FD JUMPI DUP2 DUP2 ADD MLOAD DUP4 DUP3 ADD MSTORE PUSH1 0x20 ADD PUSH2 0x46E5 JUMP JUMPDEST DUP4 DUP2 GT ISZERO PUSH2 0x26E6 JUMPI POP POP PUSH1 0x0 SWAP2 ADD MSTORE JUMP JUMPDEST PUSH1 0x0 DUP2 MLOAD DUP1 DUP5 MSTORE PUSH2 0x4726 DUP2 PUSH1 0x20 DUP7 ADD PUSH1 0x20 DUP7 ADD PUSH2 0x46E2 JUMP JUMPDEST PUSH1 0x1F ADD PUSH1 0x1F NOT AND SWAP3 SWAP1 SWAP3 ADD PUSH1 0x20 ADD SWAP3 SWAP2 POP POP JUMP JUMPDEST PUSH1 0x20 DUP2 MSTORE PUSH1 0x0 PUSH2 0x17A2 PUSH1 0x20 DUP4 ADD DUP5 PUSH2 0x470E JUMP JUMPDEST DUP1 CALLDATALOAD PUSH1 0x1 PUSH1 0x1 PUSH1 0xA0 SHL SUB DUP2 AND DUP2 EQ PUSH2 0x4764 JUMPI PUSH1 0x0 DUP1 REVERT JUMPDEST SWAP2 SWAP1 POP JUMP JUMPDEST PUSH1 0x0 DUP1 PUSH1 0x40 DUP4 DUP6 SUB SLT ISZERO PUSH2 0x477C JUMPI PUSH1 0x0 DUP1 REVERT JUMPDEST PUSH2 0x4785 DUP4 PUSH2 0x474D JUMP JUMPDEST SWAP5 PUSH1 0x20 SWAP4 SWAP1 SWAP4 ADD CALLDATALOAD SWAP4 POP POP POP JUMP JUMPDEST PUSH1 0x0 DUP1 PUSH1 0x40 DUP4 DUP6 SUB SLT ISZERO PUSH2 0x47A6 JUMPI PUSH1 0x0 DUP1 REVERT JUMPDEST POP POP DUP1 CALLDATALOAD SWAP3 PUSH1 0x20 SWAP1 SWAP2 ADD CALLDATALOAD SWAP2 POP JUMP JUMPDEST PUSH1 0x0 DUP1 PUSH1 0x0 PUSH1 0x60 DUP5 DUP7 SUB SLT ISZERO PUSH2 0x47CA JUMPI PUSH1 0x0 DUP1 REVERT JUMPDEST PUSH2 0x47D3 DUP5 PUSH2 0x474D JUMP JUMPDEST SWAP3 POP PUSH2 0x47E1 PUSH1 0x20 DUP6 ADD PUSH2 0x474D JUMP JUMPDEST SWAP2 POP PUSH1 0x40 DUP5 ADD CALLDATALOAD SWAP1 POP SWAP3 POP SWAP3 POP SWAP3 JUMP JUMPDEST PUSH1 0x0 DUP1 PUSH1 0x40 DUP4 DUP6 SUB SLT ISZERO PUSH2 0x4804 JUMPI PUSH1 0x0 DUP1 REVERT JUMPDEST DUP3 CALLDATALOAD SWAP2 POP PUSH2 0x4814 PUSH1 0x20 DUP5 ADD PUSH2 0x474D JUMP JUMPDEST SWAP1 POP SWAP3 POP SWAP3 SWAP1 POP JUMP JUMPDEST DUP1 CALLDATALOAD PUSH1 0x1 PUSH1 0x1 PUSH1 0x60 SHL SUB DUP2 AND DUP2 EQ PUSH2 0x4764 JUMPI PUSH1 0x0 DUP1 REVERT JUMPDEST DUP1 CALLDATALOAD DUP1 ISZERO ISZERO DUP2 EQ PUSH2 0x4764 JUMPI PUSH1 0x0 DUP1 REVERT JUMPDEST PUSH1 0x0 DUP1 PUSH1 0x0 DUP1 PUSH1 0x80 DUP6 DUP8 SUB SLT ISZERO PUSH2 0x485A JUMPI PUSH1 0x0 DUP1 REVERT JUMPDEST DUP5 CALLDATALOAD SWAP4 POP PUSH2 0x486A PUSH1 0x20 DUP7 ADD PUSH2 0x481D JUMP JUMPDEST SWAP3 POP PUSH1 0x40 DUP6 ADD CALLDATALOAD SWAP2 POP PUSH2 0x487F PUSH1 0x60 DUP7 ADD PUSH2 0x4834 JUMP JUMPDEST SWAP1 POP SWAP3 SWAP6 SWAP2 SWAP5 POP SWAP3 POP JUMP JUMPDEST DUP1 CALLDATALOAD PUSH1 0x1 PUSH1 0x1 PUSH1 0x40 SHL SUB DUP2 AND DUP2 EQ PUSH2 0x4764 JUMPI PUSH1 0x0 DUP1 REVERT JUMPDEST PUSH1 0x0 DUP1 PUSH1 0x0 DUP1 PUSH1 0x0 DUP1 PUSH1 0x0 DUP1 PUSH1 0xE0 DUP10 DUP12 SUB SLT ISZERO PUSH2 0x48BD JUMPI PUSH1 0x0 DUP1 REVERT JUMPDEST DUP9 CALLDATALOAD SWAP8 POP PUSH2 0x48CD PUSH1 0x20 DUP11 ADD PUSH2 0x481D JUMP JUMPDEST SWAP7 POP PUSH2 0x48DB PUSH1 0x40 DUP11 ADD PUSH2 0x488A JUMP JUMPDEST SWAP6 POP PUSH2 0x48E9 PUSH1 0x60 DUP11 ADD PUSH2 0x474D JUMP JUMPDEST SWAP5 POP PUSH1 0x80 DUP10 ADD CALLDATALOAD SWAP4 POP PUSH1 0xA0 DUP10 ADD CALLDATALOAD SWAP3 POP PUSH1 0xC0 DUP10 ADD CALLDATALOAD PUSH1 0x1 PUSH1 0x1 PUSH1 0x40 SHL SUB DUP1 DUP3 GT ISZERO PUSH2 0x4913 JUMPI PUSH1 0x0 DUP1 REVERT JUMPDEST DUP2 DUP12 ADD SWAP2 POP DUP12 PUSH1 0x1F DUP4 ADD SLT PUSH2 0x4927 JUMPI PUSH1 0x0 DUP1 REVERT JUMPDEST DUP2 CALLDATALOAD DUP2 DUP2 GT ISZERO PUSH2 0x4936 JUMPI PUSH1 0x0 DUP1 REVERT JUMPDEST DUP13 PUSH1 0x20 DUP3 DUP6 ADD ADD GT ISZERO PUSH2 0x4948 JUMPI PUSH1 0x0 DUP1 REVERT JUMPDEST PUSH1 0x20 DUP4 ADD SWAP5 POP DUP1 SWAP4 POP POP POP POP SWAP3 SWAP6 SWAP9 POP SWAP3 SWAP6 SWAP9 SWAP1 SWAP4 SWAP7 POP JUMP JUMPDEST PUSH1 0x0 DUP1 DUP4 PUSH1 0x1F DUP5 ADD SLT PUSH2 0x4973 JUMPI PUSH1 0x0 DUP1 REVERT JUMPDEST POP DUP2 CALLDATALOAD PUSH1 0x1 PUSH1 0x1 PUSH1 0x40 SHL SUB DUP2 GT ISZERO PUSH2 0x498A JUMPI PUSH1 0x0 DUP1 REVERT JUMPDEST PUSH1 0x20 DUP4 ADD SWAP2 POP DUP4 PUSH1 0x20 DUP3 PUSH1 0x5 SHL DUP6 ADD ADD GT ISZERO PUSH2 0x3F17 JUMPI PUSH1 0x0 DUP1 REVERT JUMPDEST PUSH1 0x0 DUP1 PUSH1 0x0 PUSH1 0x40 DUP5 DUP7 SUB SLT ISZERO PUSH2 0x49BA JUMPI PUSH1 0x0 DUP1 REVERT JUMPDEST DUP4 CALLDATALOAD SWAP3 POP PUSH1 0x20 DUP5 ADD CALLDATALOAD PUSH1 0x1 PUSH1 0x1 PUSH1 0x40 SHL SUB DUP2 GT ISZERO PUSH2 0x49D7 JUMPI PUSH1 0x0 DUP1 REVERT JUMPDEST PUSH2 0x49E3 DUP7 DUP3 DUP8 ADD PUSH2 0x4961 JUMP JUMPDEST SWAP5 SWAP8 SWAP1 SWAP7 POP SWAP4 SWAP5 POP POP POP POP JUMP JUMPDEST PUSH4 0x4E487B71 PUSH1 0xE0 SHL PUSH1 0x0 MSTORE PUSH1 0x41 PUSH1 0x4 MSTORE PUSH1 0x24 PUSH1 0x0 REVERT JUMPDEST PUSH1 0x0 PUSH1 0x1 PUSH1 0x1 PUSH1 0x40 SHL SUB DUP1 DUP5 GT ISZERO PUSH2 0x4A20 JUMPI PUSH2 0x4A20 PUSH2 0x49F0 JUMP JUMPDEST PUSH1 0x40 MLOAD PUSH1 0x1F DUP6 ADD PUSH1 0x1F NOT SWAP1 DUP2 AND PUSH1 0x3F ADD AND DUP2 ADD SWAP1 DUP3 DUP3 GT DUP2 DUP4 LT OR ISZERO PUSH2 0x4A48 JUMPI PUSH2 0x4A48 PUSH2 0x49F0 JUMP JUMPDEST DUP2 PUSH1 0x40 MSTORE DUP1 SWAP4 POP DUP6 DUP2 MSTORE DUP7 DUP7 DUP7 ADD GT ISZERO PUSH2 0x4A61 JUMPI PUSH1 0x0 DUP1 REVERT JUMPDEST DUP6 DUP6 PUSH1 0x20 DUP4 ADD CALLDATACOPY PUSH1 0x0 PUSH1 0x20 DUP8 DUP4 ADD ADD MSTORE POP POP POP SWAP4 SWAP3 POP POP POP JUMP JUMPDEST PUSH1 0x0 PUSH1 0x20 DUP3 DUP5 SUB SLT ISZERO PUSH2 0x4A8D JUMPI PUSH1 0x0 DUP1 REVERT JUMPDEST DUP2 CALLDATALOAD PUSH1 0x1 PUSH1 0x1 PUSH1 0x40 SHL SUB DUP2 GT ISZERO PUSH2 0x4AA3 JUMPI PUSH1 0x0 DUP1 REVERT JUMPDEST DUP3 ADD PUSH1 0x1F DUP2 ADD DUP5 SGT PUSH2 0x4AB4 JUMPI PUSH1 0x0 DUP1 REVERT JUMPDEST PUSH2 0x2453 DUP5 DUP3 CALLDATALOAD PUSH1 0x20 DUP5 ADD PUSH2 0x4A06 JUMP JUMPDEST PUSH1 0x0 PUSH1 0x20 DUP3 DUP5 SUB SLT ISZERO PUSH2 0x4AD5 JUMPI PUSH1 0x0 DUP1 REVERT JUMPDEST PUSH2 0x17A2 DUP3 PUSH2 0x474D JUMP JUMPDEST PUSH1 0x0 DUP1 PUSH1 0x0 PUSH1 0x60 DUP5 DUP7 SUB SLT ISZERO PUSH2 0x4AF3 JUMPI PUSH1 0x0 DUP1 REVERT JUMPDEST DUP4 CALLDATALOAD SWAP3 POP PUSH1 0x20 DUP5 ADD CALLDATALOAD SWAP2 POP PUSH2 0x4B0A PUSH1 0x40 DUP6 ADD PUSH2 0x481D JUMP JUMPDEST SWAP1 POP SWAP3 POP SWAP3 POP SWAP3 JUMP JUMPDEST PUSH1 0x0 DUP1 PUSH1 0x0 DUP1 PUSH1 0x0 PUSH1 0x60 DUP7 DUP9 SUB SLT ISZERO PUSH2 0x4B2B JUMPI PUSH1 0x0 DUP1 REVERT JUMPDEST DUP6 CALLDATALOAD SWAP5 POP PUSH1 0x20 DUP7 ADD CALLDATALOAD PUSH1 0x1 PUSH1 0x1 PUSH1 0x40 SHL SUB DUP1 DUP3 GT ISZERO PUSH2 0x4B49 JUMPI PUSH1 0x0 DUP1 REVERT JUMPDEST PUSH2 0x4B55 DUP10 DUP4 DUP11 ADD PUSH2 0x4961 JUMP JUMPDEST SWAP1 SWAP7 POP SWAP5 POP PUSH1 0x40 DUP9 ADD CALLDATALOAD SWAP2 POP DUP1 DUP3 GT ISZERO PUSH2 0x4B6E JUMPI PUSH1 0x0 DUP1 REVERT JUMPDEST POP PUSH2 0x4B7B DUP9 DUP3 DUP10 ADD PUSH2 0x4961 JUMP JUMPDEST SWAP7 SWAP10 SWAP6 SWAP9 POP SWAP4 SWAP7 POP SWAP3 SWAP5 SWAP4 SWAP3 POP POP POP JUMP JUMPDEST PUSH1 0x0 PUSH1 0x20 DUP3 DUP5 SUB SLT ISZERO PUSH2 0x4B9E JUMPI PUSH1 0x0 DUP1 REVERT JUMPDEST PUSH2 0x17A2 DUP3 PUSH2 0x481D JUMP JUMPDEST PUSH1 0x0 DUP1 PUSH1 0x0 DUP1 PUSH1 0x0 PUSH1 0xA0 DUP7 DUP9 SUB SLT ISZERO PUSH2 0x4BBF JUMPI PUSH1 0x0 DUP1 REVERT JUMPDEST DUP6 CALLDATALOAD SWAP5 POP PUSH1 0x20 DUP7 ADD CALLDATALOAD SWAP4 POP PUSH1 0x40 DUP7 ADD CALLDATALOAD SWAP3 POP PUSH1 0x60 DUP7 ADD CALLDATALOAD SWAP2 POP PUSH2 0x4BE4 PUSH1 0x80 DUP8 ADD PUSH2 0x4834 JUMP JUMPDEST SWAP1 POP SWAP3 SWAP6 POP SWAP3 SWAP6 SWAP1 SWAP4 POP JUMP JUMPDEST PUSH1 0x0 DUP1 PUSH1 0x0 DUP1 PUSH1 0x0 DUP1 PUSH1 0x0 PUSH1 0xC0 DUP9 DUP11 SUB SLT ISZERO PUSH2 0x4C0B JUMPI PUSH1 0x0 DUP1 REVERT JUMPDEST DUP8 CALLDATALOAD SWAP7 POP PUSH2 0x4C1B PUSH1 0x20 DUP10 ADD PUSH2 0x481D JUMP JUMPDEST SWAP6 POP PUSH2 0x4C29 PUSH1 0x40 DUP10 ADD PUSH2 0x488A JUMP JUMPDEST SWAP5 POP PUSH2 0x4C37 PUSH1 0x60 DUP10 ADD PUSH2 0x488A JUMP JUMPDEST SWAP4 POP PUSH2 0x4C45 PUSH1 0x80 DUP10 ADD PUSH2 0x474D JUMP JUMPDEST SWAP3 POP PUSH1 0xA0 DUP9 ADD CALLDATALOAD PUSH1 0x1 PUSH1 0x1 PUSH1 0x40 SHL SUB DUP2 GT ISZERO PUSH2 0x4C60 JUMPI PUSH1 0x0 DUP1 REVERT JUMPDEST PUSH2 0x4C6C DUP11 DUP3 DUP12 ADD PUSH2 0x4961 JUMP JUMPDEST SWAP9 SWAP12 SWAP8 SWAP11 POP SWAP6 SWAP9 POP SWAP4 SWAP7 SWAP3 SWAP6 SWAP3 SWAP4 POP POP POP JUMP JUMPDEST PUSH1 0x0 DUP1 PUSH1 0x0 DUP1 PUSH1 0x80 DUP6 DUP8 SUB SLT ISZERO PUSH2 0x4C95 JUMPI PUSH1 0x0 DUP1 REVERT JUMPDEST DUP5 CALLDATALOAD SWAP4 POP PUSH2 0x4CA5 PUSH1 0x20 DUP7 ADD PUSH2 0x481D JUMP JUMPDEST SWAP3 POP PUSH1 0x40 DUP6 ADD CALLDATALOAD SWAP2 POP PUSH2 0x487F PUSH1 0x60 DUP7 ADD PUSH2 0x481D JUMP JUMPDEST PUSH1 0x0 DUP1 PUSH1 0x40 DUP4 DUP6 SUB SLT ISZERO PUSH2 0x4CCD JUMPI PUSH1 0x0 DUP1 REVERT JUMPDEST DUP3 CALLDATALOAD SWAP2 POP PUSH2 0x4814 PUSH1 0x20 DUP5 ADD PUSH2 0x481D JUMP JUMPDEST PUSH1 0x0 DUP1 PUSH1 0x0 DUP1 PUSH1 0x80 DUP6 DUP8 SUB SLT ISZERO PUSH2 0x4CF3 JUMPI PUSH1 0x0 DUP1 REVERT JUMPDEST DUP5 CALLDATALOAD SWAP4 POP PUSH2 0x4D03 PUSH1 0x20 DUP7 ADD PUSH2 0x481D JUMP JUMPDEST SWAP3 POP PUSH2 0x4D11 PUSH1 0x40 DUP7 ADD PUSH2 0x488A JUMP JUMPDEST SWAP2 POP PUSH2 0x487F PUSH1 0x60 DUP7 ADD PUSH2 0x474D JUMP JUMPDEST PUSH1 0x0 DUP1 PUSH1 0x40 DUP4 DUP6 SUB SLT ISZERO PUSH2 0x4D32 JUMPI PUSH1 0x0 DUP1 REVERT JUMPDEST PUSH2 0x4D3B DUP4 PUSH2 0x474D JUMP JUMPDEST SWAP2 POP PUSH2 0x4814 PUSH1 0x20 DUP5 ADD PUSH2 0x4834 JUMP JUMPDEST PUSH1 0x0 DUP1 PUSH1 0x0 DUP1 PUSH1 0x80 DUP6 DUP8 SUB SLT ISZERO PUSH2 0x4D5F JUMPI PUSH1 0x0 DUP1 REVERT JUMPDEST PUSH2 0x4D68 DUP6 PUSH2 0x474D JUMP JUMPDEST SWAP4 POP PUSH2 0x4D76 PUSH1 0x20 DUP7 ADD PUSH2 0x474D JUMP JUMPDEST SWAP3 POP PUSH1 0x40 DUP6 ADD CALLDATALOAD SWAP2 POP PUSH1 0x60 DUP6 ADD CALLDATALOAD PUSH1 0x1 PUSH1 0x1 PUSH1 0x40 SHL SUB DUP2 GT ISZERO PUSH2 0x4D98 JUMPI PUSH1 0x0 DUP1 REVERT JUMPDEST DUP6 ADD PUSH1 0x1F DUP2 ADD DUP8 SGT PUSH2 0x4DA9 JUMPI PUSH1 0x0 DUP1 REVERT JUMPDEST PUSH2 0x4DB8 DUP8 DUP3 CALLDATALOAD PUSH1 0x20 DUP5 ADD PUSH2 0x4A06 JUMP JUMPDEST SWAP2 POP POP SWAP3 SWAP6 SWAP2 SWAP5 POP SWAP3 POP JUMP JUMPDEST PUSH1 0x0 DUP1 PUSH1 0x40 DUP4 DUP6 SUB SLT ISZERO PUSH2 0x4DD7 JUMPI PUSH1 0x0 DUP1 REVERT JUMPDEST PUSH2 0x4DE0 DUP4 PUSH2 0x474D JUMP JUMPDEST SWAP2 POP PUSH2 0x4814 PUSH1 0x20 DUP5 ADD PUSH2 0x474D JUMP JUMPDEST PUSH1 0x0 DUP1 PUSH1 0x0 PUSH1 0x60 DUP5 DUP7 SUB SLT ISZERO PUSH2 0x4E03 JUMPI PUSH1 0x0 DUP1 REVERT JUMPDEST DUP4 CALLDATALOAD SWAP3 POP PUSH2 0x47E1 PUSH1 0x20 DUP6 ADD PUSH2 0x481D JUMP JUMPDEST PUSH1 0x0 DUP1 PUSH1 0x0 DUP1 PUSH1 0x0 DUP1 PUSH1 0xC0 DUP8 DUP10 SUB SLT ISZERO PUSH2 0x4E2C JUMPI PUSH1 0x0 DUP1 REVERT JUMPDEST DUP7 CALLDATALOAD SWAP6 POP PUSH2 0x4E3C PUSH1 0x20 DUP9 ADD PUSH2 0x481D JUMP JUMPDEST SWAP5 POP PUSH1 0x40 DUP8 ADD CALLDATALOAD SWAP4 POP PUSH2 0x4E51 PUSH1 0x60 DUP9 ADD PUSH2 0x481D JUMP JUMPDEST SWAP3 POP PUSH1 0x80 DUP8 ADD CALLDATALOAD SWAP2 POP PUSH2 0x4E66 PUSH1 0xA0 DUP9 ADD PUSH2 0x4834 JUMP JUMPDEST SWAP1 POP SWAP3 SWAP6 POP SWAP3 SWAP6 POP SWAP3 SWAP6 JUMP JUMPDEST PUSH1 0x1 DUP2 DUP2 SHR SWAP1 DUP3 AND DUP1 PUSH2 0x4E86 JUMPI PUSH1 0x7F DUP3 AND SWAP2 POP JUMPDEST PUSH1 0x20 DUP3 LT DUP2 EQ ISZERO PUSH2 0x4EA7 JUMPI PUSH4 0x4E487B71 PUSH1 0xE0 SHL PUSH1 0x0 MSTORE PUSH1 0x22 PUSH1 0x4 MSTORE PUSH1 0x24 PUSH1 0x0 REVERT JUMPDEST POP SWAP2 SWAP1 POP JUMP JUMPDEST PUSH1 0x20 DUP1 DUP3 MSTORE PUSH1 0x2D SWAP1 DUP3 ADD MSTORE PUSH32 0x4552433732313A2063616C6C6572206973206E6F7420746F6B656E206F776E65 PUSH1 0x40 DUP3 ADD MSTORE PUSH13 0x1C881BDC88185C1C1C9BDD9959 PUSH1 0x9A SHL PUSH1 0x60 DUP3 ADD MSTORE PUSH1 0x80 ADD SWAP1 JUMP JUMPDEST PUSH1 0x20 DUP1 DUP3 MSTORE PUSH1 0xB SWAP1 DUP3 ADD MSTORE PUSH11 0x2737BA10309037BBB732B9 PUSH1 0xA9 SHL PUSH1 0x40 DUP3 ADD MSTORE PUSH1 0x60 ADD SWAP1 JUMP JUMPDEST PUSH1 0x20 DUP1 DUP3 MSTORE PUSH1 0x13 SWAP1 DUP3 ADD MSTORE PUSH19 0x151BDAD95B881B9BDD081858DD1A5D985D1959 PUSH1 0x6A SHL PUSH1 0x40 DUP3 ADD MSTORE PUSH1 0x60 ADD SWAP1 JUMP JUMPDEST PUSH1 0x20 DUP1 DUP3 MSTORE PUSH1 0xF SWAP1 DUP3 ADD MSTORE PUSH15 0x53616C65206E6F7420616374697665 PUSH1 0x88 SHL PUSH1 0x40 DUP3 ADD MSTORE PUSH1 0x60 ADD SWAP1 JUMP JUMPDEST PUSH1 0x20 DUP1 DUP3 MSTORE PUSH1 0xD SWAP1 DUP3 ADD MSTORE PUSH13 0x5175616E74697479206973203 PUSH1 0x9C SHL PUSH1 0x40 DUP3 ADD MSTORE PUSH1 0x60 ADD SWAP1 JUMP JUMPDEST PUSH1 0x20 DUP1 DUP3 MSTORE PUSH1 0x13 SWAP1 DUP3 ADD MSTORE PUSH19 0x4578636565646564206D617820737570706C79 PUSH1 0x68 SHL PUSH1 0x40 DUP3 ADD MSTORE PUSH1 0x60 ADD SWAP1 JUMP JUMPDEST PUSH1 0x20 DUP1 DUP3 MSTORE PUSH1 0x15 SWAP1 DUP3 ADD MSTORE PUSH21 0x115E18D959591959081B585E081C195C881B5A5B9D PUSH1 0x5A SHL PUSH1 0x40 DUP3 ADD MSTORE PUSH1 0x60 ADD SWAP1 JUMP JUMPDEST PUSH1 0x20 DUP1 DUP3 MSTORE PUSH1 0x17 SWAP1 DUP3 ADD MSTORE PUSH32 0x4578636565646564206D6178207065722077616C6C6574000000000000000000 PUSH1 0x40 DUP3 ADD MSTORE PUSH1 0x60 ADD SWAP1 JUMP JUMPDEST PUSH4 0x4E487B71 PUSH1 0xE0 SHL PUSH1 0x0 MSTORE PUSH1 0x11 PUSH1 0x4 MSTORE PUSH1 0x24 PUSH1 0x0 REVERT JUMPDEST PUSH1 0x0 DUP3 NOT DUP3 GT ISZERO PUSH2 0x5058 JUMPI PUSH2 0x5058 PUSH2 0x502F JUMP JUMPDEST POP ADD SWAP1 JUMP JUMPDEST PUSH4 0x4E487B71 PUSH1 0xE0 SHL PUSH1 0x0 MSTORE PUSH1 0x32 PUSH1 0x4 MSTORE PUSH1 0x24 PUSH1 0x0 REVERT JUMPDEST PUSH1 0x20 DUP1 DUP3 MSTORE PUSH1 0x12 SWAP1 DUP3 ADD MSTORE PUSH18 0x14185CDCC8191BD95CDB89DD08195E1A5CDD PUSH1 0x72 SHL PUSH1 0x40 DUP3 ADD MSTORE PUSH1 0x60 ADD SWAP1 JUMP JUMPDEST PUSH1 0x0 DUP4 MLOAD PUSH2 0x50B1 DUP2 DUP5 PUSH1 0x20 DUP9 ADD PUSH2 0x46E2 JUMP JUMPDEST DUP4 MLOAD SWAP1 DUP4 ADD SWAP1 PUSH2 0x50C5 DUP2 DUP4 PUSH1 0x20 DUP9 ADD PUSH2 0x46E2 JUMP JUMPDEST ADD SWAP5 SWAP4 POP POP POP POP JUMP JUMPDEST PUSH1 0x20 DUP1 DUP3 MSTORE PUSH1 0x25 SWAP1 DUP3 ADD MSTORE PUSH32 0x4552433732313A207472616E736665722066726F6D20696E636F727265637420 PUSH1 0x40 DUP3 ADD MSTORE PUSH5 0x37BBB732B9 PUSH1 0xD9 SHL PUSH1 0x60 DUP3 ADD MSTORE PUSH1 0x80 ADD SWAP1 JUMP JUMPDEST PUSH1 0x20 DUP1 DUP3 MSTORE PUSH1 0x32 SWAP1 DUP3 ADD MSTORE PUSH32 0x4552433732313A207472616E7366657220746F206E6F6E204552433732315265 PUSH1 0x40 DUP3 ADD MSTORE PUSH18 0x31B2B4BB32B91034B6B83632B6B2B73A32B9 PUSH1 0x71 SHL PUSH1 0x60 DUP3 ADD MSTORE PUSH1 0x80 ADD SWAP1 JUMP JUMPDEST PUSH32 0x416363657373436F6E74726F6C3A206163636F756E7420000000000000000000 DUP2 MSTORE PUSH1 0x0 DUP4 MLOAD PUSH2 0x519D DUP2 PUSH1 0x17 DUP6 ADD PUSH1 0x20 DUP9 ADD PUSH2 0x46E2 JUMP JUMPDEST PUSH17 0x1034B99036B4B9B9B4B733903937B6329 PUSH1 0x7D SHL PUSH1 0x17 SWAP2 DUP5 ADD SWAP2 DUP3 ADD MSTORE DUP4 MLOAD PUSH2 0x51CE DUP2 PUSH1 0x28 DUP5 ADD PUSH1 0x20 DUP9 ADD PUSH2 0x46E2 JUMP JUMPDEST ADD PUSH1 0x28 ADD SWAP5 SWAP4 POP POP POP POP JUMP JUMPDEST PUSH1 0x0 DUP2 PUSH1 0x0 NOT DIV DUP4 GT DUP3 ISZERO ISZERO AND ISZERO PUSH2 0x51F4 JUMPI PUSH2 0x51F4 PUSH2 0x502F JUMP JUMPDEST POP MUL SWAP1 JUMP JUMPDEST PUSH1 0x0 PUSH1 0x0 NOT DUP3 EQ ISZERO PUSH2 0x520D JUMPI PUSH2 0x520D PUSH2 0x502F JUMP JUMPDEST POP PUSH1 0x1 ADD SWAP1 JUMP JUMPDEST PUSH1 0x1 PUSH1 0x1 PUSH1 0xA0 SHL SUB DUP6 DUP2 AND DUP3 MSTORE DUP5 AND PUSH1 0x20 DUP3 ADD MSTORE PUSH1 0x40 DUP2 ADD DUP4 SWAP1 MSTORE PUSH1 0x80 PUSH1 0x60 DUP3 ADD DUP2 SWAP1 MSTORE PUSH1 0x0 SWAP1 PUSH2 0x5247 SWAP1 DUP4 ADD DUP5 PUSH2 0x470E JUMP JUMPDEST SWAP7 SWAP6 POP POP POP POP POP POP JUMP JUMPDEST PUSH1 0x0 PUSH1 0x20 DUP3 DUP5 SUB SLT ISZERO PUSH2 0x5263 JUMPI PUSH1 0x0 DUP1 REVERT JUMPDEST DUP2 MLOAD PUSH2 0x17A2 DUP2 PUSH2 0x4696 JUMP JUMPDEST PUSH1 0x0 DUP2 PUSH2 0x527D JUMPI PUSH2 0x527D PUSH2 0x502F JUMP JUMPDEST POP PUSH1 0x0 NOT ADD SWAP1 JUMP JUMPDEST PUSH4 0x4E487B71 PUSH1 0xE0 SHL PUSH1 0x0 MSTORE PUSH1 0x21 PUSH1 0x4 MSTORE PUSH1 0x24 PUSH1 0x0 REVERT JUMPDEST PUSH1 0x0 DUP3 DUP3 LT ISZERO PUSH2 0x52AD JUMPI PUSH2 0x52AD PUSH2 0x502F JUMP JUMPDEST POP SUB SWAP1 JUMP JUMPDEST PUSH4 0x4E487B71 PUSH1 0xE0 SHL PUSH1 0x0 MSTORE PUSH1 0x31 PUSH1 0x4 MSTORE PUSH1 0x24 PUSH1 0x0 REVERT INVALID LOG2 PUSH5 0x6970667358 0x22 SLT KECCAK256 SWAP13 ISZERO DUP7 0xC3 0xC SSTORE 0xA9 0x4C PUSH32 0xB6C162E6F87A098195E2AE0FC632426E87902D1F7D3F1464736F6C6343000809 STOP CALLER "},"methodIdentifiers":{"DEFAULT_ADMIN_ROLE()":"a217fddf","activatePass(uint256)":"47b8c003","addPassMembers(uint256,address[])":"4e6f1c20","approve(address,uint256)":"095ea7b3","balanceOf(address)":"70a08231","batchAirdrop(uint256,address[],uint96[])":"6d1d16de","createPassOption(uint256,uint96,uint256)":"ef08eaa8","deactivatePass(uint256)":"536565c4","disconnectPassMember(uint256)":"7703f6d0","getActivatedOwnerByToken(uint256)":"ce5d4bd8","getActivatedTokenByOwner(address)":"579b7a30","getApproved(uint256)":"081812fc","getDefaultFeeRate()":"3ba484ac","getFeeRate(uint256)":"d2aaef4e","getFeeRateOf(address)":"f675e1b7","getMaxAllowedPassMembers(uint256)":"3bb2a921","getPassMemberAt(uint256,uint256)":"f9662818","getPassMembersCount(uint256)":"476f56b8","getPrice(uint256,uint96)":"9bcd5e04","getRoleAdmin(bytes32)":"248a9ca3","getStage(uint256)":"2e325020","getTokenByPassMember(address)":"e2c118d3","getUpgradePrice(uint256,uint96,uint256,uint96)":"96f5106a","grantRole(bytes32,address)":"2f2ff15d","hasRole(bytes32,address)":"91d14854","isApprovedForAll(address,address)":"e985e9c5","isRedeemed(uint256,bytes32)":"4847ce65","maxAmount(uint256)":"69ada53a","maxPerMint(uint256)":"b8cae92c","maxPerWallet(uint256)":"237b7733","mintCount(uint256,address)":"c61df6a6","name()":"06fdde03","ownerOf(uint256)":"6352211e","presaleActive(uint256)":"4a5bd2fd","presalePurchasePass(uint256,uint96,uint64,uint64,address,bytes32[])":"91e18f45","purchasePass(uint256,uint96,uint64,address)":"9bd2a9be","redeemPass(uint256,uint96,uint64,address,uint256,bytes32,bytes)":"39a30e76","removePassMembers(uint256,address[])":"7cf8577d","renounceRole(bytes32,address)":"36568abe","revokeRole(bytes32,address)":"d547741f","safeTransferFrom(address,address,uint256)":"42842e0e","safeTransferFrom(address,address,uint256,bytes)":"b88d4fde","saleActive(uint256)":"04ca2775","setApprovalForAll(address,bool)":"a22cb465","setBaseURI(string)":"55f804b3","setDefaultFeeRate(uint96)":"75741d2d","setMerkleRoot(uint256,bytes32)":"18712c21","setSigner(address)":"6c19e783","setTreasury(address)":"f0f44260","setUpgradePath(uint256,uint96,uint256,uint96,uint256,bool)":"f9c82202","startSale(uint256,uint256,uint256,uint256,bool)":"789e3a55","stopSale(uint256)":"f8dd1f76","supply(uint256)":"35403023","supportsInterface(bytes4)":"01ffc9a7","switchPassActivation(uint256,uint256)":"2844f794","symbol()":"95d89b41","tokenByIndex(uint256)":"4f6ccce7","tokenOfOwnerByIndex(address,uint256)":"2f745c59","tokenURI(uint256)":"c87b56dd","totalSupply()":"18160ddd","transferFrom(address,address,uint256)":"23b872dd","treasury()":"61d027b3","updatePassOption(uint256,uint96,uint256,bool)":"34f52fc5","upgradePass(uint256,uint256,uint96)":"653fde47","withdraw()":"3ccfd60b"}}}}}