{
  "_format": "hh-sol-artifact-1",
  "contractName": "DropCollection",
  "sourceName": "contracts/DropCollection.sol",
  "abi": [
    {
      "inputs": [
        {
          "internalType": "string",
          "name": "name_",
          "type": "string"
        },
        {
          "internalType": "string",
          "name": "symbol_",
          "type": "string"
        },
        {
          "internalType": "address",
          "name": "treasury_",
          "type": "address"
        },
        {
          "internalType": "address",
          "name": "royalty_",
          "type": "address"
        },
        {
          "internalType": "uint96",
          "name": "royaltyFee_",
          "type": "uint96"
        }
      ],
      "stateMutability": "nonpayable",
      "type": "constructor"
    },
    {
      "anonymous": false,
      "inputs": [
        {
          "indexed": true,
          "internalType": "address",
          "name": "owner",
          "type": "address"
        },
        {
          "indexed": true,
          "internalType": "address",
          "name": "approved",
          "type": "address"
        },
        {
          "indexed": true,
          "internalType": "uint256",
          "name": "tokenId",
          "type": "uint256"
        }
      ],
      "name": "Approval",
      "type": "event"
    },
    {
      "anonymous": false,
      "inputs": [
        {
          "indexed": true,
          "internalType": "address",
          "name": "owner",
          "type": "address"
        },
        {
          "indexed": true,
          "internalType": "address",
          "name": "operator",
          "type": "address"
        },
        {
          "indexed": false,
          "internalType": "bool",
          "name": "approved",
          "type": "bool"
        }
      ],
      "name": "ApprovalForAll",
      "type": "event"
    },
    {
      "anonymous": false,
      "inputs": [
        {
          "indexed": true,
          "internalType": "bytes32",
          "name": "role",
          "type": "bytes32"
        },
        {
          "indexed": true,
          "internalType": "bytes32",
          "name": "previousAdminRole",
          "type": "bytes32"
        },
        {
          "indexed": true,
          "internalType": "bytes32",
          "name": "newAdminRole",
          "type": "bytes32"
        }
      ],
      "name": "RoleAdminChanged",
      "type": "event"
    },
    {
      "anonymous": false,
      "inputs": [
        {
          "indexed": true,
          "internalType": "bytes32",
          "name": "role",
          "type": "bytes32"
        },
        {
          "indexed": true,
          "internalType": "address",
          "name": "account",
          "type": "address"
        },
        {
          "indexed": true,
          "internalType": "address",
          "name": "sender",
          "type": "address"
        }
      ],
      "name": "RoleGranted",
      "type": "event"
    },
    {
      "anonymous": false,
      "inputs": [
        {
          "indexed": true,
          "internalType": "bytes32",
          "name": "role",
          "type": "bytes32"
        },
        {
          "indexed": true,
          "internalType": "address",
          "name": "account",
          "type": "address"
        },
        {
          "indexed": true,
          "internalType": "address",
          "name": "sender",
          "type": "address"
        }
      ],
      "name": "RoleRevoked",
      "type": "event"
    },
    {
      "anonymous": false,
      "inputs": [
        {
          "indexed": true,
          "internalType": "address",
          "name": "from",
          "type": "address"
        },
        {
          "indexed": true,
          "internalType": "address",
          "name": "to",
          "type": "address"
        },
        {
          "indexed": true,
          "internalType": "uint256",
          "name": "tokenId",
          "type": "uint256"
        }
      ],
      "name": "Transfer",
      "type": "event"
    },
    {
      "inputs": [],
      "name": "DEFAULT_ADMIN_ROLE",
      "outputs": [
        {
          "internalType": "bytes32",
          "name": "",
          "type": "bytes32"
        }
      ],
      "stateMutability": "view",
      "type": "function"
    },
    {
      "inputs": [],
      "name": "_treasury",
      "outputs": [
        {
          "internalType": "address",
          "name": "",
          "type": "address"
        }
      ],
      "stateMutability": "view",
      "type": "function"
    },
    {
      "inputs": [
        {
          "internalType": "address",
          "name": "to",
          "type": "address"
        },
        {
          "internalType": "uint256",
          "name": "tokenId",
          "type": "uint256"
        }
      ],
      "name": "approve",
      "outputs": [],
      "stateMutability": "nonpayable",
      "type": "function"
    },
    {
      "inputs": [
        {
          "internalType": "address",
          "name": "owner",
          "type": "address"
        }
      ],
      "name": "balanceOf",
      "outputs": [
        {
          "internalType": "uint256",
          "name": "",
          "type": "uint256"
        }
      ],
      "stateMutability": "view",
      "type": "function"
    },
    {
      "inputs": [
        {
          "internalType": "uint64[]",
          "name": "quantities",
          "type": "uint64[]"
        },
        {
          "internalType": "address[]",
          "name": "recipients",
          "type": "address[]"
        }
      ],
      "name": "batchAirdrop",
      "outputs": [],
      "stateMutability": "nonpayable",
      "type": "function"
    },
    {
      "inputs": [
        {
          "internalType": "uint256",
          "name": "tokenId",
          "type": "uint256"
        }
      ],
      "name": "burn",
      "outputs": [],
      "stateMutability": "nonpayable",
      "type": "function"
    },
    {
      "inputs": [
        {
          "internalType": "uint256",
          "name": "tokenId",
          "type": "uint256"
        }
      ],
      "name": "getApproved",
      "outputs": [
        {
          "internalType": "address",
          "name": "",
          "type": "address"
        }
      ],
      "stateMutability": "view",
      "type": "function"
    },
    {
      "inputs": [
        {
          "internalType": "bytes32",
          "name": "role",
          "type": "bytes32"
        }
      ],
      "name": "getRoleAdmin",
      "outputs": [
        {
          "internalType": "bytes32",
          "name": "",
          "type": "bytes32"
        }
      ],
      "stateMutability": "view",
      "type": "function"
    },
    {
      "inputs": [
        {
          "internalType": "bytes32",
          "name": "role",
          "type": "bytes32"
        },
        {
          "internalType": "address",
          "name": "account",
          "type": "address"
        }
      ],
      "name": "grantRole",
      "outputs": [],
      "stateMutability": "nonpayable",
      "type": "function"
    },
    {
      "inputs": [
        {
          "internalType": "bytes32",
          "name": "role",
          "type": "bytes32"
        },
        {
          "internalType": "address",
          "name": "account",
          "type": "address"
        }
      ],
      "name": "hasRole",
      "outputs": [
        {
          "internalType": "bool",
          "name": "",
          "type": "bool"
        }
      ],
      "stateMutability": "view",
      "type": "function"
    },
    {
      "inputs": [
        {
          "internalType": "address",
          "name": "owner",
          "type": "address"
        },
        {
          "internalType": "address",
          "name": "operator",
          "type": "address"
        }
      ],
      "name": "isApprovedForAll",
      "outputs": [
        {
          "internalType": "bool",
          "name": "",
          "type": "bool"
        }
      ],
      "stateMutability": "view",
      "type": "function"
    },
    {
      "inputs": [],
      "name": "maxAmount",
      "outputs": [
        {
          "internalType": "uint256",
          "name": "",
          "type": "uint256"
        }
      ],
      "stateMutability": "view",
      "type": "function"
    },
    {
      "inputs": [],
      "name": "maxPerMint",
      "outputs": [
        {
          "internalType": "uint256",
          "name": "",
          "type": "uint256"
        }
      ],
      "stateMutability": "view",
      "type": "function"
    },
    {
      "inputs": [],
      "name": "maxPerWallet",
      "outputs": [
        {
          "internalType": "uint256",
          "name": "",
          "type": "uint256"
        }
      ],
      "stateMutability": "view",
      "type": "function"
    },
    {
      "inputs": [
        {
          "internalType": "uint64",
          "name": "quantity",
          "type": "uint64"
        }
      ],
      "name": "mint",
      "outputs": [],
      "stateMutability": "payable",
      "type": "function"
    },
    {
      "inputs": [
        {
          "internalType": "address",
          "name": "recipient",
          "type": "address"
        },
        {
          "internalType": "uint64",
          "name": "quantity",
          "type": "uint64"
        }
      ],
      "name": "mintTo",
      "outputs": [],
      "stateMutability": "payable",
      "type": "function"
    },
    {
      "inputs": [],
      "name": "name",
      "outputs": [
        {
          "internalType": "string",
          "name": "",
          "type": "string"
        }
      ],
      "stateMutability": "view",
      "type": "function"
    },
    {
      "inputs": [
        {
          "internalType": "uint256",
          "name": "tokenId",
          "type": "uint256"
        }
      ],
      "name": "ownerOf",
      "outputs": [
        {
          "internalType": "address",
          "name": "",
          "type": "address"
        }
      ],
      "stateMutability": "view",
      "type": "function"
    },
    {
      "inputs": [],
      "name": "presaleActive",
      "outputs": [
        {
          "internalType": "bool",
          "name": "",
          "type": "bool"
        }
      ],
      "stateMutability": "view",
      "type": "function"
    },
    {
      "inputs": [
        {
          "internalType": "uint64",
          "name": "quantity",
          "type": "uint64"
        },
        {
          "internalType": "uint256",
          "name": "allowed",
          "type": "uint256"
        },
        {
          "internalType": "bytes32[]",
          "name": "proof",
          "type": "bytes32[]"
        }
      ],
      "name": "presaleMint",
      "outputs": [],
      "stateMutability": "payable",
      "type": "function"
    },
    {
      "inputs": [
        {
          "internalType": "address",
          "name": "recipient",
          "type": "address"
        },
        {
          "internalType": "uint64",
          "name": "quantity",
          "type": "uint64"
        },
        {
          "internalType": "uint256",
          "name": "allowed",
          "type": "uint256"
        },
        {
          "internalType": "bytes32[]",
          "name": "proof",
          "type": "bytes32[]"
        }
      ],
      "name": "presaleMintTo",
      "outputs": [],
      "stateMutability": "payable",
      "type": "function"
    },
    {
      "inputs": [],
      "name": "price",
      "outputs": [
        {
          "internalType": "uint256",
          "name": "",
          "type": "uint256"
        }
      ],
      "stateMutability": "view",
      "type": "function"
    },
    {
      "inputs": [
        {
          "internalType": "bytes32",
          "name": "role",
          "type": "bytes32"
        },
        {
          "internalType": "address",
          "name": "account",
          "type": "address"
        }
      ],
      "name": "renounceRole",
      "outputs": [],
      "stateMutability": "nonpayable",
      "type": "function"
    },
    {
      "inputs": [
        {
          "internalType": "bytes32",
          "name": "role",
          "type": "bytes32"
        },
        {
          "internalType": "address",
          "name": "account",
          "type": "address"
        }
      ],
      "name": "revokeRole",
      "outputs": [],
      "stateMutability": "nonpayable",
      "type": "function"
    },
    {
      "inputs": [
        {
          "internalType": "uint256",
          "name": "_tokenId",
          "type": "uint256"
        },
        {
          "internalType": "uint256",
          "name": "_salePrice",
          "type": "uint256"
        }
      ],
      "name": "royaltyInfo",
      "outputs": [
        {
          "internalType": "address",
          "name": "",
          "type": "address"
        },
        {
          "internalType": "uint256",
          "name": "",
          "type": "uint256"
        }
      ],
      "stateMutability": "view",
      "type": "function"
    },
    {
      "inputs": [
        {
          "internalType": "address",
          "name": "from",
          "type": "address"
        },
        {
          "internalType": "address",
          "name": "to",
          "type": "address"
        },
        {
          "internalType": "uint256",
          "name": "tokenId",
          "type": "uint256"
        }
      ],
      "name": "safeTransferFrom",
      "outputs": [],
      "stateMutability": "nonpayable",
      "type": "function"
    },
    {
      "inputs": [
        {
          "internalType": "address",
          "name": "from",
          "type": "address"
        },
        {
          "internalType": "address",
          "name": "to",
          "type": "address"
        },
        {
          "internalType": "uint256",
          "name": "tokenId",
          "type": "uint256"
        },
        {
          "internalType": "bytes",
          "name": "data",
          "type": "bytes"
        }
      ],
      "name": "safeTransferFrom",
      "outputs": [],
      "stateMutability": "nonpayable",
      "type": "function"
    },
    {
      "inputs": [],
      "name": "saleActive",
      "outputs": [
        {
          "internalType": "bool",
          "name": "",
          "type": "bool"
        }
      ],
      "stateMutability": "view",
      "type": "function"
    },
    {
      "inputs": [
        {
          "internalType": "address",
          "name": "operator",
          "type": "address"
        },
        {
          "internalType": "bool",
          "name": "approved",
          "type": "bool"
        }
      ],
      "name": "setApprovalForAll",
      "outputs": [],
      "stateMutability": "nonpayable",
      "type": "function"
    },
    {
      "inputs": [
        {
          "internalType": "string",
          "name": "newBaseURI",
          "type": "string"
        }
      ],
      "name": "setBaseURI",
      "outputs": [],
      "stateMutability": "nonpayable",
      "type": "function"
    },
    {
      "inputs": [
        {
          "internalType": "bytes32",
          "name": "newRoot",
          "type": "bytes32"
        }
      ],
      "name": "setMerkleRoot",
      "outputs": [],
      "stateMutability": "nonpayable",
      "type": "function"
    },
    {
      "inputs": [
        {
          "internalType": "address",
          "name": "_receiver",
          "type": "address"
        },
        {
          "internalType": "uint96",
          "name": "_royaltyFeesInBips",
          "type": "uint96"
        }
      ],
      "name": "setRoyaltyInfo",
      "outputs": [],
      "stateMutability": "nonpayable",
      "type": "function"
    },
    {
      "inputs": [
        {
          "internalType": "uint256",
          "name": "newMaxAmount",
          "type": "uint256"
        },
        {
          "internalType": "uint256",
          "name": "newMaxPerMint",
          "type": "uint256"
        },
        {
          "internalType": "uint256",
          "name": "newMaxPerWallet",
          "type": "uint256"
        },
        {
          "internalType": "uint256",
          "name": "newPrice",
          "type": "uint256"
        },
        {
          "internalType": "bool",
          "name": "presale",
          "type": "bool"
        }
      ],
      "name": "startSale",
      "outputs": [],
      "stateMutability": "nonpayable",
      "type": "function"
    },
    {
      "inputs": [],
      "name": "stopSale",
      "outputs": [],
      "stateMutability": "nonpayable",
      "type": "function"
    },
    {
      "inputs": [
        {
          "internalType": "bytes4",
          "name": "interfaceId",
          "type": "bytes4"
        }
      ],
      "name": "supportsInterface",
      "outputs": [
        {
          "internalType": "bool",
          "name": "",
          "type": "bool"
        }
      ],
      "stateMutability": "view",
      "type": "function"
    },
    {
      "inputs": [],
      "name": "symbol",
      "outputs": [
        {
          "internalType": "string",
          "name": "",
          "type": "string"
        }
      ],
      "stateMutability": "view",
      "type": "function"
    },
    {
      "inputs": [
        {
          "internalType": "uint256",
          "name": "index",
          "type": "uint256"
        }
      ],
      "name": "tokenByIndex",
      "outputs": [
        {
          "internalType": "uint256",
          "name": "",
          "type": "uint256"
        }
      ],
      "stateMutability": "view",
      "type": "function"
    },
    {
      "inputs": [
        {
          "internalType": "address",
          "name": "owner",
          "type": "address"
        },
        {
          "internalType": "uint256",
          "name": "index",
          "type": "uint256"
        }
      ],
      "name": "tokenOfOwnerByIndex",
      "outputs": [
        {
          "internalType": "uint256",
          "name": "",
          "type": "uint256"
        }
      ],
      "stateMutability": "view",
      "type": "function"
    },
    {
      "inputs": [
        {
          "internalType": "uint256",
          "name": "tokenId",
          "type": "uint256"
        }
      ],
      "name": "tokenURI",
      "outputs": [
        {
          "internalType": "string",
          "name": "",
          "type": "string"
        }
      ],
      "stateMutability": "view",
      "type": "function"
    },
    {
      "inputs": [],
      "name": "totalRevenue",
      "outputs": [
        {
          "internalType": "uint256",
          "name": "",
          "type": "uint256"
        }
      ],
      "stateMutability": "view",
      "type": "function"
    },
    {
      "inputs": [],
      "name": "totalSupply",
      "outputs": [
        {
          "internalType": "uint256",
          "name": "",
          "type": "uint256"
        }
      ],
      "stateMutability": "view",
      "type": "function"
    },
    {
      "inputs": [
        {
          "internalType": "address",
          "name": "from",
          "type": "address"
        },
        {
          "internalType": "address",
          "name": "to",
          "type": "address"
        },
        {
          "internalType": "uint256",
          "name": "tokenId",
          "type": "uint256"
        }
      ],
      "name": "transferFrom",
      "outputs": [],
      "stateMutability": "nonpayable",
      "type": "function"
    },
    {
      "inputs": [],
      "name": "withdraw",
      "outputs": [],
      "stateMutability": "nonpayable",
      "type": "function"
    }
  ],
  "bytecode": "0x60806040526016805461ffff191690553480156200001c57600080fd5b5060405162003a3938038062003a398339810160408190526200003f91620003f1565b8451859085906200005890600090602085019062000261565b5080516200006e90600190602084019062000261565b506200008091506000905033620000b7565b6200008c82826200015c565b5050601080546001600160a01b0319166001600160a01b039290921691909117905550620004e09050565b6000828152600a602090815260408083206001600160a01b038516845290915290205460ff1662000158576000828152600a602090815260408083206001600160a01b03851684529091529020805460ff19166001179055620001173390565b6001600160a01b0316816001600160a01b0316837f2f8788117e7eff1d82e926ec794901d17c78024a50270940304540a733656f0d60405160405180910390a45b5050565b6127106001600160601b0382161115620001d05760405162461bcd60e51b815260206004820152602a60248201527f455243323938313a20726f79616c7479206665652077696c6c206578636565646044820152692073616c65507269636560b01b60648201526084015b60405180910390fd5b6001600160a01b038216620002285760405162461bcd60e51b815260206004820152601960248201527f455243323938313a20696e76616c6964207265636569766572000000000000006044820152606401620001c7565b604080518082019091526001600160a01b039092168083526001600160601b039091166020909201829052600160a01b90910217600b55565b8280546200026f90620004a3565b90600052602060002090601f016020900481019282620002935760008555620002de565b82601f10620002ae57805160ff1916838001178555620002de565b82800160010185558215620002de579182015b82811115620002de578251825591602001919060010190620002c1565b50620002ec929150620002f0565b5090565b5b80821115620002ec5760008155600101620002f1565b634e487b7160e01b600052604160045260246000fd5b600082601f8301126200032f57600080fd5b81516001600160401b03808211156200034c576200034c62000307565b604051601f8301601f19908116603f0116810190828211818310171562000377576200037762000307565b816040528381526020925086838588010111156200039457600080fd5b600091505b83821015620003b8578582018301518183018401529082019062000399565b83821115620003ca5760008385830101525b9695505050505050565b80516001600160a01b0381168114620003ec57600080fd5b919050565b600080600080600060a086880312156200040a57600080fd5b85516001600160401b03808211156200042257600080fd5b6200043089838a016200031d565b965060208801519150808211156200044757600080fd5b5062000456888289016200031d565b9450506200046760408701620003d4565b92506200047760608701620003d4565b60808701519092506001600160601b03811681146200049557600080fd5b809150509295509295909350565b600181811c90821680620004b857607f821691505b60208210811415620004da57634e487b7160e01b600052602260045260246000fd5b50919050565b61354980620004f06000396000f3fe60806040526004361061025c5760003560e01c80635f48f39311610144578063a22cb465116100b6578063d547741f1161007a578063d547741f146106e3578063e319a3d914610703578063e36b0b3714610723578063e985e9c514610738578063fb9d09c814610781578063fd51fae81461079457600080fd5b8063a22cb4651461064e578063b88d4fde1461066e578063bf2d9e0b1461068e578063c87b56dd146106a3578063d53ab501146106c357600080fd5b80637cb64759116101085780637cb64759146105bc57806391d14854146105dc57806393d756aa146105fc57806395d89b411461060f578063a035b1fe14610624578063a217fddf1461063957600080fd5b80635f48f3931461052a5780636352211e1461053f57806368428a1b1461055f57806370a082311461057c578063789e3a551461059c57600080fd5b80632f745c59116101dd57806342966c68116101a157806342966c6814610488578063453c2310146104a85780634f6ccce7146104bd578063507e094f146104dd57806353135ca0146104f257806355f804b31461050a57600080fd5b80632f745c591461040057806336568abe14610420578063386bacdc146104405780633ccfd60b1461045357806342842e0e1461046857600080fd5b806318160ddd1161022457806318160ddd1461033257806323b872dd14610351578063248a9ca3146103715780632a55205a146103a15780632f2ff15d146103e057600080fd5b806301ffc9a71461026157806302fa7c471461029657806306fdde03146102b8578063081812fc146102da578063095ea7b314610312575b600080fd5b34801561026d57600080fd5b5061028161027c366004612bc8565b6107a7565b60405190151581526020015b60405180910390f35b3480156102a257600080fd5b506102b66102b1366004612c01565b6107d2565b005b3480156102c457600080fd5b506102cd6107ec565b60405161028d9190612c9c565b3480156102e657600080fd5b506102fa6102f5366004612caf565b61087e565b6040516001600160a01b03909116815260200161028d565b34801561031e57600080fd5b506102b661032d366004612cc8565b6108a5565b34801561033e57600080fd5b506008545b60405190815260200161028d565b34801561035d57600080fd5b506102b661036c366004612cf2565b6109bb565b34801561037d57600080fd5b5061034361038c366004612caf565b6000908152600a602052604090206001015490565b3480156103ad57600080fd5b506103c16103bc366004612d2e565b6109ec565b604080516001600160a01b03909316835260208301919091520161028d565b3480156103ec57600080fd5b506102b66103fb366004612d50565b610a9a565b34801561040c57600080fd5b5061034361041b366004612cc8565b610abf565b34801561042c57600080fd5b506102b661043b366004612d50565b610b55565b6102b661044e366004612dd7565b610bd3565b34801561045f57600080fd5b506102b6610e45565b34801561047457600080fd5b506102b6610483366004612cf2565b610ea4565b34801561049457600080fd5b506102b66104a3366004612caf565b610ebf565b3480156104b457600080fd5b50601454610343565b3480156104c957600080fd5b506103436104d8366004612caf565b610f0f565b3480156104e957600080fd5b50601354610343565b3480156104fe57600080fd5b5060165460ff16610281565b34801561051657600080fd5b506102b6610525366004612ebb565b610fa2565b34801561053657600080fd5b50601254610343565b34801561054b57600080fd5b506102fa61055a366004612caf565b610fc0565b34801561056b57600080fd5b50601654610100900460ff16610281565b34801561058857600080fd5b50610343610597366004612f03565b611020565b3480156105a857600080fd5b506102b66105b7366004612f2e565b6110a6565b3480156105c857600080fd5b506102b66105d7366004612caf565b6110de565b3480156105e857600080fd5b506102816105f7366004612d50565b6110ef565b6102b661060a366004612f77565b61111a565b34801561061b57600080fd5b506102cd61129c565b34801561063057600080fd5b50601554610343565b34801561064557600080fd5b50610343600081565b34801561065a57600080fd5b506102b6610669366004612fa1565b6112ab565b34801561067a57600080fd5b506102b6610689366004612fcb565b6112b6565b34801561069a57600080fd5b50601154610343565b3480156106af57600080fd5b506102cd6106be366004612caf565b6112ee565b3480156106cf57600080fd5b506102b66106de366004613046565b611355565b3480156106ef57600080fd5b506102b66106fe366004612d50565b611416565b34801561070f57600080fd5b506010546102fa906001600160a01b031681565b34801561072f57600080fd5b506102b661143b565b34801561074457600080fd5b506102816107533660046130a5565b6001600160a01b03918216600090815260056020908152604080832093909416825291909152205460ff1690565b6102b661078f3660046130cf565b611454565b6102b66107a23660046130ea565b6115c1565b600063152a902d60e11b6001600160e01b0319831614806107cc57506107cc82611807565b92915050565b60006107dd8161182c565b6107e78383611839565b505050565b6060600080546107fb90613158565b80601f016020809104026020016040519081016040528092919081815260200182805461082790613158565b80156108745780601f1061084957610100808354040283529160200191610874565b820191906000526020600020905b81548152906001019060200180831161085757829003601f168201915b5050505050905090565b600061088982611936565b506000908152600460205260409020546001600160a01b031690565b60006108b082610fc0565b9050806001600160a01b0316836001600160a01b031614156109235760405162461bcd60e51b815260206004820152602160248201527f4552433732313a20617070726f76616c20746f2063757272656e74206f776e656044820152603960f91b60648201526084015b60405180910390fd5b336001600160a01b038216148061093f575061093f8133610753565b6109b15760405162461bcd60e51b815260206004820152603d60248201527f4552433732313a20617070726f76652063616c6c6572206973206e6f7420746f60448201527f6b656e206f776e6572206f7220617070726f76656420666f7220616c6c000000606482015260840161091a565b6107e78383611995565b6109c53382611a03565b6109e15760405162461bcd60e51b815260040161091a90613193565b6107e7838383611a82565b6000828152600c602090815260408083208151808301909252546001600160a01b038116808352600160a01b9091046001600160601b0316928201929092528291610a61575060408051808201909152600b546001600160a01b0381168252600160a01b90046001600160601b031660208201525b602081015160009061271090610a80906001600160601b0316876131f6565b610a8a9190613215565b91519350909150505b9250929050565b6000828152600a6020526040902060010154610ab58161182c565b6107e78383611bf3565b6000610aca83611020565b8210610b2c5760405162461bcd60e51b815260206004820152602b60248201527f455243373231456e756d657261626c653a206f776e657220696e646578206f7560448201526a74206f6620626f756e647360a81b606482015260840161091a565b506001600160a01b03919091166000908152600660209081526040808320938352929052205490565b6001600160a01b0381163314610bc55760405162461bcd60e51b815260206004820152602f60248201527f416363657373436f6e74726f6c3a2063616e206f6e6c792072656e6f756e636560448201526e103937b632b9903337b91039b2b63360891b606482015260840161091a565b610bcf8282611c79565b5050565b836000816001600160401b031611610bfd5760405162461bcd60e51b815260040161091a90613237565b600060125411610c0e576001610c30565b601254610c2d826001600160401b0316610c2760085490565b90611ce0565b11155b610c4c5760405162461bcd60e51b815260040161091a9061325e565b601354816001600160401b03161115610c775760405162461bcd60e51b815260040161091a9061328b565b6000610cab6001600160401b038716600d83335b6001600160a01b0316815260208101919091526040016000205490611ce0565b60165490915060ff16610cf55760405162461bcd60e51b815260206004820152601260248201527150726573616c65206e6f742061637469766560701b604482015260640161091a565b600e54610d365760405162461bcd60e51b815260206004820152600f60248201526e141c995cd85b19481b9bdd081cd95d608a1b604482015260640161091a565b601454811115610d585760405162461bcd60e51b815260040161091a906132ba565b84811115610d785760405162461bcd60e51b815260040161091a906132ba565b610df584848080602002602001604051908101604052809392919081815260200183836020028082843760009201919091525050600e546040516bffffffffffffffffffffffff193360601b166020820152603481018b905290925060540190505b60405160208183030381529060405280519060200120611cec565b610e335760405162461bcd60e51b815260206004820152600f60248201526e141c995cd85b19481a5b9d985b1a59608a1b604482015260640161091a565b610e3d8633611d02565b505050505050565b6000610e508161182c565b60004711610e8c5760405162461bcd60e51b8152602060048201526009602482015268302062616c616e636560b81b604482015260640161091a565b6010544790610bcf906001600160a01b031682611db9565b6107e7838383604051806020016040528060008152506112b6565b6000610eca8161182c565b333b610f065760405162461bcd60e51b815260206004820152600b60248201526a139bdd08105b1b1bddd95960aa1b604482015260640161091a565b610bcf82611ed2565b6000610f1a60085490565b8210610f7d5760405162461bcd60e51b815260206004820152602c60248201527f455243373231456e756d657261626c653a20676c6f62616c20696e646578206f60448201526b7574206f6620626f756e647360a01b606482015260840161091a565b60088281548110610f9057610f906132f1565b90600052602060002001549050919050565b6000610fad8161182c565b81516107e790600f906020850190612b19565b6000818152600260205260408120546001600160a01b0316806107cc5760405162461bcd60e51b8152602060048201526018602482015277115490cdcc8c4e881a5b9d985b1a59081d1bdad95b88125160421b604482015260640161091a565b60006001600160a01b03821661108a5760405162461bcd60e51b815260206004820152602960248201527f4552433732313a2061646472657373207a65726f206973206e6f7420612076616044820152683634b21037bbb732b960b91b606482015260840161091a565b506001600160a01b031660009081526003602052604090205490565b60006110b18161182c565b506016805491151561ffff1990921691909117610100179055601293909355601391909155601455601555565b60006110e98161182c565b50600e55565b6000918252600a602090815260408084206001600160a01b0393909316845291905290205460ff1690565b806000816001600160401b0316116111445760405162461bcd60e51b815260040161091a90613237565b600060125411611155576001611171565b60125461116e826001600160401b0316610c2760085490565b11155b61118d5760405162461bcd60e51b815260040161091a9061325e565b601354816001600160401b031611156111b85760405162461bcd60e51b815260040161091a9061328b565b60165460ff16156111fc5760405162461bcd60e51b815260206004820152600e60248201526d50726573616c652061637469766560901b604482015260640161091a565b601654610100900460ff166112455760405162461bcd60e51b815260206004820152600f60248201526e53616c65206e6f742061637469766560881b604482015260640161091a565b6014546001600160a01b0384166000908152600d6020526040902054611274906001600160401b038516611ce0565b11156112925760405162461bcd60e51b815260040161091a906132ba565b6107e78284611d02565b6060600180546107fb90613158565b610bcf338383611f75565b6112c03383611a03565b6112dc5760405162461bcd60e51b815260040161091a90613193565b6112e884848484612044565b50505050565b60606112f982611936565b6000611303612077565b90506000815111611323576040518060200160405280600081525061134e565b8061132d84612086565b60405160200161133e929190613307565b6040516020818303038152906040525b9392505050565b60006113608161182c565b818481146113a45760405162461bcd60e51b8152602060048201526011602482015270496e76616c696420417267756d656e747360781b604482015260640161091a565b60005b8181101561140d576114058787838181106113c4576113c46132f1565b90506020020160208101906113d991906130cf565b8686848181106113eb576113eb6132f1565b90506020020160208101906114009190612f03565b612122565b6001016113a7565b50505050505050565b6000828152600a60205260409020600101546114318161182c565b6107e78383611c79565b60006114468161182c565b506016805461ffff19169055565b806000816001600160401b03161161147e5760405162461bcd60e51b815260040161091a90613237565b60006012541161148f5760016114ab565b6012546114a8826001600160401b0316610c2760085490565b11155b6114c75760405162461bcd60e51b815260040161091a9061325e565b601354816001600160401b031611156114f25760405162461bcd60e51b815260040161091a9061328b565b60165460ff16156115365760405162461bcd60e51b815260206004820152600e60248201526d50726573616c652061637469766560901b604482015260640161091a565b601654610100900460ff1661157f5760405162461bcd60e51b815260206004820152600f60248201526e53616c65206e6f742061637469766560881b604482015260640161091a565b6014546115996001600160401b038416600d600033610c8b565b11156115b75760405162461bcd60e51b815260040161091a906132ba565b610bcf8233611d02565b836000816001600160401b0316116115eb5760405162461bcd60e51b815260040161091a90613237565b6000601254116115fc576001611618565b601254611615826001600160401b0316610c2760085490565b11155b6116345760405162461bcd60e51b815260040161091a9061325e565b601354816001600160401b0316111561165f5760405162461bcd60e51b815260040161091a9061328b565b6001600160a01b0386166000908152600d602052604081205461168b906001600160401b038816611ce0565b60165490915060ff166116d55760405162461bcd60e51b815260206004820152601260248201527150726573616c65206e6f742061637469766560701b604482015260640161091a565b600e546117165760405162461bcd60e51b815260206004820152600f60248201526e141c995cd85b19481b9bdd081cd95d608a1b604482015260640161091a565b6014548111156117385760405162461bcd60e51b815260040161091a906132ba565b848111156117585760405162461bcd60e51b815260040161091a906132ba565b6117bf84848080602002602001604051908101604052809392919081815260200183836020028082843760009201919091525050600e546040516bffffffffffffffffffffffff1960608e901b166020820152603481018b90529092506054019050610dda565b6117fd5760405162461bcd60e51b815260206004820152600f60248201526e141c995cd85b19481a5b9d985b1a59608a1b604482015260640161091a565b61140d8688611d02565b60006001600160e01b0319821663152a902d60e11b14806107cc57506107cc8261215e565b6118368133612183565b50565b6127106001600160601b03821611156118a75760405162461bcd60e51b815260206004820152602a60248201527f455243323938313a20726f79616c7479206665652077696c6c206578636565646044820152692073616c65507269636560b01b606482015260840161091a565b6001600160a01b0382166118fd5760405162461bcd60e51b815260206004820152601960248201527f455243323938313a20696e76616c696420726563656976657200000000000000604482015260640161091a565b604080518082019091526001600160a01b039092168083526001600160601b039091166020909201829052600160a01b90910217600b55565b6000818152600260205260409020546001600160a01b03166118365760405162461bcd60e51b8152602060048201526018602482015277115490cdcc8c4e881a5b9d985b1a59081d1bdad95b88125160421b604482015260640161091a565b600081815260046020526040902080546001600160a01b0319166001600160a01b03841690811790915581906119ca82610fc0565b6001600160a01b03167f8c5be1e5ebec7d5bd14f71427d1e84f3dd0314c0f7b2291e5b200ac8c7c3b92560405160405180910390a45050565b600080611a0f83610fc0565b9050806001600160a01b0316846001600160a01b03161480611a5657506001600160a01b0380821660009081526005602090815260408083209388168352929052205460ff165b80611a7a5750836001600160a01b0316611a6f8461087e565b6001600160a01b0316145b949350505050565b826001600160a01b0316611a9582610fc0565b6001600160a01b031614611abb5760405162461bcd60e51b815260040161091a90613336565b6001600160a01b038216611b1d5760405162461bcd60e51b8152602060048201526024808201527f4552433732313a207472616e7366657220746f20746865207a65726f206164646044820152637265737360e01b606482015260840161091a565b611b2a83838360016121dc565b826001600160a01b0316611b3d82610fc0565b6001600160a01b031614611b635760405162461bcd60e51b815260040161091a90613336565b600081815260046020908152604080832080546001600160a01b03199081169091556001600160a01b0387811680865260038552838620805460001901905590871680865283862080546001019055868652600290945282852080549092168417909155905184937fddf252ad1be2c89b69c2b068fc378daa952ba7f163c4a11628f55a4df523b3ef91a4505050565b611bfd82826110ef565b610bcf576000828152600a602090815260408083206001600160a01b03851684529091529020805460ff19166001179055611c353390565b6001600160a01b0316816001600160a01b0316837f2f8788117e7eff1d82e926ec794901d17c78024a50270940304540a733656f0d60405160405180910390a45050565b611c8382826110ef565b15610bcf576000828152600a602090815260408083206001600160a01b0385168085529252808320805460ff1916905551339285917ff6391f5c32d9c69d2a47ea670b442974b53935d1edc7fd64eb21e047a839171b9190a45050565b600061134e828461337b565b600082611cf985846121e8565b14949350505050565b6015543490611d1a906001600160401b03851661222d565b1115611d5a5760405162461bcd60e51b815260206004820152600f60248201526e15985b1d59481a5b98dbdc9c9958dd608a1b604482015260640161091a565b601154611d679034611ce0565b6011556001600160a01b0381166000908152600d6020526040902054611d96906001600160401b038416611ce0565b6001600160a01b0382166000908152600d6020526040902055610bcf8282612122565b80471015611e095760405162461bcd60e51b815260206004820152601d60248201527f416464726573733a20696e73756666696369656e742062616c616e6365000000604482015260640161091a565b6000826001600160a01b03168260405160006040518083038185875af1925050503d8060008114611e56576040519150601f19603f3d011682016040523d82523d6000602084013e611e5b565b606091505b50509050806107e75760405162461bcd60e51b815260206004820152603a60248201527f416464726573733a20756e61626c6520746f2073656e642076616c75652c207260448201527f6563697069656e74206d61792068617665207265766572746564000000000000606482015260840161091a565b6000611edd82610fc0565b9050611eed8160008460016121dc565b611ef682610fc0565b600083815260046020908152604080832080546001600160a01b03199081169091556001600160a01b0385168085526003845282852080546000190190558785526002909352818420805490911690555192935084927fddf252ad1be2c89b69c2b068fc378daa952ba7f163c4a11628f55a4df523b3ef908390a45050565b816001600160a01b0316836001600160a01b03161415611fd75760405162461bcd60e51b815260206004820152601960248201527f4552433732313a20617070726f766520746f2063616c6c657200000000000000604482015260640161091a565b6001600160a01b03838116600081815260056020908152604080832094871680845294825291829020805460ff191686151590811790915591519182527f17307eab39ab6107e8899845ad3d59bd9653f200f220920489ca2b5937696c31910160405180910390a3505050565b61204f848484611a82565b61205b84848484612239565b6112e85760405162461bcd60e51b815260040161091a90613393565b6060600f80546107fb90613158565b6060600061209383612346565b60010190506000816001600160401b038111156120b2576120b2612e30565b6040519080825280601f01601f1916602001820160405280156120dc576020820181803683370190505b5090508181016020015b600019016f181899199a1a9b1b9c1cb0b131b232b360811b600a86061a8153600a85049450846121155761211a565b6120e6565b509392505050565b60005b826001600160401b0316816001600160401b031610156107e757612156826121516001610c2760085490565b61241e565b600101612125565b60006001600160e01b03198216637965db0b60e01b14806107cc57506107cc82612438565b61218d82826110ef565b610bcf5761219a8161245d565b6121a583602061246f565b6040516020016121b69291906133e5565b60408051601f198184030181529082905262461bcd60e51b825261091a91600401612c9c565b6112e88484848461260a565b600081815b845181101561211a576122198286838151811061220c5761220c6132f1565b602002602001015161273e565b9150806122258161345a565b9150506121ed565b600061134e82846131f6565b60006001600160a01b0384163b1561233b57604051630a85bd0160e11b81526001600160a01b0385169063150b7a029061227d903390899088908890600401613475565b602060405180830381600087803b15801561229757600080fd5b505af19250505080156122c7575060408051601f3d908101601f191682019092526122c4918101906134b2565b60015b612321573d8080156122f5576040519150601f19603f3d011682016040523d82523d6000602084013e6122fa565b606091505b5080516123195760405162461bcd60e51b815260040161091a90613393565b805181602001fd5b6001600160e01b031916630a85bd0160e11b149050611a7a565b506001949350505050565b60008072184f03e93ff9f4daa797ed6e38ed64bf6a1f0160401b83106123855772184f03e93ff9f4daa797ed6e38ed64bf6a1f0160401b830492506040015b6d04ee2d6d415b85acef810000000083106123b1576d04ee2d6d415b85acef8100000000830492506020015b662386f26fc1000083106123cf57662386f26fc10000830492506010015b6305f5e10083106123e7576305f5e100830492506008015b61271083106123fb57612710830492506004015b6064831061240d576064830492506002015b600a83106107cc5760010192915050565b610bcf82826040518060200160405280600081525061276d565b60006001600160e01b0319821663780e9d6360e01b14806107cc57506107cc826127a0565b60606107cc6001600160a01b03831660145b6060600061247e8360026131f6565b61248990600261337b565b6001600160401b038111156124a0576124a0612e30565b6040519080825280601f01601f1916602001820160405280156124ca576020820181803683370190505b509050600360fc1b816000815181106124e5576124e56132f1565b60200101906001600160f81b031916908160001a905350600f60fb1b81600181518110612514576125146132f1565b60200101906001600160f81b031916908160001a90535060006125388460026131f6565b61254390600161337b565b90505b60018111156125bb576f181899199a1a9b1b9c1cb0b131b232b360811b85600f1660108110612577576125776132f1565b1a60f81b82828151811061258d5761258d6132f1565b60200101906001600160f81b031916908160001a90535060049490941c936125b4816134cf565b9050612546565b50831561134e5760405162461bcd60e51b815260206004820181905260248201527f537472696e67733a20686578206c656e67746820696e73756666696369656e74604482015260640161091a565b60018111156126795760405162461bcd60e51b815260206004820152603560248201527f455243373231456e756d657261626c653a20636f6e7365637574697665207472604482015274185b9cd9995c9cc81b9bdd081cdd5c1c1bdc9d1959605a1b606482015260840161091a565b816001600160a01b0385166126d5576126d081600880546000838152600960205260408120829055600182018355919091527ff3f7a9fe364faab93b216da50a3214154f22a0a2b415b23a84c8169e8b636ee30155565b6126f8565b836001600160a01b0316856001600160a01b0316146126f8576126f885826127f0565b6001600160a01b0384166127145761270f8161288d565b612737565b846001600160a01b0316846001600160a01b03161461273757612737848261293c565b5050505050565b600081831061275a57600082815260208490526040902061134e565b600083815260208390526040902061134e565b6127778383612980565b6127846000848484612239565b6107e75760405162461bcd60e51b815260040161091a90613393565b60006001600160e01b031982166380ac58cd60e01b14806127d157506001600160e01b03198216635b5e139f60e01b145b806107cc57506301ffc9a760e01b6001600160e01b03198316146107cc565b600060016127fd84611020565b61280791906134e6565b60008381526007602052604090205490915080821461285a576001600160a01b03841660009081526006602090815260408083208584528252808320548484528184208190558352600790915290208190555b5060009182526007602090815260408084208490556001600160a01b039094168352600681528383209183525290812055565b60085460009061289f906001906134e6565b600083815260096020526040812054600880549394509092849081106128c7576128c76132f1565b9060005260206000200154905080600883815481106128e8576128e86132f1565b6000918252602080832090910192909255828152600990915260408082208490558582528120556008805480612920576129206134fd565b6001900381819060005260206000200160009055905550505050565b600061294783611020565b6001600160a01b039093166000908152600660209081526040808320868452825280832085905593825260079052919091209190915550565b6001600160a01b0382166129d65760405162461bcd60e51b815260206004820181905260248201527f4552433732313a206d696e7420746f20746865207a65726f2061646472657373604482015260640161091a565b6000818152600260205260409020546001600160a01b031615612a3b5760405162461bcd60e51b815260206004820152601c60248201527f4552433732313a20746f6b656e20616c7265616479206d696e74656400000000604482015260640161091a565b612a496000838360016121dc565b6000818152600260205260409020546001600160a01b031615612aae5760405162461bcd60e51b815260206004820152601c60248201527f4552433732313a20746f6b656e20616c7265616479206d696e74656400000000604482015260640161091a565b6001600160a01b038216600081815260036020908152604080832080546001019055848352600290915280822080546001600160a01b0319168417905551839291907fddf252ad1be2c89b69c2b068fc378daa952ba7f163c4a11628f55a4df523b3ef908290a45050565b828054612b2590613158565b90600052602060002090601f016020900481019282612b475760008555612b8d565b82601f10612b6057805160ff1916838001178555612b8d565b82800160010185558215612b8d579182015b82811115612b8d578251825591602001919060010190612b72565b50612b99929150612b9d565b5090565b5b80821115612b995760008155600101612b9e565b6001600160e01b03198116811461183657600080fd5b600060208284031215612bda57600080fd5b813561134e81612bb2565b80356001600160a01b0381168114612bfc57600080fd5b919050565b60008060408385031215612c1457600080fd5b612c1d83612be5565b915060208301356001600160601b0381168114612c3957600080fd5b809150509250929050565b60005b83811015612c5f578181015183820152602001612c47565b838111156112e85750506000910152565b60008151808452612c88816020860160208601612c44565b601f01601f19169290920160200192915050565b60208152600061134e6020830184612c70565b600060208284031215612cc157600080fd5b5035919050565b60008060408385031215612cdb57600080fd5b612ce483612be5565b946020939093013593505050565b600080600060608486031215612d0757600080fd5b612d1084612be5565b9250612d1e60208501612be5565b9150604084013590509250925092565b60008060408385031215612d4157600080fd5b50508035926020909101359150565b60008060408385031215612d6357600080fd5b82359150612d7360208401612be5565b90509250929050565b80356001600160401b0381168114612bfc57600080fd5b60008083601f840112612da557600080fd5b5081356001600160401b03811115612dbc57600080fd5b6020830191508360208260051b8501011115610a9357600080fd5b60008060008060608587031215612ded57600080fd5b612df685612d7c565b93506020850135925060408501356001600160401b03811115612e1857600080fd5b612e2487828801612d93565b95989497509550505050565b634e487b7160e01b600052604160045260246000fd5b60006001600160401b0380841115612e6057612e60612e30565b604051601f8501601f19908116603f01168101908282118183101715612e8857612e88612e30565b81604052809350858152868686011115612ea157600080fd5b858560208301376000602087830101525050509392505050565b600060208284031215612ecd57600080fd5b81356001600160401b03811115612ee357600080fd5b8201601f81018413612ef457600080fd5b611a7a84823560208401612e46565b600060208284031215612f1557600080fd5b61134e82612be5565b80358015158114612bfc57600080fd5b600080600080600060a08688031215612f4657600080fd5b85359450602086013593506040860135925060608601359150612f6b60808701612f1e565b90509295509295909350565b60008060408385031215612f8a57600080fd5b612f9383612be5565b9150612d7360208401612d7c565b60008060408385031215612fb457600080fd5b612fbd83612be5565b9150612d7360208401612f1e565b60008060008060808587031215612fe157600080fd5b612fea85612be5565b9350612ff860208601612be5565b92506040850135915060608501356001600160401b0381111561301a57600080fd5b8501601f8101871361302b57600080fd5b61303a87823560208401612e46565b91505092959194509250565b6000806000806040858703121561305c57600080fd5b84356001600160401b038082111561307357600080fd5b61307f88838901612d93565b9096509450602087013591508082111561309857600080fd5b50612e2487828801612d93565b600080604083850312156130b857600080fd5b6130c183612be5565b9150612d7360208401612be5565b6000602082840312156130e157600080fd5b61134e82612d7c565b60008060008060006080868803121561310257600080fd5b61310b86612be5565b945061311960208701612d7c565b93506040860135925060608601356001600160401b0381111561313b57600080fd5b61314788828901612d93565b969995985093965092949392505050565b600181811c9082168061316c57607f821691505b6020821081141561318d57634e487b7160e01b600052602260045260246000fd5b50919050565b6020808252602d908201527f4552433732313a2063616c6c6572206973206e6f7420746f6b656e206f776e6560408201526c1c881bdc88185c1c1c9bdd9959609a1b606082015260800190565b634e487b7160e01b600052601160045260246000fd5b6000816000190483118215151615613210576132106131e0565b500290565b60008261323257634e487b7160e01b600052601260045260246000fd5b500490565b6020808252600d908201526c05175616e74697479206973203609c1b604082015260600190565b6020808252601390820152724578636565646564206d617820737570706c7960681b604082015260600190565b602080825260159082015274115e18d959591959081b585e081c195c881b5a5b9d605a1b604082015260600190565b60208082526017908201527f4578636565646564206d6178207065722077616c6c6574000000000000000000604082015260600190565b634e487b7160e01b600052603260045260246000fd5b60008351613319818460208801612c44565b83519083019061332d818360208801612c44565b01949350505050565b60208082526025908201527f4552433732313a207472616e736665722066726f6d20696e636f72726563742060408201526437bbb732b960d91b606082015260800190565b6000821982111561338e5761338e6131e0565b500190565b60208082526032908201527f4552433732313a207472616e7366657220746f206e6f6e20455243373231526560408201527131b2b4bb32b91034b6b83632b6b2b73a32b960711b606082015260800190565b7f416363657373436f6e74726f6c3a206163636f756e742000000000000000000081526000835161341d816017850160208801612c44565b7001034b99036b4b9b9b4b733903937b6329607d1b601791840191820152835161344e816028840160208801612c44565b01602801949350505050565b600060001982141561346e5761346e6131e0565b5060010190565b6001600160a01b03858116825284166020820152604081018390526080606082018190526000906134a890830184612c70565b9695505050505050565b6000602082840312156134c457600080fd5b815161134e81612bb2565b6000816134de576134de6131e0565b506000190190565b6000828210156134f8576134f86131e0565b500390565b634e487b7160e01b600052603160045260246000fdfea2646970667358221220bc42bf7821e0e166fd6699ac22e0b123bb736a7d7f090ed8a20116e1ea5352dc64736f6c63430008090033",
  "linkReferences": {},
  "deployedLinkReferences": {}
}